:020000040801F1
:1000000000C000205D600108AF600108BB6001080E
:10001000C1600108C7600108CD6001080000000050
:10002000000000000000000000000000D360010894
:10003000DF60010800000000EB600108F7600108C4
:10004000AD600108AD600108AD600108AD60010858
:10005000AD600108AD600108AD600108AD60010848
:10006000AD600108AD600108AD600108AD60010838
:10007000AD600108AD600108AD600108AD60010828
:10008000AD600108AD600108AD600108AD60010818
:10009000AD600108AD600108AD600108AD60010808
:1000A000AD600108AD600108AD600108AD600108F8
:1000B000AD600108AD60010811120108AD600108D2
:1000C000AD600108AD600108AD600108AD600108D8
:1000D000AD600108F9570108291C0108D53901084C
:1000E000AD600108AD600108AD600108AD600108B8
:1000F000AD600108AD600108AD600108AD600108A8
:10010000AD600108AD600108AD600108AD60010897
:10011000D93E0108AD600108AD600108AD6001087D
:10012000AD600108AD600108AD600108AD60010877
:1001300000000000000000000000000000000000BF
:1001400000000000000000000000000000000000AF
:10015000000000000000000000000000000000009F
:10016000000000000000000000000000000000008F
:10017000000000000000000000000000000000007F
:10018000000000000000000000000000000000006F
:10019000000000000000000000000000000000005F
:1001A000000000000000000000000000000000004F
:1001B000000000000000000000000000000000003F
:1001C000000000000000000000000000000000002F
:1001D000000000000000000000000000000000001F
:0401E0005FF8E0F1F3
:1001E80010B5054C237833B9044B13B10448AFF369
:1001F80000800123237010BD90060020000000003D
:100208008CB4010808B5034B1BB103490348AFF38D
:10021800008008BD00000000940600208CB401088E
:1002280010F8012B11F8013B012A28BF9A42F7D098
:10023800D01A7047034613F8012B002AFBD1181A6D
:100248000138704781F0004102E000BF83F00043AD
:1002580030B54FEA41044FEA430594EA050F08BF59
:1002680090EA020F1FBF54EA000C55EA020C7FEA1D
:10027800645C7FEA655C00F0E2804FEA5454D4EB9A
:100288005555B8BF6D420CDD2C4480EA020281EA64
:10029800030382EA000083EA010180EA020281EA9C
:1002A8000303362D88BF30BD11F0004F4FEA0131EE
:1002B8004FF4801C4CEA113102D0404261EB4101FD
:1002C80013F0004F4FEA03334CEA133302D0524283
:1002D80063EB430394EA050F00F0A780A4F101043F
:1002E800D5F1200E0DDB02FA0EFC22FA05F2801879
:1002F80041F1000103FA0EF2801843FA05F359415F
:100308000EE0A5F120050EF1200E012A03FA0EFCDD
:1003180028BF4CF0020C43FA05F3C01851EBE37107
:1003280001F0004507D54FF0000EDCF1000C7EEB24
:1003380000006EEB0101B1F5801F1BD3B1F5001F62
:100348000CD349085FEA30004FEA3C0C04F1010481
:100358004FEA445212F5800F80F09A80BCF1004FAA
:1003680008BF5FEA500C50F1000041EB045141EA2C
:10037800050130BD5FEA4C0C404141EB010111F42D
:10038800801FA4F10104E9D191F0000F04BF0146D8
:100398000020B1FA81F308BF2033A3F10B03B3F1B6
:1003A80020020CDA0C3208DD02F1140CC2F10C0246
:1003B80001FA0CF021FA02F10CE002F11402D8BFA4
:1003C800C2F1200C01FA02F120FA0CFCDCBF41EA70
:1003D8000C019040E41AA2BF01EB0451294330BD3F
:1003E8006FEA04041F3C1CDA0C340EDC04F114041C
:1003F800C4F1200220FA04F001FA02F340EA0300F3
:1004080021FA04F345EA030130BDC4F10C04C4F138
:10041800200220FA02F001FA04F340EA0300294618
:1004280030BD21FA04F0294630BD94F0000F83F462
:10043800801306BF81F480110134013D4EE77FEA45
:10044800645C18BF7FEA655C29D094EA050F08BF91
:1004580090EA020F05D054EA000C04BF1946104672
:1004680030BD91EA030F1EBF0021002030BD5FEAB6
:10047800545C05D14000494128BF41F0004130BDDE
:1004880014F580043CBF01F5801130BD01F0004532
:1004980045F0FE4141F470014FF0000030BD7FEAA5
:1004A800645C1ABF194610467FEA655C1CBF0B46A0
:1004B800024650EA013406BF52EA033591EA030FB7
:1004C80041F4002130BD00BF90F0000F04BF0021AF
:1004D800704730B54FF4806404F132044FF00005E2
:1004E8004FF0000150E700BF90F0000F04BF00215B
:1004F800704730B54FF4806404F1320410F00045C1
:1005080048BF40424FF000013EE700BF42004FEABB
:10051800E2014FEA31014FEA02701FBF12F07F4338
:1005280093F07F4F81F06051704792F0000F14BF35
:1005380093F07F4F704730B54FF4607401F0004579
:1005480021F0004120E700BF50EA010208BF7047D0
:1005580030B54FF000050AE050EA010208BF7047C5
:1005680030B511F0004502D5404261EB41014FF42E
:10057800806404F132045FEA915C3FF4DCAE4FF032
:1005880003025FEADC0C18BF03325FEADC0C18BF19
:10059800033202EBDC02C2F1200300FA03FC20FA6A
:1005A80002F001FA03FE40EA0E0021FA02F11444B7
:1005B800C1E600BF70B54FF0FF0C4CF4E06C1CEACC
:1005C80011541DBF1CEA135594EA0C0F95EA0C0F41
:1005D80000F0DEF82C4481EA030621EA4C5123EAB4
:1005E8004C5350EA013518BF52EA033541F48011E3
:1005F80043F4801338D0A0FB02CE4FF00005E1FB96
:1006080002E506F00042E0FB03E54FF00006E1FBDF
:1006180003569CF0000F18BF4EF0010EA4F1FF0422
:10062800B6F5007F64F5407404D25FEA4E0E6D4162
:1006380046EB060642EAC62141EA55514FEAC52073
:1006480040EA5E504FEACE2EB4F1FD0C88BFBCF5EF
:10065800E06F1ED8BEF1004F08BF5FEA500E50F1A0
:10066800000041EB045170BD06F0004646EA010166
:1006780040EA020081EA0301B4EB5C04C2BFD4EB98
:100688000C0541EA045170BD41F480114FF0000E91
:10069800013C00F3AB8014F1360FDEBF002001F0FF
:1006A800004170BDC4F10004203C35DA0C341BDC79
:1006B80004F11404C4F1200500FA05F320FA04F04B
:1006C80001FA05F240EA020001F0004221F000417F
:1006D80010EBD37021FA04F642EB06015EEA430EF2
:1006E80008BF20EAD37070BDC4F10C04C4F1200522
:1006F80000FA04F320FA05F001FA04F240EA0200D5
:1007080001F0004110EBD37041F100015EEA430EA5
:1007180008BF20EAD37070BDC4F1200500FA05F2C5
:100728004EEA020E20FA04F301FA05F243EA020344
:1007380021FA04F001F0004121FA04F220EA020053
:1007480000EBD3705EEA430E08BF20EAD37070BD99
:1007580094F0000F0FD101F00046400041EB010179
:1007680011F4801F08BF013CF7D041EA060195F05B
:10077800000F18BF704703F00046520043EB030315
:1007880013F4801F08BF013DF7D043EA0603704702
:1007980094EA0C0F0CEA135518BF95EA0C0F0CD00D
:1007A80050EA410618BF52EA4306D1D181EA030153
:1007B80001F000414FF0000070BD50EA410606BF4D
:1007C8001046194652EA430619D094EA0C0F02D192
:1007D80050EA013613D195EA0C0F05D152EA0336D7
:1007E8001CBF104619460AD181EA030101F00041F5
:1007F80041F0FE4141F470014FF0000070BD41F03E
:10080800FE4141F4780170BD70B54FF0FF0C4CF417
:10081800E06C1CEA11541DBF1CEA135594EA0C0F36
:1008280095EA0C0F00F0A7F8A4EB050481EA030E83
:1008380052EA03354FEA013100F088804FEA03336A
:100848004FF0805545EA131343EA12634FEA022238
:1008580045EA111545EA10654FEA00260EF00041F9
:100868009D4208BF964244F1FD0404F5407402D24B
:100878005B084FEA3202B61A65EB03055B084FEADC
:1008880032024FF480104FF4002CB6EB020E75EBD9
:10089800030E22BFB61A754640EA0C005B084FEA01
:1008A8003202B6EB020E75EB030E22BFB61A75467E
:1008B80040EA5C005B084FEA3202B6EB020E75EBC9
:1008C800030E22BFB61A754640EA9C005B084FEA41
:1008D8003202B6EB020E75EB030E22BFB61A75464E
:1008E80040EADC0055EA060E18D04FEA051545EA3D
:1008F80016754FEA06164FEAC30343EA52734FEAE6
:10090800C2025FEA1C1CC0D111F4801F0BD141EA5E
:1009180000014FF000004FF0004CB6E711F4801FC3
:1009280004BF01430020B4F1FD0C88BFBCF5E06FA3
:100938003FF6AFAEB5EB030C04BFB6EB020C5FEAB3
:10094800500C50F1000041EB045170BD0EF0004E08
:100958004EEA113114EB5C04C2BFD4EB0C0541EA3A
:10096800045170BD41F480114FF0000E013C90E637
:1009780045EA060E8DE60CEA135594EA0C0F08BFFB
:1009880095EA0C0F3FF43BAF94EA0C0F0AD150EAFA
:1009980001347FF434AF95EA0C0F7FF425AF10468D
:1009A80019462CE795EA0C0F06D152EA03353FF4B5
:1009B800FDAE1046194622E750EA410618BF52EA32
:1009C80043067FF4C5AE50EA41047FF40DAF52EA06
:1009D80043057FF4EBAE12E74FF0FF3C06E000BFA3
:1009E8004FF0010C02E000BF4FF0010C4DF804CDB0
:1009F8004FEA410C7FEA6C5C4FEA430C18BF7FEA70
:100A08006C5C1BD001B050EA410C0CBF52EA430C9D
:100A180091EA030F02BF90EA020F0020704710F11D
:100A2800000F91EA030F58BF994208BF90422CBFAC
:100A3800D8176FEAE37040F0010070474FEA410CA5
:100A48007FEA6C5C02D150EA013C07D14FEA430CC3
:100A58007FEA6C5CD6D152EA033CD3D05DF8040B34
:100A6800704700BF8446104662468C461946634666
:100A780000E000BF01B5FFF7B7FF002848BF10F13D
:100A8800000F01BD4DF808EDFFF7F4FF0CBF012082
:100A980000205DF808FB00BF4DF808EDFFF7EAFFFE
:100AA80034BF012000205DF808FB00BF4DF808EDB9
:100AB800FFF7E0FF94BF012000205DF808FB00BFAE
:100AC8004DF808EDFFF7CEFF94BF012000205DF838
:100AD80008FB00BF4DF808EDFFF7C4FF34BF012045
:100AE80000205DF808FB00BF4FEA410C7FEA6C5C10
:100AF80002D150EA013C0AD14FEA430C7FEA6C5C10
:100B080002D152EA033C02D14FF0000070474FF087
:100B1800010070474FEA410212F5001215D211D5B3
:100B28006FF47873B3EB625212D94FEAC12343F0E2
:100B3800004343EA505311F0004F23FA02F018BF64
:100B4800404270474FF00000704750EA013005D12D
:100B580011F0004008BF6FF0004070474FF00000F0
:100B6800704700BF53B94AB9002908BF00281CBF05
:100B78004FF0FF314FF0FF3000F07AB9ADF1080CBB
:100B88006DE904CE00F006F8DDF804E0DDE90223A3
:100B980004B070472DE9F0478C460E460446089D80
:100BA800002B50D18A4217466CD9B2FA82FEBEF1A8
:100BB800000F0BD0CEF1200C01FA0EF620FA0CFC37
:100BC80002FA0EF74CEA060C00FA0EF43A0CBCFBDB
:100BD800F2F9BBB202FB19CC09FB03FA4FEA14483D
:100BE80048EA0C46B2450AD9F61909F1FF3180F0F6
:100BF8002581B24540F22281A9F102093E44A6EBC3
:100C08000A06B6FBF2F002FB106600FB03F3A4B27F
:100C180044EA0644A34209D9E41900F1FF3280F0FE
:100C28000B81A34240F2088102383C440021E41AB7
:100C380040EA0940002D62D0002324FA0EF42C600B
:100C48006B60BDE8F0878B4207D9002D55D0002195
:100C580085E841000846BDE8F087B3FA83F100292A
:100C680040F08F80B34202D3824200F2FC80841AA3
:100C780066EB03060120B446002D40D085E810102D
:100C8800BDE8F08712B90127B7FBF2F7B7FA87FE7C
:100C9800BEF1000F35D10121F61B4FEA174C1FFAA0
:100CA80087F8B6FBFCF20CFB126608FB02F0230C7B
:100CB80043EA0646B04207D9F61902F1FF3302D2D9
:100CC800B04200F2D2801A46361AB6FBFCF00CFB92
:100CD800106608FB00F8A3B243EA0644A04507D90A
:100CE800E41900F1FF3302D2A04500F2B98018469A
:100CF800A4EB080440EA02409CE729462846BDE8E0
:100D0800F08707FA0EF7CEF1200326FA03F24FEA2E
:100D1800174CB2FBFCF11FFA87F80CFB112206FAFC
:100D28000EF620FA03F301FB08F933431E0C46EADA
:100D38000246B14500FA0EF409D9F61901F1FF325D
:100D480080F08C80B14540F2898002393E44A6EBA0
:100D58000906B6FBFCF00CFB106200FB08F99EB21A
:100D680046EA0246B14507D9F61900F1FF3371D2B8
:100D7800B1456FD902383E44A6EB090640EA014165
:100D88008FE7C1F1200722FA07F88B4048EA0303EE
:100D980026FA07F44FEA134EB4FBFEF91FFA83FC58
:100DA8000EFB19448E4020FA07F809FB0CFA48EAB2
:100DB80006084FEA184646EA0444A24502FA01F238
:100DC80000FA01F608D9E41809F1FF3044D2A24527
:100DD80042D9A9F102091C44A4EB0A04B4FBFEF0B1
:100DE8000EFB104400FB0CFC1FFA88F848EA044488
:100DF800A44507D9E41800F1FF3E29D2A44527D914
:100E080002381C4440EA0940A0FB0289A4EB0C0C00
:100E1800CC45C246CE4615D312D055B1B6EB0A031F
:100E28006CEB0E0606FA07F7CB401F43CE402F6047
:100E38006E600021BDE8F0871046F7E68946DEE6D9
:100E48004645EAD2B8EB020A69EB030E0138E4E73B
:100E58007046D7E718468FE78146BDE7114676E723
:100E680002383C4444E7084606E7023A3E442BE78A
:100E7800704700BF80B582B000AF0121042003F0A5
:100E880029FE4FF48073BB801023FB710323BB71D1
:100E98003B1D19460F4803F021FB4FF40063BB804C
:100EA8001023FB710323BB713B1D1946094803F04E
:100EB80015FB4FF48053BB804823FB713B1D19463B
:100EC800044803F00BFB00F007F800BF0837BD46E5
:100ED80080BD00BF0008014080B582B000AF00238C
:100EE800BB80324B01221A60012004F013FB2F4B08
:100EF80000221A60012004F00DFB2C4B01221A601D
:100F0800012004F007FB2A4B01221A60012004F09B
:100F180001FB4FF48051274803F09CFB0346002B4C
:100F280002D1BB880133BB800023FB711CE0204B3E
:100F380000221A60012004F0EDFA1D4B01221A600C
:100F4800012004F0E7FABB885B00BB804FF48051B6
:100F5800184803F07FFB0346002B02D1BB880133FE
:100F6800BB80FB790133FB71FB790E2BDFD90F4B6B
:100F780001221A600E4B01221A60BB8823F0C003BD
:100F88009B049B0CBB800C4B1B88BA889A4207D0E9
:100F9800BB881946094805F079FA074ABB881380C7
:100FA800BB8818460837BD4680BD00BFAC0121424A
:100FB800A00121420008014002000020A8B4010855
:100FC80080B582B000AF0121142003F083FD122305
:100FD800BB801023FB710323BB713B1D19460F48CF
:100FE80003F07CFA0823BB801023FB710323BB7139
:100FF8003B1D19460A4803F071FA0A4B00221A6091
:10100800094B00221A60094B00221A60084B012282
:101018001A7000BF0837BD4680BD00BF00080140F8
:1010280000100140840121428C012242900121429A
:10103800AC06002080B584B000AF0346FB710023E6
:10104800FB731CE097F90730002B03DA154B0122DC
:101058001A6002E0134B00221A60134B00221A6038
:10106800012004F057FA104B01221A60012004F005
:1010780051FAFB795B00FB71FB7B0133FB73FB7B54
:10108800072BDFD9094B00221A60012004F042FA2D
:10109800064B01221A60012004F03CFA00BF103709
:1010A800BD4680BD90012142840121428C0122422B
:1010B80080B582B000AF0346FB710F4B1B78002B45
:1010C80015D00D4B5B785AB2FB79C3F107030121A8
:1010D80001FA03F35BB2DB435BB213405BB2DAB2F3
:1010E800054B5A70044B5B781846FFF7A3FF00BF07
:1010F8000837BD4680BD00BFAC06002080B582B071
:1011080000AF0346FB710E4B1B78002B13D00C4B22
:101118005B785AB2FB79C3F10703012101FA03F3A3
:101128005BB213435BB2DAB2054B5A70044B5B787F
:101138001846FFF77FFF00BF0837BD4680BD00BFD8
:10114800AC06002080B582B000AF0346FB710E4BA1
:101158001B78002B13D00C4B5B785AB2FB79C3F188
:101168000703012101FA03F35BB253405BB2DAB221
:10117800054B5A70044B5B781846FFF75BFF00BFBE
:101188000837BD4680BD00BFAC06002080B586B0DC
:1011980000AF03460A46FB801346BB80194803F09C
:1011A8004BFD0121042003F0B3FCFB883B82BB8884
:1011B800BB8100237B820023FB8107F10C031946C6
:1011C800104803F04FFE012201210E4803F0E5FE0E
:1011D80001210C4803F02DFF1E233B7204237B7270
:1011E8000423BB720123FB7207F10803184602F0BF
:1011F800E1FF0121034803F0B1FE00BF1837BD46E7
:1012080080BD00BF0008004080B500AF0121324812
:1012180003F0E6FE0346002B00F0E48101212E488E
:1012280003F007FF2D4B93F8403ADBB2002B18D0A0
:101238002B4B1B889BB201339AB2294B1A80284B3F
:101248001B889BB2B3F5FA6F0BD1254B00221A808D
:10125800244B254A1188927819809A70234B0122D1
:101268001A701E4B93F83F3ADBB2002B17D01B4B7A
:10127800002283F83F2A1E4B01221A60174B0022D6
:1012880083F83E2A174B184A1188927819809A7069
:10129800164B01221A70114B012283F8402A0F4B7A
:1012A80093F83E3ADBB2002B26D0124B1B78DBB208
:1012B8000133DAB20F4B1A700E4B1B78DBB2322BAC
:1012C8001DD10C4B00221A70094A094B1B6883F088
:1012D8000103136013E000BF00080040E40600208B
:1012E800D206002055110020BCB4010828110020A6
:1012F800BC012142C8060020A54B01221A60A54B5B
:1013080093F83330002B30D0A34B1B680133A24A2B
:101318001360A04B93F831301A46642303FB02F3A1
:101328001A469D4B1B689A421FD19B4B00221A609C
:1013380001F018FA994B1B78DBB20133DAB2974BFC
:101348001A70944B93F83220944B1B78DBB29A4274
:101358000BD1924B00221A70914B924A11889278C5
:1013680019809A70904B01221A70904B1B78DBB24F
:10137800002B18D08E4B1B889BB201339AB28C4B32
:101388001A808B4B1B889BB2B3F5967F0BD189488B
:1013980005F0F4F8864B00221A80844B00221A705C
:1013A800854BFF221A70854B9B7B002B0FD0834BFC
:1013B8001B7D0133DAB2814B1A75804B1B7D142BD0
:1013C80005D17E4B00221A750120FFF7BBFE7B4B2F
:1013D800DB7B002B0FD0794B5B7D0133DAB2774B87
:1013E8005A75764B5B7D142B05D1744B00225A75C8
:1013F8000220FFF7A7FE714B1B7C002B0FD06F4B11
:101408009B7D0133DAB26D4B9A756C4B9B7D142B27
:1014180005D16A4B00229A750320FFF793FE674BAC
:101428005B7C002B0FD0654BDB7D0133DAB2634B5D
:10143800DA75624BDB7D142B05D1604B0022DA751F
:101448000420FFF77FFE5D4B9B7C002B0FD05B4B8E
:101458001B7E0133DAB2594B1A76584B1B7E142B7C
:1014680005D1564B00221A760520FFF76BFE534B29
:10147800DB7C002B0FD0514B5B7E0133DAB24F4B34
:101488005A764E4B5B7E142B05D14C4B00225A7674
:101498000620FFF757FE494B9B78002B0FD0474B90
:1014A8001B7A0133DAB2454B1A72444B1B7A502B24
:1014B80005D1424B00221A720120FFF743FE3F4B31
:1014C800DB78002B0FD03D4B5B7A0133DAB23B4B14
:1014D8005A723A4B5B7A502B05D1384B00225A721C
:1014E8000220FFF72FFE354B1B79002B0FD0334B13
:1014F8009B7A0133DAB2314B9A72304B9B7A502B7C
:1015080005D12E4B00229A720320FFF71BFE2B4BAE
:101518005B79002B0FD0294BDB7A0133DAB2274BEA
:10152800DA72264BDB7A502B05D1244B0022DA7273
:101538000420FFF707FE214B9B79002B0FD01F4B90
:101548001B7B0133DAB21D4B1A731C4B1B7B502BD0
:1015580005D11A4B00221A730520FFF7F3FD174B2C
:10156800DB79002B0FD0154B5B7B0133DAB2134BC1
:101578005A73124B5B7B502B05D1104B00225A73C8
:101588000620FFF7DFFD0E4B1B78DBB21AE000BF29
:10159800BC012142201A0020CC060020D0060020E1
:1015A80055110020C0B4010828110020C6060020EB
:1015B800D6060020C4B4010804000020AC060020B0
:1015C800D40600200133DAB2074B1A70064B1B7899
:1015D800DBB2022B06D1044B00221A70034B012206
:1015E80083F8312000BF80BDD406002028110020D8
:1015F80080B582B000AF0121042003F06BFAE0232C
:10160800BB801023FB710323BB713B1D19460548A2
:1016180002F064FFE021034803F043F800BF0837F5
:10162800BD4680BD0008014080B584B000AF0346C8
:10163800FB71114B01221A60642003F06BFF0E4B03
:1016480000221A60642003F065FF0023FB730BE09F
:101658000A4B01221A60642003F05CFF074B00224A
:101668001A60FB7B0133FB73FA7BFB799A42EFD359
:1016780000BF1037BD4680BD980121429401214228
:1016880080B483B000AF78607B681B889BB2184633
:101698000C37BD4680BC704780B586B000AFF86097
:1016A800B9601346FB800023FB820EE0FB8A5B00D7
:1016B800BA6813441B881946F86802F095FEFB685F
:1016C8000233FB60FB8A0133FB82FA8AFB889A4269
:1016D800ECD300BF1837BD4680BD000080B588B088
:1016E80000AFF860B9601346FB80FB68B3F1006F88
:1016F800C0F09380FB684B4A934200F28E8002F060
:1017080021FEFB6803F178433B613B69DB0AFB611F
:101718003B69C3F30A035B087B837B8BC3F5806358
:101728003B83FA883B8B9A4201D8FB883B83FB6951
:1017380003F58033DB024FF480623B49184600F022
:1017480075F80023FB820CE07A8BFB8A1344364A37
:1017580032F813304FF6FF72934207D1FB8A0133F8
:10176800FB82FA8A3B8B9A42EED300E000BFFA8AEA
:101778003B8B9A4226D2FB6903F58033DB0218467D
:1017880002F000FE0023FB820DE0FA8A7B8B1344F3
:10179800FA8A5200B9680A441188234A22F81310B9
:1017A800FB8A0133FB82FA8A3B8B9A42EDD3FB69B1
:1017B80003F58033DB024FF480621B491846FFF7BC
:1017C8006BFF05E03B8B1A46B968F868FFF764FFC2
:1017D800FA883B8B9A421CD0FB690133FB610023DA
:1017E8007B833B8B5B00BA681344BB603B8BFA6816
:1017F8001344FB60FA883B8BD31AFB80FB88B3F554
:10180800806F03D94FF480633B8390E7FB883B8369
:101818008DE700BF02F0A8FD00E000BF2037BD46FD
:1018280080BD00BFFFFF0308AC1A002090B587B049
:1018380000AFF860B9601346FB800023FB820EE01E
:10184800FB8A5B00BA68D418F868FFF719FF0346EB
:101858002380FB680233FB60FB8A0133FB82FA8A30
:10186800FB889A42ECD300BF1C37BD4690BD0000F0
:1018780080B500AF082203490348FFF7D7FF00BF30
:1018880080BD00BFC022002004F8030880B500AF67
:10189800142203490348FFF7C9FF00BF80BD00BFFA
:1018A800AC22002020F8030880B500AF6422034969
:1018B8000348FFF7BBFF00BF80BD00BFC822002060
:1018C80040F8030880B582B000AF03460A46FB71B2
:1018D8001346BB71FB790649BA79CA5406220449F2
:1018E8000448FFF7FBFE00BF0837BD4680BD00BFB8
:1018F800DC06002000FF030880B582B000AF034675
:10190800FB71062205490648FFF790FFFB79034A59
:10191800D35C18460837BD4680BD00BFDC060020F2
:1019280000FF030880B582B000AF0121042003F056
:10193800D1F84FF40043BB801023FB710323BB7124
:101948003B1D1946094802F0C9FD0121012003F099
:10195800C1F80121064802F0B3FE4FF400410348E4
:1019680002F09FFE00BF0837BD4680BD0008014059
:101978000002300080B400AFBFF34F8F0549054B1C
:10198800DB6803F4E062044B1343CB60BFF34F8F73
:10199800FEE700BF00ED00E00400FA0580B588B05E
:1019A80000AF7860274803F055FB01214FF4003061
:1019B80003F0AEF80121042003F08CF80423BB8364
:1019C8000323BB771823FB7707F11C0319461E482E
:1019D80002F084FD0823BB830423FB7707F11C0373
:1019E8001946194802F07AFD26233B7201237B72BF
:1019F8000223BB720123FB7207F10803184602F0A9
:101A0800D9FB7B68FB6000233B8200237B82002399
:101A1800BB8200233B830C23FB8207F10C0319468E
:101A2800084803F073FB012240F22551054803F0F2
:101A380046FC0121034803F023FC00BF2037BD46C4
:101A480080BD00BF004400400008014080B586B05A
:101A580000AF7860634B012283F83E2A614B002275
:101A680083F83D2A7868FFF799FF0121102003F0D9
:101A780031F80323BB811023FB730323BB7307F1E6
:101A88000C031946584802F029FD0221564802F075
:101A9800FAFD4FF47A7003F071FD4FF47A7003F099
:101AA8006DFD4FF47A7003F069FD02214E4802F093
:101AB800F8FD01214C4802F0E6FD40F24C4003F0ED
:101AC8005DFD0121484802F0ECFD4FF4FA7003F087
:101AD80055FD00F069FC4FF4FA730022434944486D
:101AE80000F032FB4FF4FA7300224049414800F0FD
:101AF8002BFB00F093FB0346002BC6D000F068FCDC
:101B080000BF3D493D4800F0BBFB034683F001039D
:101B1800DBB2002BF5D10023FB75FB7D022B01D92D
:101B2800FFF728FF364800F0E1FDFB7D0133FB7528
:101B38004FF4FA7003F022FD2A4BB3F8423AC3F38C
:101B4800C033DBB2002BE8D0264AB2F8423A6FF332
:101B5800CF33A2F8423A2B492B4800F0B9FA214B6F
:101B6800D3F8083A02222949184604F06DFC0346C6
:101B7800002BD2D1264B3B612649254804F0DAFDDB
:101B88003861386904F01EFC0346DAB2224B83F848
:101B980031202049002004F0CDFD3861386904F077
:101BA80011FC0346DAB21C4B83F832201A4B93F827
:101BB80031301946184B93F832301A46174804F05A
:101BC80065FC00BF074B012283F83F2A124B012214
:101BD80083F83320034B012283F83D2A00BF1837CE
:101BE800BD4680BDE406002000100140D0B40108C5
:101BF800D4B40108E0B40108541A0020321A0020B5
:101C0800ECB40108F0B40108E40A0020F4B40108B7
:101C1800E80E0020F8B40108201A0020FCB40108DE
:101C280080B586B000AF40F22551BE4803F0D9FB1D
:101C38000346002B00F0228240F22551B94803F0F8
:101C48002AFCB84803F093FB0346FB74B64BB3F881
:101C5800423AC3F30E039BB21A4640F2FE339A424D
:101C680014DCB14BB3F8423AC3F30E0399B24B1CE0
:101C7800C3F30E0398B2AC4AB2F8423A60F30E03CB
:101C8800A2F8423AA84AFB7C53540FE0A74804F054
:101C980075FC4FF480620021A34804F0EFFBA24AD0
:101CA800B2F8423A6FF30E03A2F8423AFB7C5D2B7E
:101CB80043D15B219C4804F0D0FC0346002B3CD068
:101CC800994B7B619A4B002283F8302002E07B69B4
:101CD80001337B617B691B785B2BF8D102E07B6960
:101CE80001337B617B691B785B2BF8D0914978695C
:101CF80004F020FD02468C4BC3F800288A4BD3F829
:101D080000388D49184602F043F88B498B4804F097
:101D1800BDFB4FF480620021834804F0AFFB824A88
:101D2800B2F8423A6FF30E03A2F8423A7E4AB2F88A
:101D3800423A43F40043A2F8423A7B4B93F83D3AC7
:101D4800DBB2002B00F09A81774BB3F8423AC3F329
:101D5800C033DBB2002B00F09181734AB2F8423AEB
:101D68006FF3CF33A2F8423A7549734800F0B0F9DF
:101D78006D4BD3F8083A02227249184604F064FB06
:101D88000346002B0CD16A4B002283F83020664BA7
:101D9800002283F8402A664B012283F82F206DE148
:101DA800614BD3F8083A02226749184604F04CFB05
:101DB8000346002B04D15E4B002283F830205DE1FE
:101DC800594BD3F8083A02226049184604F03CFB04
:101DD8000346002B04D1564B002283F830204DE1F6
:101DE800514BD3F8083A02225949184604F02CFB03
:101DF8000346002B23D15749574804F09BFCF86051
:101E0800F86804F0DFFA0246494B9A60514900200D
:101E180004F090FCF860F86804F0D4FA0346DAB2EB
:101E2800434B83F820204D4B4D4A126811461980C8
:101E38000233120C1A703E4B01229A701EE13A4B83
:101E4800D3F8083A02224749184604F0FDFA034637
:101E5800002B0AD1364B93F82030DBB2002B00F070
:101E68000D810220FFF7E0FB08E12F4BD3F8083A79
:101E780002223D49184604F0E7FA0346002B0AD12E
:101E88002B4B93F82030DBB2002B00F0F7800320B7
:101E9800FFF7CAFBF2E0244BD3F8083A0222334991
:101EA800184604F0D1FA0346002B14D12A4804F04E
:101EB80089FA0346012B03D10220FFF7B5FBDDE0C9
:101EC800254804F07FFA0346022B40F0D780032010
:101ED800FFF7AAFBD2E0144BD3F8083A02222449B0
:101EE800184604F0B1FA0346002B09D1214B224AC7
:101EF8001188927819809A700D4B01225A70BDE0B2
:101F0800094BD3F8083A02221C49184604F09CFAF7
:101F18000346002B36D11A4800F002FCFFF72AFDD1
:101F2800ACE000BF00440040E40600200CB5010806
:101F38002811002020B50108E40A002024B5010872
:101F4800F0B401083CB5010840B5010844B50108E2
:101F580048B501084CB50108E80E00202C110020F6
:101F680050B5010854B5010858B501085CB5010819
:101F780060B501085511002064B5010868B501086D
:101F88006CB50108464BD3F8083A02224549184671
:101F980004F05AFA0346002B2CD14349434804F075
:101FA800C9FBB860B86804F00DFA0246404B9A6065
:101FB8003D49002004F0BEFBB860B9683D4804F014
:101FC8005AFB3949002004F0B5FBB860B86804F042
:101FD800F9F90346DAB2364B83F82020364B374AF4
:101FE8001268114619800233120C1A70304B012204
:101FF800DA7043E02A4BD3F8083A022230491846EF
:1020080004F022FA0346002B03D10220FFF70CFB51
:1020180034E0234BD3F8083A02222A49184604F040
:1020280013FA0346002B04D1214B012283F83320F5
:1020380024E01B4BD3F8083A02222349184604F03F
:1020480003FA0346002B19D11749184804F072FB0C
:102058007860786804F0B6F90346FB7012490020EE
:1020680004F068FB7860786804F0ACF90346BB704C
:10207800BA78FB7811461846FFF724FC0821134864
:1020880003F084F90346002B06D008210F4803F01B
:1020980098F90E4803F06BF900BF1837BD4680BDAC
:1020A800E406002070B501084CB50108E80E0020D0
:1020B80028110020341100202C11002074B50108CB
:1020C80078B501087CB5010880B5010800440040D6
:1020D80080B584B000AF786039607B68FB6000230E
:1020E800FB7209E0FB680133FB60FB681B782C2B53
:1020F80002D1FB7A0133FB72FB7A012BF2D9FB6820
:102108000133FB600F4BFA6803F6040311464FF4E2
:102118000072184604F0A7F93968786804F00AFBD9
:10212800F860084AFB68C2F8043A3968002004F0ED
:1021380001FBF860034AFB68C2F8083A00BF103791
:10214800BD4680BDE406002080B584B000AFF860CD
:10215800B9607A603B602D4B0022A3F8422AFA68E6
:102168002B492C4801F070FFBB68002B04D17B6819
:10217800002B01D1012345E03B689BB2184603F0D0
:10218800FDF9224BB3F8423AC3F30E039BB21A4649
:102198001E4B002199541D491F4804F077F9BB686C
:1021A800002B17D07B68002B14D0B968174804F0AF
:1021B800A5FA0346002B06D17968144804F09EFA64
:1021C8000346002B01D0012300E0002303F00103A4
:1021D800DBB217E0BB68002B0AD0B9680B4804F0E3
:1021E8008DFA0346002B14BF01230023DBB209E05C
:1021F8007968064804F082FA0346002B14BF0123CD
:102208000023DBB218461037BD4680BDE406002027
:1022180084B50108004400408CB5010880B582B03F
:1022280000AF0023FB7109E04FF4FA730022104954
:102238001048FFF789FFFB790133FB71FB79072B06
:10224800F2D94FF4FA73002209490A48FFF77CFFD4
:102258000346002B04D0084804F090F9012303E05A
:10226800064804F08BF9002318460837BD4680BDA0
:10227800D0B4010890B5010894B50108B0B50108BB
:1022880080B59CB000AF7860396007F10C03642218
:102298000021184604F0F2F84FF4FA7300220C49B2
:1022A8000C48FFF751FF07F10C003B687A680A49B0
:1022B80004F0A0F907F10C004FF4E163002204498F
:1022C800FFF742FF034618467037BD4680BD00BF82
:1022D800D0B40108C8B50108D8B5010880B5ADF576
:1022E800047D00AF3B1D1860002387F80F3207F10B
:1022F8000C0342F67B021A6004334FF4FE7200218D
:10230800184604F0BBF83B1D07F10C02196810468B
:1023180004F094F907F10C031846FDF78BFF034608
:102328001A4607F10C0313441D491A460B461B882D
:10233800138016E097F80F3207F10C02D35C9BB2BA
:102348001946184803F002F800BF8021154803F029
:102358001DF80346002BF8D097F80F32013387F8A1
:102368000F3297F80F3207F10C02D35C7D2BE1D1C5
:1023780097F80F3207F10C02D35C9BB21946094853
:1023880002F0E4FF00BF8021064802F0FFFF034689
:10239800002BF8D000BF07F50477BD4680BD00BF0D
:1023A80004B601080044004080B500AF4FF47A70CD
:1023B80003F0E4F80449054801F046FE4FF4FA70CA
:1023C80003F0DCF800BF80BD08B6010800440040F7
:1023D80080B582B000AF00237B600023FB7000BF94
:1023E8004FF4FA73002284498448FFF7ADFE034690
:1023F80083F00103DBB2002BF2D1814B30221A802B
:10240800804B30221A8000BF4FF4FA7300227A49B9
:102418007D48FFF799FE034683F00103DBB2002BEA
:10242800F2D17A4B7B600023FB7002E07B680133BA
:102438007B607B681B78392BF8D87B681B782F2B3F
:10244800F4D90CE0FB785A1CFA7019467B681A78A4
:102458006E4B0B4483F8242A7B6801337B607B68CE
:102468001B78392B03D87B681B782F2BEAD87B681D
:102478001B785A2B03D87B681B78402BE2D87B68E3
:102488001B787A2B03D87B681B78602BDAD86049D5
:10249800604803F0FBFF00BF4FF47A7300225649EF
:1024A8005D48FFF751FE034683F00103DBB2002BC2
:1024B800F2D100BF4FF4FA7300224F495748FFF793
:1024C80043FE034683F00103DBB2002BF2D15449EB
:1024D8004E4804F013F90346002B04D04B4B33222B
:1024E80083F83C2A0FE04F49484804F007F90346AF
:1024F800002B04D0454B362283F83C2A03E0434B9B
:10250800392283F83C2A414B93F83C3A194646480D
:1025180003F0BCFF00BF4FF4FA730022364943486A
:10252800FFF712FE034683F00103DBB2002BF2D162
:10253800364B7B6000BF7B685A1C7A601B783A2B4D
:10254800F9D17B6801337B603949786804F0F2F887
:102558000346184603F036FF0346DAB22B4B83F8DE
:10256800412A2A4B93F8413A1946324803F08EFF24
:10257800264B93F83C3A332B0ED100BF4FF4E1635E
:1025880000221D492C48FFF7DFFD034683F00103B5
:10259800DBB2002BF2D126E01C4B93F83C3A362BE9
:1025A8000ED100BF4FF4E163002213492348FFF71F
:1025B800CBFD034683F00103DBB2002BF2D112E01E
:1025C800124B93F83C3A392B0DD100BF4FF4E1631D
:1025D800002209491A48FFF7B7FD034683F00103B3
:1025E800DBB2002BF2D14FF47A7002F0C7FF00BFC4
:1025F8000837BD4680BD00BFD0B401080CB601083D
:10260800F0100020FC10002020B60108E40600208D
:102618000811002028B6010834B6010840B60108A0
:102628004CB6010854B601085CB601086CB601083E
:10263800F0B4010874B6010880B601089CB6010818
:10264800C4B6010880B58EB008AFF860B9607A608A
:10265800FB700E4B7B61FFF70BF9FB783A6B069228
:10266800FA6A0592BA6A04927A6A03923A6A0292FC
:1026780001937B680093BB68054A7969F86803F0A1
:10268800B9FF00BF1837BD4680BD00BFE0B60108DE
:10269800C022002080B588B006AF78603960FFF7A7
:1026A800F5F80B4B93F83C2A0A4B04930A4B039317
:1026B8000A4B02930A4B01930A4B009313460A4AAA
:1026C80039687868FFF7BEFF00BF0837BD4680BD90
:1026D800E4060020FCB60108FC100020F0100020E1
:1026E800AC22002000B701080811002080B5A2B074
:1026F80000AF786007F1080380220021184603F034
:10270800BDFE07F1080379681846FFF7C3FF07F114
:102718000803184600F0BAF900BF8837BD4680BDE7
:1027280080B5A2B000AF786007F1080380220021CD
:10273800184603F0A3FEFFF79BF807F108007B6833
:10274800064A074903F056FF07F10803184600F048
:102758009DF900BF8837BD4680BD00BFC02200205C
:1027680004B7010880B582B000AF1A4B7B601A4BE2
:1027780093F83030DBB20133DAB2174B83F83020EC
:1027880011E07B681B789BB21946144802F0DEFD05
:1027980000BF8021114802F0F9FD0346002BF8D054
:1027A8007B6801337B607B681B787D2BE9D17B6874
:1027B8001B789BB21946094802F0C8FD00BF80216A
:1027C800064802F0E3FD0346002BF8D000BF0837A7
:1027D800BD4680BD0CB70108281100200044004008
:1027E80080B5CCB008AF3B1D186007F10C03184644
:1027F8004FF480731A46002103F040FE164BC7F8C9
:102808000C31FFF735F8154B93F8413A184600F0AC
:1028180029F901463B1D07F10C00114A0792069160
:10282800104A0592104A0492104A0392104A0292E2
:10283800104A0192104A00921B68104AD7F80C11EE
:1028480003F0D8FE07F10C03184600F01FF900BF8B
:1028580007F58877BD4680BD38B70108E406002033
:1028680058B70108FF110020ED110020DB110020EE
:10287800C9110020B7110020A5110020C022002096
:1028880090B5C9B004AF02463B461960FB1D1A70EB
:1028980007F10C0318464FF480731A46002103F021
:1028A800EDFD1F4BC7F80C31FB1D1C78FB1D1A787A
:1028B8001346DB0013445B0010331A4A13445A1DB5
:1028C800FB1D1B781146184600F006FD03461A4604
:1028D800154B234483F82120FEF7CAFFFB1D1A7805
:1028E8001346DB0013445B0010330E4A13445A1D91
:1028F8003B4607F10C000D4902910D4901910092E8
:102908001B680C4AD7F80C1103F074FE07F10C038E
:10291800184600F0BBF800BF07F58A77BD4690BDA2
:1029280060B70108901100202811002058B701084D
:1029380034110020C022002090B5C7B002AF024673
:102948003B461960FB1D1A7007F10C0318464FF43B
:1029580080731A46002103F091FD1E4BC7F80C3115
:10296800FB1D1C78FB1D1A781346DB0013445B0023
:102978001033194A13445A1DFB1D1B78114618467B
:1029880000F0AAFC03461A46144B234483F821207E
:10299800FEF76EFFFB1D1A781346DB0013445B003D
:1029A80010330D4A13445A1D3B4607F10C000C49DD
:1029B800019100921B680B4AD7F80C1103F01AFE1C
:1029C80007F10C03184600F061F800BF07F58A7795
:1029D800BD4690BD70B70108901100202811002055
:1029E80058B70108C022002080B5C6B002AF024621
:1029F800FB1D1A7007F10C0318464FF480731A4632
:102A0800002103F03BFD124BC7F80C31FEF730FFF5
:102A1800FB1D1A781346DB0013445B0010330D4A84
:102A28001344053307F10C000B4A019200930B4B3A
:102A38000B4AD7F80C1103F0DDFD07F10C0318461B
:102A480000F024F800BF07F58877BD4680BD00BFB9
:102A580070B701089011002058B701087CB7010829
:102A6800C022002080B582B000AF0346FB71FB791D
:102A7800044A0321044803F089FD034B184608372C
:102A8800BD4680BD80B701086011002080B582B0C6
:102A980000AF78607968074803F0F8FC0649786861
:102AA80001F08EF80448FFF719FC00BF0837BD464F
:102AB80080BD00BF84B50108E40C002080B582B059
:102AC80000AF0121382002F005F84FF47043BB80B5
:102AD8001023FB710323BB713B1D1946194801F0F4
:102AE800FDFC4FF47E73BB801023FB710323BB7185
:102AF8003B1D1946144801F0F1FC0423BB80102348
:102B0800FB710323BB713B1D1946104801F0E6FC1D
:102B18000121012001F0DEFF01210D4801F0D0FD67
:102B28004FF47E71084801F0BCFD4FF47041054830
:102B380001F0B7FD0421054801F0B3FD00BF0837D7
:102B4800BD4680BD00100140000C0140001401404A
:102B58000002300080B483B000AF03460A46FB7120
:102B68001346BB71FB79013B052B57D801A252F8DC
:102B780023F000BF952B0108AD2B0108C52B0108D8
:102B8800DD2B0108F52B01080D2C0108264ABB791D
:102B98001360264ABB79002B0CBF01230023DBB24C
:102BA80013603CE0224ABB791360224ABB79002BB0
:102BB8000CBF01230023DBB2136030E01E4ABB794F
:102BC80013601E4ABB79002B0CBF01230023DBB224
:102BD800136024E01A4ABB7913601A4ABB79002BA8
:102BE8000CBF01230023DBB2136018E0164ABB793F
:102BF8001360164ABB79002B0CBF01230023DBB2FC
:102C080013600CE0124ABB791360124ABB79002B9F
:102C18000CBF01230023DBB2136000E000BF00BF3C
:102C28000C37BD4680BC7047BC012242B801224225
:102C3800B4012242A4812142A08121429C812142E7
:102C48009881214294812142908121428C812142A4
:102C580088812242B001224280B584B000AF034689
:102C68000A46FB711346BB71FB79002B08D0FB7930
:102C7800062B05D8BB79002B02D00120FEF7D4FC27
:102C8800FB79013B052B00F2118101A252F823F0D8
:102C9800B12C0108072D01085D2D0108B32D01088D
:102CA800092E01085F2E0108854B01221A60854B09
:102CB80000221A600023FB8105E0642002F05EFC1C
:102CC800FB890133FB81804B1B7C9BB2FA899A42BA
:102CD800F3D37B4B00221A607A4B01221A6000233F
:102CE800FB8105E0642002F049FCFB890133FB818C
:102CF800754B5B7C9BB2FA899A42F3D3D7E0734B4E
:102D080001221A60724B00221A600023FB8105E041
:102D1800642002F033FCFB890133FB816A4B1B7C86
:102D28009BB2FA899A42F3D3684B00221A60684B27
:102D380001221A600023FB8105E0642002F01EFCDA
:102D4800FB890133FB81604B5B7C9BB2FA899A4219
:102D5800F3D3ACE05F4B01221A605F4B00221A608C
:102D68000023FB8105E0642002F008FCFB890133A5
:102D7800FB81554B1B7C9BB2FA899A42F3D3554B86
:102D880000221A60544B01221A600023FB8105E0DF
:102D9800642002F0F3FBFB890133FB814A4B5B7C27
:102DA8009BB2FA899A42F3D381E04C4B01221A6014
:102DB8004B4B00221A600023FB8105E0642002F0DF
:102DC800DDFBFB890133FB813F4B1B7C9BB2FA89FE
:102DD8009A42F3D3414B00221A60414B01221A60F8
:102DE8000023FB8105E0642002F0C8FBFB89013366
:102DF800FB81354B5B7C9BB2FA899A42F3D356E050
:102E0800384B01221A60384B00221A600023FB81DC
:102E180005E0642002F0B2FBFB890133FB812A4BF9
:102E28001B7C9BB2FA899A42F3D32E4B00221A607C
:102E38002D4B01221A600023FB8105E0642002F07B
:102E48009DFBFB890133FB811F4B5B7C9BB2FA899D
:102E58009A42F3D32BE0254B01221A60244B00221F
:102E68001A600023FB8105E0642002F087FBFB89E0
:102E78000133FB81144B1B7C9BB2FA899A42F3D332
:102E88001A4B00221A601A4B01221A600023FB8198
:102E980005E0642002F072FBFB890133FB810A4BD9
:102EA8005B7C9BB2FA899A42F3D300E000BFFB79BE
:102EB800184600F06BF800BF1037BD4680BD00BF54
:102EC800BC012242B8012242201A0020B401224249
:102ED800A4812142A08121429C81214298812142E2
:102EE80094812142908121428C8121428881224211
:102EF800B001224280B584B000AF234803F03EFB06
:102F08000123FB6008E0FB68DBB201211846FFF7EC
:102F180021FEFB680133FB60FB68062BF3DD4FF4F1
:102F28007A7002F02BFB4FF47A7002F027FB4FF413
:102F38007A7002F023FB0123BB6008E0BB68DBB2B8
:102F480000211846FFF706FEBB680133BB60BB686B
:102F5800062BF3DD4FF47A7002F010FB40F2DC50E0
:102F680002F00CFB01237B6007E07B68DBB21846AC
:102F780000F00CF87B6801337B607B68062BF4DD7E
:102F880000BF1037BD4680BD84B7010880B483B048
:102F980000AF0346FB71FB79013B052B38D801A232
:102FA80052F823F0C52F0108D32F0108E12F01089B
:102FB800EF2F0108FD2F01080B300108174B0022E5
:102FC8001A60174B00221A6023E0164B00221A6081
:102FD800154B00221A601CE0144B00221A60144B97
:102FE80000221A6015E0134B00221A60124B0022CF
:102FF8001A600EE0114B00221A60114B00221A6071
:1030080007E0104B00221A600F4B00221A6000E004
:1030180000BF00BF0C37BD4680BC7047BC012242D0
:10302800B8012242B4012242A4812142A081214256
:103038009C812142988121429481214290812142A0
:103048008C81214288812242B001224280B588B019
:1030580000AF78602A4801F0FDFF0121082001F047
:1030680039FD01214FF4802001F052FD4FF48063B7
:10307800BB830323BB771823FB7707F11C0319468F
:10308800204801F02BFA4FF40063BB830423FB773D
:1030980007F11C0319461B4801F020FA7B68FB6006
:1030A80000233B8200237B820023BB8200233B83D7
:1030B8000C23FB8207F10C031946114802F026F88D
:1030C80001210F4802F0DCF840210D4802F079F99F
:1030D800012240F225510A4802F0F1F827233B72F9
:1030E80000237B720023BB720123FB7207F10803E4
:1030F800184601F05FF800BF2037BD4680BD00BF0D
:1031080000480040000C014080B584B000AF7860F2
:103118007868FFF79BFF0121182001F0DBFC4FF4D2
:103128004043BB811023FB730323BB7307F10C03DC
:1031380019460A4801F0D2F94FF4E073BB81102315
:10314800FB730323BB7307F10C031946044801F012
:10315800C5F900BF1037BD4680BD00BF000C014057
:103168000010014080B582B000AF0346FB71FB79C7
:10317800013B052B62D801A252F823F09D310108CA
:10318800AF310108C1310108D3310108F931010813
:103198001F32010840212C4801F083FA80212A4877
:1031A80001F07FFA4BE04021274801F06CFA8021BA
:1031B800254801F076FA42E04021234801F071FAEF
:1031C8008021214801F05FFA39E040211E4801F0D2
:1031D8005AFA80211C4801F056FA4FF480411B48E6
:1031E80001F05FFA4FF40041184801F05AFA26E05E
:1031F8004021154801F047FA8021134801F043FAAD
:103208004FF48041114801F03EFA4FF400410F4855
:1032180001F047FA13E040210B4801F034FA80210D
:10322800094801F030FA4FF48041084801F039FAB2
:103238004FF40041054801F026FA00E000BF00BF46
:103248000837BD4680BD00BF00100140000C01409A
:1032580080B584B000AF0346FB710023FB73FB7994
:103268001B4A13449B79002B06D1FB790133DBB24F
:103278000121184600F05EFCFB790133DBB21846E9
:10328800FFF770FFFB7B042B01D900231CE0114AD8
:10329800104B1B68002B0CBF01230023DBB213600B
:1032A800022002F06BF90F2000F066FB322002F0DA
:1032B80065F9FB7B0133FB73054B5B78002BE1D091
:1032C800034B00225A70012318461037BD4680BDB3
:1032D80090110020A001224280B588B002AF0346B9
:1032E8003960FB710023BB7500237B7500233B7598
:1032F8000023FB750023FB740023BB7407F10C0348
:1033080000210A461A800A469A70FDF7E5FD034631
:103318001A46654B1A80FB791846FFF799FF034652
:103328003B75614B1B889BB2DAB2FB7942FA03F317
:1033380003F00103002B14BF01230023DBB2BB758C
:10334800594B1B889BB21B0A9BB2DAB2FB7942FA33
:1033580003F303F00103002B14BF01230023DBB2A6
:103368007B75BB7CDB005AB2BB7D9B005BB2134311
:103378005AB23B7D5B005BB213435AB297F91530E2
:1033880013435BB2FB74FB7C484AD35CFB75FB7D43
:103398000B2B02D0FB7D012B0DD1FB791846FEF7D4
:1033A800ABFA0346012B06D1FB7D0B2B01D10A2377
:1033B80000E00023FB75FA7DFB791146184600F002
:1033C800BBF83B7D002B60D0BB7C002B0DD0FA797D
:1033D800F97D374B9B781846364B019300900B4686
:1033E8003549386803F006F958E0FB7907F10C0114
:1033F8000A22184603F026F803461946386803F0EF
:103408003AF93868FCF716FF03461A463B68134436
:103418002A491A460B461B881380FB7D07F10C01CD
:103428000A22184603F00EF803461946386803F0D6
:1034380005F93868FCF7FEFE03461A463B68134454
:103448001E491A460B461B881380194B1B781846D1
:1034580007F10C030A22194602F0F4FF0346194645
:10346800386803F0EBF83868FCF7E4FE03461A46C0
:103478003B68134411491A460B461B8813800822DF
:103488000C49386803F0FFF808E0FA79FB7D0093EF
:1034980013460B4A0421386803F078F8FB7D184678
:1034A8001837BD4680BD00BF00000020F8BA0108EB
:1034B800901100209D11002090B70108A0B70108C5
:1034C800A4B7010890B583B000AF0023FB710023B7
:1034D800FB7125E0FA791346DB0013445B001033D7
:1034E800134A1344053312220021184602F0C6FF7E
:1034F800FC79FA791346DB0013445B0010330C4A5D
:1035080013445A1DFB7911461846FFF7E5FE03469A
:103518001A46084B234483F82120FB790133FB71B9
:10352800FB79052BD6D900BF0C37BD4690BD00BF2F
:10353800901100202811002080B582B000AF03460A
:103548000A46FB711346BB71BB790B2B5CD8BB7960
:103558000A2B23D1FB790133DBB21846FDF7A8FD0E
:10356800FB792B4A134400229A70FB79284A1344AA
:1035780000229A73274B1B785E2B07D8FB790133FF
:10358800DBB20121184600F0D5FA3DE0FB790133A2
:10359800DBB20021184600F0CDFA35E0BB79002BEC
:1035A8001CD1FB791B4A134400229A71FB79013321
:1035B800DBB20021184600F0BDFAFB790133DBB21B
:1035C8001846FDF79BFDFB79114A134400229A70B7
:1035D800FB790F4A134400229A7315E0FB790D4AD0
:1035E800134400229A71FB790133DBB2002118469B
:1035F80000F0A0FAFB79064A134400229A70FB797E
:10360800034A134401229A7300BF0837BD4680BDA0
:10361800AC0600209011002080B582B000AF0346B0
:10362800FB71FB799BB21946074801F08FFE00BF7A
:103638004021054801F0AAFE0346012BF8D1FB7989
:1036480018460837BD4680BD0048004080B485B0A4
:1036580000AF78600B46FB700023BB600023FB7350
:1036680026E0FB7B7A6813441B781B021A46BB686A
:103678005340BB600023BB7314E0BB6803F40043F2
:10368800002B09D0BB685B00BB60BB6883F4815327
:1036980083F00103BB6002E0BB685B00BB60BB7BDF
:1036A8000133BB73BB7B072BE7D9FB7B0133FB7370
:1036B800FA7BFB789A42D4D3BB6818461437BD46C8
:1036C80080BC70470FB480B485B000AF0023FB60A6
:1036D8000023FB7207F11C037B6026E07B681A1D40
:1036E8007A601B681B021A46FB685340FB60002384
:1036F800FB7214E0FB6803F40043002B09D0FB685D
:103708005B00FB60FB6883F4815383F00103FB607B
:1037180002E0FB685B00FB60FB7A0133FB72FB7A1B
:10372800072BE7D9BB69013BBB61BB69002BD5D12E
:10373800FB6818461437BD4680BC04B070470000CB
:1037480080B584B000AF78600B46FB700B4B00224D
:103758005A700023FB7309E0FB7B7A6813441B78DB
:103768001846FFF759FFFB7B0133FB73FA7BFB78A5
:103778009A42F1D300BF1037BD4680BD64110020C6
:1037880080B582B000AF0023FB711F4B1A791F4B25
:103798001A701D4B5A791D4B5A700023FB710CE0AF
:1037A800FB79FA79013218490A44D178174A134447
:1037B8000A469A70FB790133FB71FA79134B1B782F
:1037C800043B9A42ECDB114B1B78043BDBB21946F5
:1037D8000F48FFF73BFF0346BB80BA880B4B1B78AB
:1037E800033B09490B44DB781B0208490978023975
:1037F80005480144C9780B439A4201D100F00AF800
:1038080000BF0837BD4680BD641100207C11002030
:103818007E11002080B483B000AF0023FB71534BAE
:103828005B78832B5ED0832B04DC812B28D0822B02
:103838003DD095E08F2B04D0FF2B1DD08A2B74D060
:103848008EE04B4B01225A704A4B9A7B484B1A70B8
:103858000023FB710CE0FB79FA79033245490A44ED
:10386800D178434A13440A465A73FB790133FB71F2
:10387800FB79072BEFD973E03D4B01225A706FE0BB
:103888003B4B01225A700023FB710CE0FB79FA795B
:10389800033238490A44D178354A13440A465A73E0
:1038A800FB790133FB71FB79072BEFD958E0304BDB
:1038B80001225A702F4B9A7B2D4B1A700023FB71F3
:1038C8000CE0FB79FA7903322A490A44D178284A6C
:1038D80013440A465A73FB790133FB71FB79072BB2
:1038E800EFD93DE0224B01225A70224B9B7B1B02F1
:1038F8001AB2204BDB7B1BB213431BB29AB21C4B90
:103908009A800023FB710CE0FB79FA79033219499C
:103918000A44D178164A13440A465A73FB7901338C
:10392800FB71FB79072BEFD91AE0114B01225A7072
:10393800104B9A7B0E4B9A700023FB710CE0FB79BD
:10394800FA7903320B490A44D178094A13440A46E2
:103958005A73FB790133FB71FB79072BEFD900BF51
:1039680000BF0C37BD4680BC704700BF7C110020EB
:10397800901100206411002080B584B000AF034688
:10398800FB71A0233B7206237B72FB79BB727B7AA7
:103998001946BB7A1A460220FFF794FE0346FB81BC
:1039A800FB891B0A9BB2DBB2FB72FB89DBB23B7360
:1039B800A1237B737A7A07F1080311461846FFF7AB
:1039C800BFFE00BF1037BD4680BD000080B582B085
:1039D80000AF40F22551324801F003FD0346002BA9
:1039E8004CD040F225512E4801F055FD2C4801F0ED
:1039F800BEFC0346FB712B4B1B78002B3ED1294B99
:103A08005B781A46274B1344FA79DA70254B5B78B2
:103A18000133DAB2234B5A70224B5B78022B0AD05F
:103A2800142B0CD0012B11D1FB79B02B23D01D4BBB
:103A380000225A701FE01B4AFB7993701EE0194B55
:103A480000225A70184802F099FD17E0154B5A7871
:103A5800144B9B789A4210D1FB79B12B0DD1114BA5
:103A680001221A700F4B00225A70FFF789FE0D4B86
:103A780000221A7001E000BF00E000BF08210848DA
:103A880001F084FC0346002B06D00821044801F00D
:103A980098FC034801F06BFC00BF0837BD4680BDA9
:103AA8000048004064110020ACB7010880B582B01E
:103AB80000AF0121182001F00DF841F20703BB8087
:103AC8001023FB710323BB713B1D1946114800F0FD
:103AD80005FD3023BB801023FB710323BB713B1D05
:103AE80019460D4800F0FAFC0C4B01221A600C4BE9
:103AF80001221A600B4B01221A600B4B01221A603B
:103B08000A4B01221A600A4B01221A6000BF0837CB
:103B1800BD4680BD000C01400010014090012242CA
:103B2800940122428081214284812142888121425C
:103B3800B081214280B483B000AF03460A46FB71CE
:103B48001346BB71FB79013B052B27D801A252F81C
:103B580023F000BF753B01087D3B0108853B010848
:103B68008D3B0108953B01089D3B01080E4ABB7936
:103B7800136014E00D4ABB79136010E00C4ABB795E
:103B880013600CE00B4ABB79136008E00A4ABB7962
:103B9800136004E0094ABB79136000E000BF00BF6E
:103BA8000C37BD4680BC70479001224294012242E6
:103BB800808121428481214288812142B081214231
:103BC80080B586B000AF7860396000237B61002340
:103BD8003B610023FB737868FCF72CFB0346BB6052
:103BE800ABE07B697A6813441B789B08FB733B69DD
:103BF8005A1C3A611A463B681344574A1168FA7BC3
:103C08000A4412781A707B697A6813441B781B017E
:103C1800DBB203F03003FB737B695A1CBB689A4222
:103C280028DA7B6901337A6813441B781B09DBB2F5
:103C38005AB297F90F3013435BB2FB733B695A1CB6
:103C48003A611A463B681344434A1168FA7B0A44AE
:103C580012781A707B6901337A6813441B789B00C9
:103C6800DBB203F03C03FB737B699A1CBB689A4286
:103C78004BDA1CE03B695A1C3A611A463B6813440C
:103C8800354A1168FA7B0A4412781A703B695A1C43
:103C98003A611A463B6813443D221A703B695A1C24
:103CA8003A611A463B6813443D221A704AE07B6920
:103CB80002337A6813441B789B09DBB25AB297F92E
:103CC8000F3013435BB2FB733B695A1C3A611A46C7
:103CD8003B681344204A1168FA7B0A4412781A7028
:103CE8007B6902337A6813441B7803F03F03FB7344
:103CF8003B695A1C3A611A463B681344164A1168D4
:103D0800FA7B0A4412781A7014E03B695A1C3A612B
:103D18001A463B681344104A1168FA7B0A44127821
:103D28001A703B695A1C3A611A463B6813443D2293
:103D38001A7007E07B6903337B617A69BB689A4232
:103D4800FFF64FAF3B693A68134400221A7000230C
:103D580018461837BD4680BD0800002080B584B0DD
:103D680000AF78600B46FB70FB781946786802F064
:103D780074FCF860FB68002B02D14FF0FF3302E0BF
:103D8800FA687B68D31A18461037BD4680BD000014
:103D980080B588B000AF786039600023FB610023EC
:103DA800BB6107F1080300221A605A609A60DA6062
:103DB8007BE0464B1868FB697A6813441B78194600
:103DC800FFF7CCFF0346BB60404B1868FB69013323
:103DD8007A6813441B781946FFF7C0FF0346FB6057
:103DE800BB695A1CBA611A463B681344BA68920008
:103DF80051B2FA68121152B202F0030252B20A43E7
:103E080052B2D2B21A70FB6902337A6813441B7833
:103E18003D2B44D02D4B1868FB6902337A68134454
:103E28001B781946FFF79AFF03463B61BB695A1C8A
:103E3800BA611A463B681344FA68120151B23A69EA
:103E4800921052B202F00F0252B20A4352B2D2B2E8
:103E58001A70FB6903337A6813441B783D2B20D012
:103E68001A4B1868FB6903337A6813441B781946A0
:103E7800FFF774FF03467B61BB695A1CBA611A4697
:103E88003B6813443A69920151B27A6952B202F01E
:103E98003F0252B20A4352B2D2B21A7002E000BFD5
:103EA80000E000BFFB690433FB61FB697A681344D7
:103EB8001B78002B7FF47DAFBB693A68134400225E
:103EC8001A70002318462037BD4680BD0800002020
:103ED80080B582B000AF40F22551274801F081FA41
:103EE8000346002B23D0244801F041FA0346FB7116
:103EF800224BB3F80034C3F30E039BB21A4640F2C8
:103F0800FE339A4213DC1D4BB3F80034C3F30E039F
:103F180099B24B1CC3F30E0398B2184AB2F8003496
:103F280060F30E03A2F80034144AFB79535440F2AC
:103F38002441114801F055FA0346012B18D10F4AC4
:103F4800B2F8003443F40043A2F800340A4801F000
:103F58000EFA0346FB710A49084802F0CFFB0346F4
:103F6800002B14BF01230023DBB21A46054B1A703D
:103F780000BF0837BD4680BD004C00401412002029
:103F880004B801081616002080B489B000AFF860A4
:103F9800B9607A600023BB61BB687B617B680A2BD0
:103FA80004D07B6900221A70BB6846E0FB68002BCE
:103FB80009D17B695A1C7A6130221A707B69002208
:103FC8001A70BB6839E0FB68002B07DA7B695A1C5A
:103FD8007A612D221A70FB685B42FB6042F2107313
:103FE800FB6123E0FA68FB6992FBF3F33B613B69F1
:103FF800002B02D1BB69002B10D07B695A1C7A6157
:104008003A69D2B23032D2B21A703B69FA6902FB0D
:1040180003F3FA68D31AFB600123BB61FB69094A01
:1040280082FB03129210DB17D31AFB61FB69002B8A
:10403800D8DC7B6900221A70BB6818462437BD4655
:1040480080BC7047676666660EB480B58BB000AFFB
:10405800786007F13803FB608EE07B6B1B785C2B84
:104068001DD17B6B01337B637B6B1B786E2B09D077
:10407800722B0FD10D21786801F068F97B6B013341
:104088007B6371E00A21786801F060F97B6B01338A
:104098007B6369E07B6B01337B6300BF64E07B6B10
:1040A8001B78252B57D17B6B01337B637B6B1B788C
:1040B800642B21D0732B49D1FB681A1DFA601B6849
:1040C8007B6211E07B6A1B789BB21946786801F025
:1040D8003DF900BF8021786801F058F90346002BAC
:1040E800F8D07B6A01337B627B6A1B78002BE9D1AD
:1040F8007B6B01337B6337E0FB681A1DFA601B6832
:104108003B6207F110030A221946386AFFF73CFFA1
:1041180007F110037B6211E07B6A1B789BB219469A
:10412800786801F013F900BF8021786801F02EF952
:104138000346002BF8D07B6A01337B627B6A1B78CD
:10414800002BE9D17B6B01337B630DE07B6B013383
:104158007B6300BF08E07B6B5A1C7A631B789BB2B9
:104168001946786801F0F2F800BF8021786801F0FC
:104178000DF90346002BF8D07B6B1B78002B7FF4DE
:104188006CAF00BF2C37BD46BDE8804003B0704718
:1041980080B483B000AF7860054A7B6843F0BF63A2
:1041A80043F40033D36000BF0C37BD4680BC704772
:1041B80000ED00E080B487B000AF786000237B6139
:1041C80000233B610F23FB607B68DB78002B3AD030
:1041D800274BDB68DB431B0A03F007037B617B6922
:1041E800C3F104033B61FA687B6922FA03F3FB60BD
:1041F8007B685B781A463B6902FA03F37B617B684C
:104208009B781A46FB6813407A6913437B617B6984
:104218001B017B61174A7B681B787969C9B2134413
:104228000A4683F80023134A7B681B785B09DBB2D4
:1042380018467B681B7803F01F03012101FA03F37A
:1042480042F820300FE00B497B681B785B09DBB232
:1042580018467B681B7803F01F0301229A4000F17F
:10426800200341F8232000BF1C37BD4680BC70479F
:1042780000ED00E000E100E080B483B000AF7860BA
:10428800396007493B6823F0604323F07F037A686D
:1042980013438B6000BF0C37BD4680BC704700BF1E
:1042A80000ED00E080B483B000AF78607B68042B39
:1042B80006D1094A084B1B6843F00403136005E064
:1042C800054A054B1B6823F00403136000BF0C3735
:1042D800BD4680BC704700BF10E000E080B485B0E8
:1042E80000AF78600023FB60094B1B68FB60FB682C
:1042F80003F03803FB60FA687B681343FB60044AE9
:10430800FB68136000BF1437BD4680BC704700BF10
:104318000020024080B483B000AF7860084A084BA0
:104328001B6823F0100313600549054B1A687B6866
:1043380013430B6000BF0C37BD4680BC704700BFFD
:104348000020024080B400AF044B054A5A60034B7A
:10435800044A5A6000BFBD4680BC70470020024036
:1043680023016745AB89EFCD80B400AF044A044B05
:104378001B6943F08003136100BFBD4680BC7047D2
:104388000020024080B584B000AF78600423FB733E
:104398004FF4302000F080F80346FB73FB7B042BBE
:1043A8001BD1104A0F4B1B6943F0020313610D4ADE
:1043B8007B6853610B4A0B4B1B6943F04003136145
:1043C8004FF4302000F068F80346FB730549054BAD
:1043D8001A6941F6FD7313400B61FB7B18461037D1
:1043E800BD4680BD0020024080B584B000AF786033
:1043F8000B467B800423FB734FF4005000F04CF80D
:104408000346FB73FB7B042B15D10D4A0C4B1B6930
:1044180043F0010313617B687A881A804FF40050D7
:1044280000F03AF80346FB730549054B1A6941F653
:10443800FE7313400B61FB7B18461037BD4680BDE9
:104448000020024080B483B000AF0423FB71114BFD
:10445800DB6803F00103012B02D10123FB7113E098
:104468000C4BDB6803F00403002B02D00223FB7122
:104478000AE0084BDB6803F01003002B02D003238B
:10448800FB7101E00423FB71FB7918460C37BD462C
:1044980080BC70470020024080B584B000AF7860CF
:1044A8000423FB73FFF7CEFF0346FB7306E0FFF719
:1044B800C9FF0346FB737B68013B7B60FB7B012BD9
:1044C80002D17B68002BF2D17B68002B01D1052338
:1044D800FB73FB7B18461037BD4680BD80B489B09E
:1044E80000AF786039600023FB6100233B61002343
:1044F800BB610023FB6000237B610023BB603B683A
:10450800DB7803F00F03FB613B68DB7803F01003F3
:10451800002B05D03B689B781A46FB691343FB6167
:104528003B681B88DBB2002B44D07B681B687B612F
:104538000023BB6138E00122BB6902FA03F3FB6088
:104548003B681B881A46FB6813403B613A69FB6865
:104558009A4226D1BB699B00FB600F22FB6802FAD6
:1045680003F3BB60BB68DB437A6913407B61FA697C
:10457800FB6802FA03F37A6913437B613B68DB78D3
:10458800282B05D10122BB699A407B685A6108E053
:104598003B68DB78482B04D10122BB699A407B68D1
:1045A8001A61BB690133BB61BB69072BC3D97B683F
:1045B8007A691A603B681B88FF2B46D97B685B6861
:1045C8007B610023BB613AE0BB690833012202FA30
:1045D80003F3FB603B681B881A46FB6813403B618A
:1045E8003A69FB689A4227D1BB699B00FB600F229E
:1045F800FB6802FA03F3BB60BB68DB437A691340CC
:104608007B61FA69FB6802FA03F37A6913437B61F9
:104618003B68DB78282B05D1BB69083301229A4017
:104628007B685A613B68DB78482B05D1BB69083346
:1046380001229A407B681A61BB690133BB61BB697F
:10464800072BC1D97B687A695A6000BF2437BD46F9
:1046580080BC704780B485B000AF78600B467B8023
:104668000023FB737B689A687B881340002B02D079
:104678000123FB7301E00023FB73FB7B184614370F
:10468800BD4680BC704780B483B000AF78600B46ED
:104698007B807A887B681A6100BF0C37BD4680BC76
:1046A800704780B483B000AF78600B467B807A880F
:1046B8007B685A6100BF0C37BD4680BC704700005C
:1046C80080B487B000AF78600B46FB7000233B6175
:1046D8000023FB6000237B610023BB607B68002B09
:1046E80003DA2E4BDB697B6102E02C4B5B687B6154
:1046F8007B681B0C03F00F03BB607B689BB23B61BC
:104708007B6803F44013B3F5401F0AD17B6923F09B
:1047180070637B61214A214B5B6823F070635360AF
:1047280021E07B6803F48013002B0ED00322BB68C2
:1047380002FA03F3FB60FB68DB437A6913407B6191
:104748007B6943F070637B610DE07B685B0D1B0147
:104758003A6902FA03F3DB437A6913407B617B69A8
:1047680043F070637B61FB78002B08D07B685B0D9E
:104778001B013A6902FA03F37A6913437B617B6888
:10478800002B03DA054A7B69D36102E0034A7B699F
:10479800536000BF1C37BD4680BC70470000014015
:1047A80080B400AF134A134B1B6843F00103136036
:1047B8001049104B5A68104B13404B600D4A0D4B73
:1047C8001B6823F0847323F480331360094A094B70
:1047D8001B6823F480231360064A064B5B6823F4A6
:1047E800FE035360034B4FF41F029A6000BFBD469F
:1047F80080BC7047001002400000FFF880B483B00E
:1048080000AF0346FB71044AFB79136000BF0C3705
:10481800BD4680BC704700BF0000424280B485B0EE
:1048280000AF786039600023FB600A4B5B68FB606F
:10483800FB6823F47C13FB607A683B681343FA68CF
:104848001343FB60034AFB68536000BF1437BD463F
:1048580080BC70470010024080B483B000AF0346AC
:10486800FB71044AFB79136000BF0C37BD4680BC5E
:10487800704700BF6000424280B485B000AF7860E6
:104888000023FB60094B5B68FB60FB6823F00303B4
:10489800FB60FA687B681343FB60044AFB6853605B
:1048A80000BF1437BD4680BC704700BF00100240EF
:1048B80080B400AF044B5B68DBB203F00C03DBB2DF
:1048C8001846BD4680BC70470010024080B485B0D1
:1048D80000AF78600023FB60094B5B68FB60FB68F6
:1048E80023F0F003FB60FA687B681343FB60044A1B
:1048F800FB68536000BF1437BD4680BC704700BFDB
:104908000010024080B485B000AF78600023FB60DF
:10491800094B5B68FB60FB6823F4E063FB60FA68A3
:104928007B681343FB60044AFB68536000BF14377D
:10493800BD4680BC704700BF0010024080B485B0FF
:1049480000AF78600023FB60094B5B68FB60FB6885
:1049580023F46053FB607B68DB00FA681343FB6059
:10496800034AFB68536000BF1437BD4680BC7047DC
:104978000010024080B487B000AF786000237B61EC
:1049880000233B610023FB600023BB604C4B5B684A
:1049980003F00C037B617B69042B07D0082B09D03B
:1049A800002B33D17B68474A1A6033E07B68454A5D
:1049B8001A602FE0424B5B6803F470133B61404B75
:1049C8005B6803F48033FB603B699B0C02333B61FB
:1049D800FB68002B06D13B693B4A02FB03F27B686C
:1049E8001A6017E0364B5B6803F40033002B06D0DF
:1049F8003B69354A02FB03F27B681A600AE03B69AF
:104A0800304A02FB03F27B681A6003E07B682D4A98
:104A18001A6000BF2A4B5B6803F0F0037B617B6977
:104A28001B097B61294A7B6913441B78DBB2BB6095
:104A38007B681A68BB68DA407B685A60204B5B6801
:104A480003F4E0637B617B691B0A7B611F4A7B6916
:104A580013441B78DBB2BB607B685A68BB68DA40DA
:104A68007B689A60164B5B6803F460537B617B69D3
:104A7800DB0A7B61154A7B6913441B78DBB2BB6098
:104A88007B685A68BB68DA407B68DA600C4B5B6805
:104A980003F440437B617B699B0B7B610C4A7B6918
:104AA80013441B78DBB2BB607B68DA68BB68B2FB77
:104AB800F3F27B681A6100BF1C37BD4680BC7047A3
:104AC8000010024000127A0000093D000C0000208E
:104AD8001C00002080B483B000AF78600B46FB70E8
:104AE800FB78002B06D00949084B9A697B68134369
:104AF8008B6106E00549054B9A697B68DB431340E7
:104B08008B6100BF0C37BD4680BC70470010024067
:104B180080B483B000AF78600B46FB70FB78002B45
:104B280006D00949084BDA697B681343CB6106E074
:104B38000549054BDA697B68DB431340CB6100BF4D
:104B48000C37BD4680BC70470010024080B483B06B
:104B580000AF78600B46FB70FB78002B06D0094944
:104B6800084BDA687B681343CB6006E00549054BC0
:104B7800DA687B68DB431340CB6000BF0C37BD4667
:104B880080BC70470010024080B483B000AF7860EA
:104B98000B46FB70FB78002B06D00949084B1A69B5
:104BA8007B6813430B6106E00549054B1A697B686E
:104BB800DB4313400B6100BF0C37BD4680BC704718
:104BC8000010024080B487B000AF0346FB71002399
:104BD800FB6000237B610023FB74FB795B09DBB27C
:104BE800FB60FB68012B03D1124B1B687B6109E05A
:104BF800FB68022B03D10F4B1B6A7B6102E00D4B54
:104C08005B6A7B61FB7903F01F03FB607A69FB68D1
:104C180022FA03F303F00103002B02D00123FB74F3
:104C280001E00023FB74FB7C18461C37BD4680BCA2
:104C3800704700BF0010024080B582B000AF7860B6
:104C48007B68784A93420AD101214FF40060FFF74C
:104C58007DFF00214FF40060FFF778FFDEE07B68FE
:104C6800B3F1804F08D101210120FFF78DFF00210A
:104C78000120FFF789FFD1E07B686B4A934208D196
:104C880001210220FFF780FF00210220FFF77CFFAF
:104C9800C4E07B68654A934208D101210420FFF7EC
:104CA80073FF00210420FFF76FFFB7E07B68604ABD
:104CB800934208D101210820FFF766FF0021082050
:104CC800FFF762FFAAE07B685A4A934208D10121A4
:104CD8001020FFF759FF00211020FFF755FF9DE036
:104CE8007B68554A934208D101212020FFF74CFFE9
:104CF80000212020FFF748FF90E07B684F4A93424D
:104D08000AD101214FF40050FFF720FF00214FF492
:104D18000050FFF71BFF81E07B68494A93420AD1A4
:104D280001214FF40020FFF711FF00214FF400206C
:104D3800FFF70CFF72E07B68424A93420AD10121D7
:104D48004FF48010FFF702FF00214FF48010FFF7A7
:104D5800FDFE63E07B683C4A93420AD101214FF48F
:104D68000010FFF7F3FE00214FF40010FFF7EEFEEE
:104D780054E07B68354A934208D101214020FFF76F
:104D880003FF00214020FFF7FFFE47E07B68304A21
:104D9800934208D101218020FFF7F6FE00218020F0
:104DA800FFF7F2FE3AE07B682A4A93420AD10121D2
:104DB8004FF48070FFF7E8FE00214FF48070FFF792
:104DC800E3FE2BE07B68244A93420AD101214FF489
:104DD8008030FFF7BBFE00214FF48030FFF7B6FEAE
:104DE8001CE07B681D4A93420AD101214FF4003030
:104DF800FFF7ACFE00214FF40030FFF7A7FE0DE0EF
:104E08007B68174A934209D101214FF48020FFF7AC
:104E18009DFE00214FF48020FFF798FE00BF083761
:104E2800BD4680BD002C0140000400400008004041
:104E3800000C004000100040001400400034014005
:104E4800004C01400050014000540140001800404F
:104E5800001C004000200040004001400044014088
:104E68000048014080B485B000AF78603960002305
:104E7800FB817B681B88FB817B682E4A934213D099
:104E88007B682D4A93420FD07B68B3F1804F0BD0DB
:104E98007B682A4A934207D07B68294A934203D009
:104EA8007B68284A934208D1FB8923F07003FB8171
:104EB8003B685A88FB891343FB817B68224A9342EB
:104EC8000CD07B68214A934208D0FB8923F44073B5
:104ED800FB813B68DA88FB891343FB817B68FA898D
:104EE8001A803B689A887B689A853B681A887B6831
:104EF8001A857B680F4A93420FD07B680E4A93420B
:104F08000BD07B68124A934207D07B68114A9342C0
:104F180003D07B68104A934204D13B681B7A9AB24B
:104F28007B681A867B6801229A8200BF1437BD46C7
:104F380080BC7047002C0140003401400004004050
:104F480000080040000C0040001000400014004021
:104F580000400140004401400048014080B483B053
:104F680000AF78600B46FB70FB78002B08D07B689D
:104F78001B889BB243F001039AB27B681A8007E052
:104F88007B681B889BB223F001039AB27B681A8066
:104F980000BF0C37BD4680BC704780B483B000AFFB
:104FA80078600B467B8013467B707B78002B08D09B
:104FB8007B689B899AB27B8813439AB27B689A81F3
:104FC80009E07B689B899AB27B88DB439BB21340DC
:104FD8009AB27B689A8100BF0C37BD4680BC704787
:104FE80080B485B000AF78600B467B800023FB73EC
:104FF8000023BB8100237B817B681B8A9AB27B8854
:105008001340BB817B689B899AB27B8813407B8164
:10501800BB89002B05D07B89002B02D00123FB73B1
:1050280001E00023FB73FB7B18461437BD4680BCA8
:10503800704780B483B000AF78600B467B807B8874
:10504800DB439AB27B681A8200BF0C37BD4680BC2E
:105058007047000080B582B000AF78607B68264A50
:1050680093420AD101214FF48040FFF76FFD0021E0
:105078004FF48040FFF76AFD3AE07B681F4A93428D
:105088000AD101214FF40030FFF77EFD00214FF4D3
:105098000030FFF779FD2BE07B68194A93420AD16B
:1050A80001214FF48020FFF76FFD00214FF480208D
:1050B800FFF76AFD1CE07B68124A93420AD101217E
:1050C8004FF40020FFF760FD00214FF40020FFF7A8
:1050D8005BFD0DE07B680C4A934209D101214FF436
:1050E8008010FFF751FD00214FF48010FFF74CFDB1
:1050F80000BF0837BD4680BD00380140004400406D
:1051080000480040004C00400050004080B58CB082
:1051180000AF786039600023FB620023BB62002384
:105128007B6200233B620023FB617B68FB617B6839
:105138001B8A9BB2FB62FA6A4CF6FF731340FB6250
:105148003B68DB881A46FB6A1343FB62FB6A9AB228
:105158007B681A827B689B899BB2FB62FA6A4EF66F
:10516800F3131340FB623B689A883B681B8913431F
:105178009AB23B685B8913439BB21A46FB6A134396
:10518800FB62FB6A9AB27B689A817B689B8A9BB2B6
:10519800FB62FA6A4FF6FF431340FB623B689B8948
:1051A8001A46FB6A1343FB62FB6A9AB27B689A82CF
:1051B80007F108031846FFF7DDFBFB692E4A934207
:1051C80002D17B69BB6201E03B69BB627B689B895A
:1051D8009BB21BB2002B0CDABA6A13469B0013442D
:1051E8009A001A443B681B685B00B2FBF3F37B62CE
:1051F8000BE0BA6A13469B0013449A001A443B68B2
:105208001B689B00B2FBF3F37B627B6A1B4AA2FB21
:1052180003235B091B01FB62FB6A1B09642202FB77
:1052280003F37A6AD31A3B627B689B899BB21BB2F1
:10523800002B0CDA3B6ADB003233104AA2FB032353
:105248005B0903F00703FA6A1343FB620BE03B6A4E
:105258001B013233094AA2FB03235B0903F00F0346
:10526800FA6A1343FB62FB6A9AB27B681A8100BF31
:105278003037BD4680BD00BF003801401F85EB5167
:1052880080B483B000AF78600B46FB70FB78002BCE
:1052980008D07B689B899BB243F400539AB27B6821
:1052A8009A8107E07B689B899BB223F400539AB2EA
:1052B8007B689A8100BF0C37BD4680BC704780B4BC
:1052C80087B000AF78600B467B8013467B70002365
:1052D8003B610023FB600023BB6000237B617B688C
:1052E8007B617B88DBB25B09DBB23B617B8803F0C7
:1052F8001F03FB600122FB6802FA03F3BB603B69F2
:10530800012B03D17B690C337B6109E03B69022BDC
:1053180003D17B6910337B6102E07B6914337B61C5
:105328007B78002B06D07B697A691168BA680A43D2
:105338001A6006E07B697A691168BA68D2430A4044
:105348001A6000BF1C37BD4680BC704780B483B06C
:1053580000AF78600B467B807B88C3F308039AB262
:105368007B689A8000BF0C37BD4680BC704780B40C
:1053780083B000AF78607B689B889BB2C3F3080357
:105388009BB218460C37BD4680BC704780B485B0C8
:1053980000AF78600B467B800023FB737B681B881B
:1053A8009AB27B8813409BB2002B02D00123FB7377
:1053B80001E00023FB73FB7B18461437BD4680BC15
:1053C800704780B483B000AF78600B467B807B88E1
:1053D800DB439AB27B681A8000BF0C37BD4680BC9D
:1053E800704780B487B000AF78600B467B8000239D
:1053F800FB6000237B610023BB600023FB747B8878
:10540800DBB25B09DBB2BB607B8803F01F037B6107
:1054180001227B6902FA03F37B61BB68012B07D188
:105428007B689B899BB21A467B6913407B6111E0BC
:10543800BB68022B07D17B681B8A9BB21A467B6923
:1054480013407B6106E07B689B8A9BB21A467B69A6
:1054580013407B617B881B0A9BB2FB600122FB68BF
:1054680002FA03F3FB607B681B889BB21A46FB6851
:105478001340FB607B69002B05D0FB68002B02D032
:105488000123FB7401E00023FB74FB7C18461C37E6
:10549800BD4680BC704780B485B000AF78600B46CD
:1054A8007B800023FB810023BB817B881B0AFB8157
:1054B800FB89012202FA03F3BB81BB89DB439AB261
:1054C8007B681A8000BF1437BD4680BC7047000057
:1054D80080B582B000AF0346FB716FF00400FEF7A1
:1054E800E1FEFB79DB08DAB2084B1A70074B1B7830
:1054F8009BB21A465201D21A92001344DB009AB2A8
:10550800034B1A8000BF0837BD4680BD1716002020
:105518001816002080B485B000AF7860154A164B85
:105528001B7819467B6803FB01F35360114B00227B
:105538009A60104A0F4B1B6843F0010313600D4B30
:105548001B68FB60FB6803F00103002B04D0FB68B9
:1055580003F48033002BF2D0064A064B1B6823F075
:1055680001031360034B00229A6000BF1437BD4645
:1055780080BC704710E000E01716002080B485B0AA
:1055880000AF0346FB80154AFB881549098801FBD3
:1055980003F35360114B00229A60104A0F4B1B68AB
:1055A80043F0010313600D4B1B68FB60FB6803F0BD
:1055B8000103002B04D0FB6803F48033002BF2D0E6
:1055C800064A064B1B6823F001031360034B0022B5
:1055D8009A6000BF1437BD4680BC704710E000E0F9
:1055E8001816002090B597B004AF78607248FFF79E
:1055F80031FD01210420FFF76DFA01214FF48040AD
:10560800FFF768FA4FF40073A7F84030032387F8D0
:105618004230182387F8433007F14003194667489A
:10562800FEF75CFF4FF48063A7F84030042387F847
:10563800433007F1400319466048FEF74FFF7B6887
:105648003B630023BB860023FB8600233B870023A4
:10565800BB870C237B8707F1300319465648FFF7B1
:1056680055FD01215448FFF70BFE40215248FFF732
:10567800A8FE012240F225514F48FFF720FE2523BE
:1056880087F82C30022387F82D30032387F82E3033
:10569800012387F82F3007F12C031846FEF78AFDFF
:1056A800FCF702F94649474800F0F0FE00237B6406
:1056B80007F1080323220021184600F0DFFE4249C3
:1056C8003F4801F037F87864404A7B6C1446186804
:1056D80059689A68DB680FC43C493D48FAF7A0FD51
:1056E8000346002B02D13B4800F048FF3649002012
:1056F80001F020F8786407F10803796C184600F087
:10570800BAFF3149002001F015F87864786C00F090
:1057180059FE0346DAB22D4B83F830202A4900207F
:1057280001F008F87864786C00F04CFE0346DAB2B1
:10573800264B1A742449002000F0FCFF7864786C2A
:1057480000F040FE0346DAB2204B5A7407F1080312
:105758002149184600F0EEFF7864796C1F4800F084
:105768008AFF1D49002000F0E5FF78640522796C66
:105778001B4800F0AEFF052219491A4800F097FFB0
:105788000346002B02D1184800F0F8FE0F4B93F89F
:1057980030301A460D4B1B7C19460C4B5B7C029330
:1057A800019100920E4B0D4A0849104800F06EFE18
:1057B80000BF4C37BD4690BD00380140000801408D
:1057C800C82200205CB9010870B90108201A00201D
:1057D80074B9010888B9010898B90108321A00207B
:1057E800541A00209CB90108A4B90108B4B90108E9
:1057F80080B5A2B000AF0023C7F88430002387F833
:10580800833040F22551C748FFF7EBFD0346002BD4
:1058180000F0FD8140F22551C248FFF73CFEC14827
:10582800FFF7A5FD034687F88230BF4BB3F8003475
:10583800C3F30E039BB21A4640F2FE339A4214DCBD
:10584800B94BB3F80034C3F30E0399B24B1CC3F33E
:105858000E0398B2B44AB2F8003460F30E03A2F80B
:105868000034B14A97F88230535497F882305D2B50
:105878001BD1AE49AC4800F05DFF0246AC4B1A6044
:10588800AB4B1B681946AB4800F000FEA84B1B68E1
:1058980008221946A848FBF721FFA34AB2F80034AA
:1058A8006FF30E03A2F80034B1E197F88230242B8D
:1058B80015D1A2499C4800F03DFFC7F884004FF479
:1058C800FA7300229E49D7F88400FCF73DFC964AFB
:1058D800B2F800346FF30E03A2F8003497E197F89A
:1058E8008230232B15D197498F4800F023FFC7F842
:1058F8008400D7F8840000F0ADF903461846FEF797
:105908003BF8894AB2F800346FF30E03A2F800346A
:105918007DE197F88230252B6DD18B49824800F0C4
:1059280009FFC7F88400804AB2F800346FF30E0309
:10593800A2F80034D7F884301B786C2B0CD1D7F838
:10594800843001331B78303B87F8833097F88330F5
:105958001846FBF7ADFB5AE1D7F884301B78642B67
:105968000CD1D7F8843001331B78303B87F883306B
:1059780097F883301846FBF7C1FB48E1D7F8843025
:105988001B78612B0DD1D7F884300133C7F88430E8
:10599800D7F8840000F05EF903461846FBF74AFB87
:1059A80035E1D7F884301B78752B03D1674B01227A
:1059B8001A702CE1D7F884301B78632B03D1634B22
:1059C80000221A7023E1D7F884301B78722B40F03C
:1059D8001E815F495F4800F059FD5D4AB2F8423ABE
:1059E8006FF30E03A2F8423A4FF480620021584840
:1059F80000F044FD0BE197F88230402B40F007811E
:105A08005549494800F096FEC7F88400464AB2F85E
:105A180000346FF30E03A2F80034D7F884301B78F3
:105A2800742B12D1D7F8843001331B78303B87F8B8
:105A3800833097F883301946484800F027FD97F8D7
:105A480083301846FBF7F0FDE1E0D7F884301B7887
:105A5800262B18D1D7F884300133C7F88430D7F80B
:105A6800840000F0AFFC0346DBB2013BDBB23C49EB
:105A78001846FDF731FC2C4AB2F800346FF30E03D8
:105A8800A2F80034C3E0D7F884301B78652B02D124
:105A9800FCF78AFCBBE0D7F884301B78732B0FD156
:105AA800D7F884300133C7F884303B461946D7F815
:105AB8008400FEF785F83B461846FCF70FFCA6E085
:105AC800D7F884301B78662B13D1D7F8843001338C
