:020000040801F1
:1000000000C00020E1590108335A01083F5A010895
:10001000455A01084B5A0108515A010800000000D6
:10002000000000000000000000000000575A010816
:10003000635A0108000000006F5A01087B5A01084A
:10004000315A0108315A0108315A0108315A010860
:10005000315A0108315A0108315A0108315A010850
:10006000315A0108315A0108315A0108315A010840
:10007000315A0108315A0108315A0108315A010830
:10008000315A0108315A0108315A0108315A010820
:10009000315A0108315A0108315A0108315A010810
:1000A000315A0108315A0108315A0108315A010800
:1000B000315A0108315A010811120108315A010858
:1000C000315A0108315A0108315A0108315A0108E0
:1000D000315A01081D530108351B01083938010840
:1000E000315A0108315A0108315A0108315A0108C0
:1000F000315A0108315A0108315A0108315A0108B0
:10010000315A0108315A0108315A0108315A01089F
:100110003D3D0108315A0108315A0108315A0108A0
:10012000315A0108315A0108315A0108315A01087F
:1001300000000000000000000000000000000000BF
:1001400000000000000000000000000000000000AF
:10015000000000000000000000000000000000009F
:10016000000000000000000000000000000000008F
:10017000000000000000000000000000000000007F
:10018000000000000000000000000000000000006F
:10019000000000000000000000000000000000005F
:1001A000000000000000000000000000000000004F
:1001B000000000000000000000000000000000003F
:1001C000000000000000000000000000000000002F
:1001D000000000000000000000000000000000001F
:0401E0005FF8E0F1F3
:1001E80010B5054C237833B9044B13B10448AFF369
:1001F80000800123237010BD90060020000000003D
:10020800BCAD010808B5034B1BB103490348AFF364
:10021800008008BD0000000094060020BCAD010865
:1002280010F8012B11F8013B012A28BF9A42F7D098
:10023800D01A7047034613F8012B002AFBD1181A6D
:100248000138704781F0004102E000BF83F00043AD
:1002580030B54FEA41044FEA430594EA050F08BF59
:1002680090EA020F1FBF54EA000C55EA020C7FEA1D
:10027800645C7FEA655C00F0E2804FEA5454D4EB9A
:100288005555B8BF6D420CDD2C4480EA020281EA64
:10029800030382EA000083EA010180EA020281EA9C
:1002A8000303362D88BF30BD11F0004F4FEA0131EE
:1002B8004FF4801C4CEA113102D0404261EB4101FD
:1002C80013F0004F4FEA03334CEA133302D0524283
:1002D80063EB430394EA050F00F0A780A4F101043F
:1002E800D5F1200E0DDB02FA0EFC22FA05F2801879
:1002F80041F1000103FA0EF2801843FA05F359415F
:100308000EE0A5F120050EF1200E012A03FA0EFCDD
:1003180028BF4CF0020C43FA05F3C01851EBE37107
:1003280001F0004507D54FF0000EDCF1000C7EEB24
:1003380000006EEB0101B1F5801F1BD3B1F5001F62
:100348000CD349085FEA30004FEA3C0C04F1010481
:100358004FEA445212F5800F80F09A80BCF1004FAA
:1003680008BF5FEA500C50F1000041EB045141EA2C
:10037800050130BD5FEA4C0C404141EB010111F42D
:10038800801FA4F10104E9D191F0000F04BF0146D8
:100398000020B1FA81F308BF2033A3F10B03B3F1B6
:1003A80020020CDA0C3208DD02F1140CC2F10C0246
:1003B80001FA0CF021FA02F10CE002F11402D8BFA4
:1003C800C2F1200C01FA02F120FA0CFCDCBF41EA70
:1003D8000C019040E41AA2BF01EB0451294330BD3F
:1003E8006FEA04041F3C1CDA0C340EDC04F114041C
:1003F800C4F1200220FA04F001FA02F340EA0300F3
:1004080021FA04F345EA030130BDC4F10C04C4F138
:10041800200220FA02F001FA04F340EA0300294618
:1004280030BD21FA04F0294630BD94F0000F83F462
:10043800801306BF81F480110134013D4EE77FEA45
:10044800645C18BF7FEA655C29D094EA050F08BF91
:1004580090EA020F05D054EA000C04BF1946104672
:1004680030BD91EA030F1EBF0021002030BD5FEAB6
:10047800545C05D14000494128BF41F0004130BDDE
:1004880014F580043CBF01F5801130BD01F0004532
:1004980045F0FE4141F470014FF0000030BD7FEAA5
:1004A800645C1ABF194610467FEA655C1CBF0B46A0
:1004B800024650EA013406BF52EA033591EA030FB7
:1004C80041F4002130BD00BF90F0000F04BF0021AF
:1004D800704730B54FF4806404F132044FF00005E2
:1004E8004FF0000150E700BF90F0000F04BF00215B
:1004F800704730B54FF4806404F1320410F00045C1
:1005080048BF40424FF000013EE700BF42004FEABB
:10051800E2014FEA31014FEA02701FBF12F07F4338
:1005280093F07F4F81F06051704792F0000F14BF35
:1005380093F07F4F704730B54FF4607401F0004579
:1005480021F0004120E700BF50EA010208BF7047D0
:1005580030B54FF000050AE050EA010208BF7047C5
:1005680030B511F0004502D5404261EB41014FF42E
:10057800806404F132045FEA915C3FF4DCAE4FF032
:1005880003025FEADC0C18BF03325FEADC0C18BF19
:10059800033202EBDC02C2F1200300FA03FC20FA6A
:1005A80002F001FA03FE40EA0E0021FA02F11444B7
:1005B800C1E600BF70B54FF0FF0C4CF4E06C1CEACC
:1005C80011541DBF1CEA135594EA0C0F95EA0C0F41
:1005D80000F0DEF82C4481EA030621EA4C5123EAB4
:1005E8004C5350EA013518BF52EA033541F48011E3
:1005F80043F4801338D0A0FB02CE4FF00005E1FB96
:1006080002E506F00042E0FB03E54FF00006E1FBDF
:1006180003569CF0000F18BF4EF0010EA4F1FF0422
:10062800B6F5007F64F5407404D25FEA4E0E6D4162
:1006380046EB060642EAC62141EA55514FEAC52073
:1006480040EA5E504FEACE2EB4F1FD0C88BFBCF5EF
:10065800E06F1ED8BEF1004F08BF5FEA500E50F1A0
:10066800000041EB045170BD06F0004646EA010166
:1006780040EA020081EA0301B4EB5C04C2BFD4EB98
:100688000C0541EA045170BD41F480114FF0000E91
:10069800013C00F3AB8014F1360FDEBF002001F0FF
:1006A800004170BDC4F10004203C35DA0C341BDC79
:1006B80004F11404C4F1200500FA05F320FA04F04B
:1006C80001FA05F240EA020001F0004221F000417F
:1006D80010EBD37021FA04F642EB06015EEA430EF2
:1006E80008BF20EAD37070BDC4F10C04C4F1200522
:1006F80000FA04F320FA05F001FA04F240EA0200D5
:1007080001F0004110EBD37041F100015EEA430EA5
:1007180008BF20EAD37070BDC4F1200500FA05F2C5
:100728004EEA020E20FA04F301FA05F243EA020344
:1007380021FA04F001F0004121FA04F220EA020053
:1007480000EBD3705EEA430E08BF20EAD37070BD99
:1007580094F0000F0FD101F00046400041EB010179
:1007680011F4801F08BF013CF7D041EA060195F05B
:10077800000F18BF704703F00046520043EB030315
:1007880013F4801F08BF013DF7D043EA0603704702
:1007980094EA0C0F0CEA135518BF95EA0C0F0CD00D
:1007A80050EA410618BF52EA4306D1D181EA030153
:1007B80001F000414FF0000070BD50EA410606BF4D
:1007C8001046194652EA430619D094EA0C0F02D192
:1007D80050EA013613D195EA0C0F05D152EA0336D7
:1007E8001CBF104619460AD181EA030101F00041F5
:1007F80041F0FE4141F470014FF0000070BD41F03E
:10080800FE4141F4780170BD70B54FF0FF0C4CF417
:10081800E06C1CEA11541DBF1CEA135594EA0C0F36
:1008280095EA0C0F00F0A7F8A4EB050481EA030E83
:1008380052EA03354FEA013100F088804FEA03336A
:100848004FF0805545EA131343EA12634FEA022238
:1008580045EA111545EA10654FEA00260EF00041F9
:100868009D4208BF964244F1FD0404F5407402D24B
:100878005B084FEA3202B61A65EB03055B084FEADC
:1008880032024FF480104FF4002CB6EB020E75EBD9
:10089800030E22BFB61A754640EA0C005B084FEA01
:1008A8003202B6EB020E75EB030E22BFB61A75467E
:1008B80040EA5C005B084FEA3202B6EB020E75EBC9
:1008C800030E22BFB61A754640EA9C005B084FEA41
:1008D8003202B6EB020E75EB030E22BFB61A75464E
:1008E80040EADC0055EA060E18D04FEA051545EA3D
:1008F80016754FEA06164FEAC30343EA52734FEAE6
:10090800C2025FEA1C1CC0D111F4801F0BD141EA5E
:1009180000014FF000004FF0004CB6E711F4801FC3
:1009280004BF01430020B4F1FD0C88BFBCF5E06FA3
:100938003FF6AFAEB5EB030C04BFB6EB020C5FEAB3
:10094800500C50F1000041EB045170BD0EF0004E08
:100958004EEA113114EB5C04C2BFD4EB0C0541EA3A
:10096800045170BD41F480114FF0000E013C90E637
:1009780045EA060E8DE60CEA135594EA0C0F08BFFB
:1009880095EA0C0F3FF43BAF94EA0C0F0AD150EAFA
:1009980001347FF434AF95EA0C0F7FF425AF10468D
:1009A80019462CE795EA0C0F06D152EA03353FF4B5
:1009B800FDAE1046194622E750EA410618BF52EA32
:1009C80043067FF4C5AE50EA41047FF40DAF52EA06
:1009D80043057FF4EBAE12E74FF0FF3C06E000BFA3
:1009E8004FF0010C02E000BF4FF0010C4DF804CDB0
:1009F8004FEA410C7FEA6C5C4FEA430C18BF7FEA70
:100A08006C5C1BD001B050EA410C0CBF52EA430C9D
:100A180091EA030F02BF90EA020F0020704710F11D
:100A2800000F91EA030F58BF994208BF90422CBFAC
:100A3800D8176FEAE37040F0010070474FEA410CA5
:100A48007FEA6C5C02D150EA013C07D14FEA430CC3
:100A58007FEA6C5CD6D152EA033CD3D05DF8040B34
:100A6800704700BF8446104662468C461946634666
:100A780000E000BF01B5FFF7B7FF002848BF10F13D
:100A8800000F01BD4DF808EDFFF7F4FF0CBF012082
:100A980000205DF808FB00BF4DF808EDFFF7EAFFFE
:100AA80034BF012000205DF808FB00BF4DF808EDB9
:100AB800FFF7E0FF94BF012000205DF808FB00BFAE
:100AC8004DF808EDFFF7CEFF94BF012000205DF838
:100AD80008FB00BF4DF808EDFFF7C4FF34BF012045
:100AE80000205DF808FB00BF4FEA410C7FEA6C5C10
:100AF80002D150EA013C0AD14FEA430C7FEA6C5C10
:100B080002D152EA033C02D14FF0000070474FF087
:100B1800010070474FEA410212F5001215D211D5B3
:100B28006FF47873B3EB625212D94FEAC12343F0E2
:100B3800004343EA505311F0004F23FA02F018BF64
:100B4800404270474FF00000704750EA013005D12D
:100B580011F0004008BF6FF0004070474FF00000F0
:100B6800704700BF53B94AB9002908BF00281CBF05
:100B78004FF0FF314FF0FF3000F07AB9ADF1080CBB
:100B88006DE904CE00F006F8DDF804E0DDE90223A3
:100B980004B070472DE9F0478C460E460446089D80
:100BA800002B50D18A4217466CD9B2FA82FEBEF1A8
:100BB800000F0BD0CEF1200C01FA0EF620FA0CFC37
:100BC80002FA0EF74CEA060C00FA0EF43A0CBCFBDB
:100BD800F2F9BBB202FB19CC09FB03FA4FEA14483D
:100BE80048EA0C46B2450AD9F61909F1FF3180F0F6
:100BF8002581B24540F22281A9F102093E44A6EBC3
:100C08000A06B6FBF2F002FB106600FB03F3A4B27F
:100C180044EA0644A34209D9E41900F1FF3280F0FE
:100C28000B81A34240F2088102383C440021E41AB7
:100C380040EA0940002D62D0002324FA0EF42C600B
:100C48006B60BDE8F0878B4207D9002D55D0002195
:100C580085E841000846BDE8F087B3FA83F100292A
:100C680040F08F80B34202D3824200F2FC80841AA3
:100C780066EB03060120B446002D40D085E810102D
:100C8800BDE8F08712B90127B7FBF2F7B7FA87FE7C
:100C9800BEF1000F35D10121F61B4FEA174C1FFAA0
:100CA80087F8B6FBFCF20CFB126608FB02F0230C7B
:100CB80043EA0646B04207D9F61902F1FF3302D2D9
:100CC800B04200F2D2801A46361AB6FBFCF00CFB92
:100CD800106608FB00F8A3B243EA0644A04507D90A
:100CE800E41900F1FF3302D2A04500F2B98018469A
:100CF800A4EB080440EA02409CE729462846BDE8E0
:100D0800F08707FA0EF7CEF1200326FA03F24FEA2E
:100D1800174CB2FBFCF11FFA87F80CFB112206FAFC
:100D28000EF620FA03F301FB08F933431E0C46EADA
:100D38000246B14500FA0EF409D9F61901F1FF325D
:100D480080F08C80B14540F2898002393E44A6EBA0
:100D58000906B6FBFCF00CFB106200FB08F99EB21A
:100D680046EA0246B14507D9F61900F1FF3371D2B8
:100D7800B1456FD902383E44A6EB090640EA014165
:100D88008FE7C1F1200722FA07F88B4048EA0303EE
:100D980026FA07F44FEA134EB4FBFEF91FFA83FC58
:100DA8000EFB19448E4020FA07F809FB0CFA48EAB2
:100DB80006084FEA184646EA0444A24502FA01F238
:100DC80000FA01F608D9E41809F1FF3044D2A24527
:100DD80042D9A9F102091C44A4EB0A04B4FBFEF0B1
:100DE8000EFB104400FB0CFC1FFA88F848EA044488
:100DF800A44507D9E41800F1FF3E29D2A44527D914
:100E080002381C4440EA0940A0FB0289A4EB0C0C00
:100E1800CC45C246CE4615D312D055B1B6EB0A031F
:100E28006CEB0E0606FA07F7CB401F43CE402F6047
:100E38006E600021BDE8F0871046F7E68946DEE6D9
:100E48004645EAD2B8EB020A69EB030E0138E4E73B
:100E58007046D7E718468FE78146BDE7114676E723
:100E680002383C4444E7084606E7023A3E442BE78A
:100E7800704700BF80B582B000AF0121042003F0A5
:100E880021FC4FF48073BB801023FB710323BB71DB
:100E98003B1D19460F4803F003FA4FF40063BB806B
:100EA8001023FB710323BB713B1D1946094803F04E
:100EB800F7F94FF48053BB804823FB713B1D19465B
:100EC800044803F0EDF900F007F800BF0837BD4605
:100ED80080BD00BF0008014080B582B000AF00238C
:100EE800BB80324B01221A60012004F0AFF82F4B6F
:100EF80000221A60012004F0A9F82C4B01221A6084
:100F0800012004F0A3F82A4B01221A60012004F002
:100F18009DF84FF48051274803F07EFA0346002BD2
:100F280002D1BB880133BB800023FB711CE0204B3E
:100F380000221A60012004F089F81D4B01221A6072
:100F4800012004F083F8BB885B00BB804FF480511C
:100F5800184803F061FA0346002B02D1BB8801331D
:100F6800BB80FB790133FB71FB790E2BDFD90F4B6B
:100F780001221A600E4B01221A60BB8823F0C003BD
:100F88009B049B0CBB800C4B1B88BA889A4207D0E9
:100F9800BB881946094804F03BFF074ABB88138001
:100FA800BB8818460837BD4680BD00BFAC0121424A
:100FB800A00121420008014002000020D8AD01082C
:100FC80080B582B000AF0121142003F07BFB12230F
:100FD800BB801023FB710323BB713B1D19460F48CF
:100FE80003F05EF90823BB801023FB710323BB7158
:100FF8003B1D19460A4803F053F90A4B00221A60B0
:10100800094B00221A60094B00221A60084B012282
:101018001A7000BF0837BD4680BD00BF00080140F8
:1010280000100140840121428C012242900121429A
:10103800AC06002080B584B000AF0346FB710023E6
:10104800FB731CE097F90730002B03DA154B0122DC
:101058001A6002E0134B00221A60134B00221A6038
:10106800012003F0F3FF104B01221A60012003F066
:10107800EDFFFB795B00FB71FB7B0133FB73FB7BB3
:10108800072BDFD9094B00221A60012003F0DEFF8D
:10109800064B01221A60012003F0D8FF00BF103769
:1010A800BD4680BD90012142840121428C0122422B
:1010B80080B582B000AF0346FB710F4B1B78002B45
:1010C80015D00D4B5B785AB2FB79C3F107030121A8
:1010D80001FA03F35BB2DB435BB213405BB2DAB2F3
:1010E800054B5A70044B5B781846FFF7A3FF00BF07
:1010F8000837BD4680BD00BFAC06002080B582B071
:1011080000AF0346FB710E4B1B78002B13D00C4B22
:101118005B785AB2FB79C3F10703012101FA03F3A3
:101128005BB213435BB2DAB2054B5A70044B5B787F
:101138001846FFF77FFF00BF0837BD4680BD00BFD8
:10114800AC06002080B582B000AF0346FB710E4BA1
:101158001B78002B13D00C4B5B785AB2FB79C3F188
:101168000703012101FA03F35BB253405BB2DAB221
:10117800054B5A70044B5B781846FFF75BFF00BFBE
:101188000837BD4680BD00BFAC06002080B586B0DC
:1011980000AF03460A46FB801346BB80194803F09C
:1011A80009FB0121042003F0ABFAFB883B82BB88D2
:1011B800BB8100237B820023FB8107F10C031946C6
:1011C800104803F00DFC012201210E4803F0A3FC96
:1011D80001210C4803F0EBFC1E233B7204237B72B5
:1011E8000423BB720123FB7207F10803184602F0BF
:1011F80013FF0121034803F06FFC00BF1837BD46F9
:1012080080BD00BF0008004080B500AF0121324812
:1012180003F0A4FC0346002B00F0AA8101212E480C
:1012280003F0C5FC2D4B93F8403ADBB2002B18D0E5
:101238002B4B1B889BB201339AB2294B1A80284B3F
:101248001B889BB2B3F5FA6F0BD1254B00221A808D
:10125800244B254A1188927819809A70234B0122D1
:101268001A701E4B93F83F3ADBB2002B17D01B4B7A
:10127800002283F83F2A1E4B00221A60174B0022D7
:1012880083F83E2A174B184A1188927819809A7069
:10129800164B01221A70114B012283F8402A0F4B7A
:1012A80093F83E3ADBB2002B26D0124B1B78DBB208
:1012B8000133DAB20F4B1A700E4B1B78DBB2322BAC
:1012C8001DD10C4B00221A70094A094B1B6883F088
:1012D8000103136013E000BF00080040D806002097
:1012E800CE06002049110020ECAD01081C11002099
:1012F800BC012142C60600209E4B00221A609E4B6C
:1013080093F82930002B30D09C4B1B6801339B4A43
:101318001360994B93F827301A46642303FB02F3B2
:101328001A46964B1B689A421FD1944B00221A60AA
:1013380001F04EF9924B1B78DBB20133DAB2904BD5
:101348001A708D4B93F828208D4B1B78DBB29A428C
:101358000BD18B4B00221A708A4B8B4A11889278DA
:1013680019809A70894B01221A70894B9B7B002B3C
:101378000FD0874B1B7D0133DAB2854B1A75844B2E
:101388001B7D142B05D1824B00221A750120FFF713
:10139800D9FE7F4BDB7B002B0FD07D4B5B7D013370
:1013A800DAB27B4B5A757A4B5B7D142B05D1784B9F
:1013B80000225A750220FFF7C5FE754B1B7C002BD7
:1013C8000FD0734B9B7D0133DAB2714B9A75704B1A
:1013D8009B7D142B05D16E4B00229A750320FFF7D5
:1013E800B1FE6B4B5B7C002B0FD0694BDB7D01336F
:1013F800DAB2674BDA75664BDB7D142B05D1644B8B
:101408000022DA750420FFF79DFE614B9B7C002BC0
:101418000FD05F4B1B7E0133DAB25D4B1A765C4B03
:101428001B7E142B05D15A4B00221A760520FFF794
:1014380089FE574BDB7C002B0FD0554B5B7E01336D
:10144800DAB2534B5A76524B5B7E142B05D1504B74
:1014580000225A760620FFF775FE4D4B9B78002B2D
:101468000FD04B4B1B7A0133DAB2494B1A72484BF7
:101478001B7A502B05D1464B00221A720120FFF728
:1014880061FE434BDB78002B0FD0414B5B7A013375
:10149800DAB23F4B5A723E4B5B7A502B05D13C4B2C
:1014A80000225A720220FFF74DFE394B1B79002BA0
:1014B8000FD0374B9B7A0133DAB2354B9A72344BE3
:1014C8009B7A502B05D1324B00229A720320FFF7EA
:1014D80039FE2F4B5B79002B0FD02D4BDB7A013374
:1014E800DAB22B4BDA722A4BDB7A502B05D1284B18
:1014F8000022DA720420FFF725FE254B9B79002B8A
:101508000FD0234B1B7B0133DAB2214B1A73204BCC
:101518001B7B502B05D11E4B00221A730520FFF7A9
:1015280011FE1B4BDB79002B0FD0194B5B7B013372
:10153800DAB2174B5A73164B5B7B502B05D1144B01
:1015480000225A730620FFF7FDFD124B1B78DBB211
:101558000133DAB20F4B1A700E4B1B78DBB20A2B31
:1015680006D10C4B00221A70084B012283F8312057
:1015780000BF80BDBC0121420C1A0020C806002013
:10158800CC06002049110020F0AD01081C110020F4
:10159800AC060020D006002080B582B000AF012143
:1015A800042003F08FF8E023BB801023FB71032392
:1015B800BB713B1D1946054802F072FEE021034845
:1015C80002F051FF00BF0837BD4680BD000801404A
:1015D80080B584B000AF0346FB71114B01221A603D
:1015E800642003F033FD0E4B00221A60642003F0E0
:1015F8002DFD0023FB730BE00A4B01221A606420C7
:1016080003F024FD074B00221A60FB7B0133FB73B8
:10161800FA7BFB799A42EFD300BF1037BD4680BDF5
:10162800980121429401214280B483B000AF7860D0
:101638007B681B889BB218460C37BD4680BC704738
:1016480080B586B000AFF860B9601346FB80002310
:10165800FB820EE0FB8A5B00BA6813441B881946BC
:10166800F86802F0A3FDFB680233FB60FB8A0133D4
:10167800FB82FA8AFB889A42ECD300BF1837BD4632
:1016880080BD000080B588B000AFF860B96013462F
:10169800FB80FB68B3F1006FC0F09380FB684B4A96
:1016A800934200F28E8002F02FFDFB6803F178432D
:1016B8003B613B69DB0AFB613B69C3F30A035B08D7
:1016C8007B837B8BC3F580633B83FA883B8B9A4291
:1016D80001D8FB883B83FB6903F58033DB024FF4B9
:1016E80080623B49184600F075F80023FB820CE045
:1016F8007A8BFB8A1344364A32F813304FF6FF725E
:10170800934207D1FB8A0133FB82FA8A3B8B9A42C8
:10171800EED300E000BFFA8A3B8B9A4226D2FB69DF
:1017280003F58033DB02184602F00EFD0023FB822E
:101738000DE0FA8A7B8B1344FA8A5200B9680A448E
:101748001188234A22F81310FB8A0133FB82FA8A94
:101758003B8B9A42EDD3FB6903F58033DB024FF4F0
:1017680080621B491846FFF76BFF05E03B8B1A4662
:10177800B968F868FFF764FFFA883B8B9A421CD077
:10178800FB690133FB6100237B833B8B5B00BA68F9
:101798001344BB603B8BFA681344FB60FA883B8BAD
:1017A800D31AFB80FB88B3F5806F03D94FF48063AD
:1017B8003B8390E7FB883B838DE700BF02F0B6FCD4
:1017C80000E000BF2037BD4680BD00BFFFFF030813
:1017D800881A002090B587B000AFF860B96013464A
:1017E800FB800023FB820EE0FB8A5B00BA68D418FA
:1017F800F868FFF719FF03462380FB680233FB6094
:10180800FB8A0133FB82FA8AFB889A42ECD300BF39
:101818001C37BD4690BD000080B500AF08220349C3
:101828000348FFF7D7FF00BF80BD00BF9C22002000
:1018380004F8030880B500AF142203490348FFF7F2
:10184800C9FF00BF80BD00BF8822002020F8030820
:1018580080B500AF322203490348FFF7BBFF00BF42
:1018680080BD00BFA422002040F8030880B582B0E4
:1018780000AF0121042002F025FF4FF40043BB8094
:101888001023FB710323BB713B1D1946094802F065
:1018980007FD0121012002F015FF0121064802F091
:1018A800F1FD4FF40041034802F0DDFD00BF0837A9
:1018B800BD4680BD000801400002300080B400AF82
:1018C800BFF34F8F0549054BDB6803F4E062044B17
:1018D8001343CB60BFF34F8FFEE700BF00ED00E07E
:1018E8000400FA0580B588B000AF7860274803F097
:1018F8006FF901214FF4003002F002FF01210420AA
:1019080002F0E0FE0423BB830323BB771823FB7795
:1019180007F11C0319461E4802F0C2FC0823BB83CA
:101928000423FB7707F11C031946194802F0B8FC99
:1019380026233B7201237B720223BB720123FB72B5
:1019480007F10803184602F067FB7B68FB60002379
:101958003B8200237B820023BB8200233B830C2332
:10196800FB8207F10C031946084803F08DF90122A0
:1019780040F22551054803F060FA0121034803F0BD
:101988003DFA00BF2037BD4680BD00BF004400407F
:101998000008014080B584B000AF7860544B012244
:1019A80083F83E2A7868FFF79DFF0121102002F096
:1019B80089FE03233B811023FB720323BB7207F1CB
:1019C800080319464B4802F06BFC0221494802F013
:1019D8003CFD4FF47A7003F063FB4FF47A7003F028
:1019E8005FFB4FF47A7003F05BFB4FF47A7003F0FF
:1019F80057FB02213F4802F036FD642003F050FBFC
:101A080000F022FC4FF4FA7300223B493B4800F0F7
:101A1800E7FA4FF4FA7300223749394800F0E0FA40
:101A280000F04CFB0346002BCFD000F021FC3549D9
:101A3800354800F075FB354800F08EFD4FF4FA701C
:101A480003F02EFB2A4BB3F8423AC3F3C033DBB2A0
:101A5800002BF0D0264AB2F8423A6FF3CF33A2F8FF
:101A6800423A2B492B4800F07FFA214BD3F8083A29
:101A780002222949184604F0A9F90346002BDAD1B5
:101A8800264BFB602649254804F0EEFAF860F86812
:101A980004F05AF90346DAB2224B83F8272020498A
:101AA800002004F0E1FAF860F86804F04DF9034604
:101AB800DAB21C4B83F828201A4B93F827301946C2
:101AC800184B93F828301A46174804F0A1F900BFBC
:101AD800074B012283F83F2A124B012283F8292061
:101AE800034B012283F83D2A00BF1037BD4680BD55
:101AF800D806002000100140F4AD0108F8AD010837
:101B080004AE010810AE010818AE01082CAE010899
:101B180030AE0108D80A002034AE0108DC0E0020DF
:101B280038AE01080C1A00203CAE010880B584B01C
:101B380000AF40F22551BE4803F011FA0346002BCE
:101B480000F0EC8140F22551B94803F062FAB84838
:101B580003F0CBF90346FB72B64BB3F8423AC3F332
:101B68000E039BB2B3F5806F0FDBB34804F0C8F9DE
:101B78004FF480620021AF4804F042F9AD4AB2F850
:101B8800423A6FF30E03A2F8423AAA4BB3F8423A2C
:101B9800C3F3C033DBB2002B13D1A64BB3F8423AE0
:101BA800C3F30E0399B24B1CC3F30E0398B2A14AB8
:101BB800B2F8423A60F30E03A2F8423A9D4AFB7A21
:101BC8005354FB7A5D2B3FD15B219A4804F007FA06
:101BD8000346002B38D0974BFB6002E0FB680133CB
:101BE800FB60FB681B785B2BF8D102E0FB680133D4
:101BF800FB60FB681B785B2BF8D09049F86804F011
:101C080033FA02468B4BC3F800288A4BD3F80038C6
:101C18008B49184601F0EEFF89498A4804F0F8F824
:101C28004FF480620021834804F0EAF8814AB2F850
:101C3800423A6FF30E03A2F8423A7E4AB2F8423AA9
:101C480043F40043A2F8423A7A4B93F83D3ADBB2A8
:101C5800002B00F06381774BB3F8423AC3F3C033EB
:101C6800DBB2002B00F05A81724AB2F8423A6FF3A5
:101C7800CF33A2F8423A7449714800F075F96D4BB8
:101C8800D3F8083A02227149184604F09FF803462F
:101C9800002B0CD16E4B002283F83020654B0022BC
:101CA80083F8402A6A4B012283F82F2036E1614BE2
:101CB800D3F8083A02226749184604F087F8034621
:101CC800002B04D1624B002283F8302026E1594BC7
:101CD800D3F8083A02226049184604F077F8034618
:101CE800002B04D15A4B002283F8302016E1514BC7
:101CF800D3F8083A02225949184604F067F803460F
:101D0800002B23D15649574804F0AEF9786078681B
:101D180004F01AF802464E4B9A605149002004F02C
:101D2800A3F97860786804F00FF80346DAB2484BF4
:101D380083F820204C4B4D4A126811461980023313
:101D4800120C1A70424B01229A70E7E0394BD3F813
:101D5800083A02224649184604F038F80346002B90
:101D68000AD13B4B93F82030DBB2002B00F0D68031
:101D78000220FFF72DFCD1E02E4BD3F8083A0222BF
:101D88003C49184604F022F80346002B0AD1304B90
:101D980093F82030DBB2002B00F0C0800320FFF75F
:101DA80017FCBBE0234BD3F8083A02223249184605
:101DB80004F00CF80346002B14D12A4803F0C4FFA2
:101DC8000346012B03D10220FFF702FCA6E02548B9
:101DD80003F0BAFF0346022B40F0A0800320FFF770
:101DE800F7FB9BE0134BD3F8083A02222349184625
:101DF80003F0ECFF0346002B09D1214B214A11883F
:101E0800927819809A70124B01225A7086E0094B19
:101E1800D3F8083A02221C49184603F0D7FF0346B4
:101E2800002B35D1194800F0B1FBFFF747FD75E0ED
:101E380000440040D80600204CAE010860AE0108FE
:101E4800D80A002064AE010830AE01087CAE010853
:101E58001C11002080AE010884AE010888AE01087C
:101E68008CAE0108DC0E00202011002090AE010885
:101E780094AE010898AE01089CAE0108A0AE010816
:101E880049110020A4AE0108A8AE0108ACAE0108B3
:101E98002B4BD3F8083A02222A49184603F096FF3A
:101EA8000346002B2CD12849284804F0DDF8386077
:101EB800386803F049FF0246254B9A602249002002
:101EC80004F0D2F838603968224804F096F81E49C0
:101ED800002004F0C9F83860386803F035FF03467D
:101EE800DAB21B4B83F820201B4B1C4A12681146A0
:101EF80019800233120C1A70154B0122DA700DE0AA
:101F08000F4BD3F8083A02221549184603F05EFF32
:101F18000346002B02D10220FFF75AFB0821114883
:101F280002F0F2FF0346002B06D008210D4803F00B
:101F380006F80C4802F0D9FF00BF1037BD4680BD37
:101F4800D8060020B0AE01088CAE0108DC0E0020D7
:101F58001C1100202811002020110020B4AE010817
:101F6800B8AE01080044004080B584B000AF786086
:101F780039607B68FB600023FB7209E0FB68013372
:101F8800FB60FB681B782C2B02D1FB7A0133FB72B8
:101F9800FB7A012BF2D9FB680133FB600F4BFA681F
:101FA80003F6040311464FF40072184603F01DFFB0
:101FB8003968786804F058F8F860084AFB68C2F88D
:101FC800043A3968002004F04FF8F860034AFB68C7
:101FD800C2F8083A00BF1037BD4680BDD8060020B9
:101FE80080B584B000AFF860B9607A603B602F4A72
:101FF800B2F8423A6FF30E03A2F8423AFA682C4953
:102008002C4801F053FFBB68002B04D17B68002BE0
:1020180001D1012345E03B689BB2184603F040F824
:10202800224BB3F8423AC3F30E039BB21A461F4B36
:10203800002199541D49204803F0EAFEBB68002B93
:1020480017D07B68002B14D0B968184803F0F1FF4B
:102058000346002B06D17968144803F0EAFF0346CB
:10206800002B01D0012300E0002303F00103DBB2C1
:1020780017E0BB68002B0AD0B9680C4803F0D9FFF9
:102088000346002B14BF01230023DBB209E0796863
:10209800064803F0CEFF0346002B14BF012300239C
:1020A800DBB218461037BD4680BD00BFD8060020F9
:1020B800BCAE010800440040C4AE010880B582B03F
:1020C80000AF0023FB7109E04FF4FA7300221049B6
:1020D8001048FFF785FFFB790133FB71FB79072B6C
:1020E800F2D94FF4FA73002209490A48FFF778FF3A
:1020F8000346002B04D0084803F002FF012303E045
:10210800064803F0FDFE002318460837BD4680BD8B
:10211800F4AD0108C8AE0108CCAE0108E8AE01086C
:1021280080B59CB000AF7860396007F10C03642279
:102138000021184603F064FE4FF4FA7300220C499C
:102148000C48FFF74DFF07F10C003B687A680A4915
:1021580003F012FF07F10C004FF4E1630022044979
:10216800FFF73EFF034618467037BD4680BD00BFE7
:10217800F4AD010800AF010810AF010880B5ADF556
:10218800047D00AF3B1D1860002387F80F3207F16C
:102198000C0342F67B021A6004334FF4FE720021EE
:1021A800184603F02DFE3B1D07F10C021968104676
:1021B80003F006FF07F10C031846FEF73BF8034649
:1021C8001A4607F10C0313441D491A460B461B888F
:1021D800138016E097F80F3207F10C02D35C9BB21C
:1021E8001946184802F070FE00BF8021154802F019
:1021F8008BFE0346002BF8D097F80F32013387F88F
:102208000F3297F80F3207F10C02D35C7D2BE1D126
:1022180097F80F3207F10C02D35C9BB219460948B4
:1022280002F052FE00BF8021064802F06DFE034610
:10223800002BF8D000BF07F50477BD4680BD00BF6E
:102248002CAF01080044004080B500AF4FF47A700D
:1022580002F026FF0449054801F028FE4FF4FA7001
:1022680002F01EFF00BF80BD30AF010800440040EF
:1022780080B582B000AF00237B600023FB704FF471
:10228800FA73002275497648FFF7AAFE4FF4FA73ED
:10229800002272497348FFF7A3FE4FF4FA73002235
:1022A8006E497148FFF79CFE4FF4FA7300226B49A0
:1022B8006E48FFF795FE4FF4FA73002267496C48A1
:1022C800FFF78EFE0346002B23D06A496A4803F0C5
:1022D800CBFE78606749002003F0C6FE7860654948
:1022E800002003F0C1FE78607968644803F085FE39
:1022F8006249634803F08CFD5E49002003F0B4FE98
:10230800786079685F4803F078FE5E495E4803F0BC
:102318007FFD4FF4FA73002250495C48FFF760FED6
:102328000346002B39D0544B7B600023FB7002E03E
:102338007B6801337B607B681B78392BF8D87B6816
:102348001B782F2BF4D90CE0FB785A1CFA7019462D
:102358007B681A78484B0B4483F8242A7B6801333E
:102368007B607B681B78392B03D87B681B782F2B05
:10237800EAD87B681B785A2B03D87B681B78402BDC
:10238800E2D87B681B787A2B03D87B681B78602B94
:10239800DAD83F493F4803F03BFD4FF4FA73002277
:1023A8002E493D48FFF71CFE4FF4FA7300222B49D3
:1023B8003A48FFF715FE0346002B22D038492E482D
:1023C80003F037FE0346002B04D02B4B332283F84F
:1023D8003C2A0FE03349284803F02BFE0346002B24
:1023E80004D0254B362283F83C2A03E0224B3922BD
:1023F80083F83C2A204B93F83C3A19462A4803F0C4
:1024080007FD4FF4FA73002214492848FFF7E8FD46
:102418000346002B1AD0184B7B6002E07B6801331F
:102428007B607B681B783A2BF8D17B6801337B6033
:102438001049786803F018FE0346184603F084FC38
:102448000346DAB20C4B83F8412A03E00A4B6322B5
:1024580083F8412A00BF0837BD4680BDF4AD0108A6
:1024680034AF010854AF01086CAF01087CAF010814
:102478008CAF010830AE0108D8060020E410002017
:10248800A0AF0108F0100020B4AF0108C8AF0108E0
:10249800FC100020D0AF0108DCAF0108E8AF01084C
:1024A800F4AF0108FCAF010804B0010814B001083A
:1024B80080B58EB008AFF860B9607A60FB700E4BDB
:1024C8007B61FFF7A9F9FB783A6B0692FA6A0592E5
:1024D800BA6A04927A6A03923A6A029201937B6812
:1024E8000093BB68054A7969F86803F045FD00BFA9
:1024F8001837BD4680BD00BF1CB001089C220020D3
:1025080080B588B006AF78603960FFF793F90B4B58
:1025180093F83C2A0A4B04930A4B03930A4B029301
:102528000A4B01930A4B009313460A4A39687868A4
:10253800FFF7BEFF00BF0837BD4680BDD8060020A4
:1025480038B00108F0100020E41000208822002094
:102558003CB00108FC10002080B5A2B000AF786044
:1025680007F1080380220021184603F049FC07F10F
:10257800080379681846FFF7C3FF07F108031846F0
:1025880000F0BCF900BF8837BD4680BD80B5A2B059
:1025980000AF786007F1080380220021184603F095
:1025A8002FFCFFF739F907F108007B68064A07494D
:1025B80003F0E2FC07F10803184600F09FF900BF9A
:1025C8008837BD4680BD00BF9C22002040B001086E
:1025D80080B582B000AF164B7B6011E07B681B783A
:1025E8009BB21946134802F06FFC00BF80211148C6
:1025F80002F08AFC0346002BF8D07B6801337B602D
:102608007B681B787D2BE9D17B681B789BB21946C8
:10261800084802F059FC00BF8021064802F074FC0B
:102628000346002BF8D000BF0837BD4680BD00BF69
:1026380048B001080044004080B5CCB008AF3B1D4D
:10264800186007F10C0318464FF480731A460021EE
:1026580003F0D6FB1B4BC7F80C311B4B93F83030FB
:10266800DBB20133DAB2184B83F83020FFF7D4F825
:10267800164B93F8413A184600F02CF901463B1DD9
:1026880007F10C00124A07920691124A0592124A63
:102698000492124A0392124A0292124A0192124A70
:1026A80000921B68114AD7F80C1103F065FC07F17A
:1026B8000C03184600F022F900BF07F58877BD46DD
:1026C80080BD00BF4CB001081C110020D8060020B6
:1026D8006CB00108EF110020DD110020CB110020A3
:1026E800B9110020A7110020951100209C2200207C
:1026F80090B5C9B004AF02463B461960FB1D1A707D
:1027080007F10C0318464FF480731A46002103F0B2
:1027180077FB1F4BC7F80C31FB1D1C78FB1D1A7883
:102728001346DB0013445B0010331A4A13445A1D46
:10273800FB1D1B781146184600F0C6FC03461A46D6
:10274800154B234483F82120FFF766F8FB1D1A7800
:102758001346DB0013445B0010330E4A13445A1D22
:102768003B4607F10C000D4902910D490191009279
:102778001B680C4AD7F80C1103F0FEFB07F10C0399
:10278800184600F0BBF800BF07F58A77BD4690BD34
:1027980074B00108801100201C1100206CB00108E1
:1027A800281100209C22002090B5C7B002AF024635
:1027B8003B461960FB1D1A7007F10C0318464FF4CD
:1027C80080731A46002103F01BFB1E4BC7F80C311F
:1027D800FB1D1C78FB1D1A781346DB0013445B00B5
:1027E8001033194A13445A1DFB1D1B78114618460D
:1027F80000F06AFC03461A46144B234483F8212050
:10280800FFF70AF8FB1D1A781346DB0013445B0038
:1028180010330D4A13445A1D3B4607F10C000C496E
:10282800019100921B680B4AD7F80C1103F0A4FB26
:1028380007F10C03184600F061F800BF07F58A7726
:10284800BD4690BD84B00108801100201C110020F5
:102858006CB001089C22002080B5C6B002AF0246C9
:10286800FB1D1A7007F10C0318464FF480731A46C3
:10287800002103F0C5FA124BC7F80C31FEF7CCFF64
:10288800FB1D1A781346DB0013445B0010330D4A16
:102898001344053307F10C000B4A019200930B4BCC
:1028A8000B4AD7F80C1103F067FB07F10C03184625
:1028B80000F024F800BF07F58877BD4680BD00BF4B
:1028C80084B00108801100206CB0010890B00108A4
:1028D8009C22002080B582B000AF0346FB71FB79D3
:1028E800044A0321044803F013FB034B1846083736
:1028F800BD4680BD94B001085011002080B582B05B
:1029080000AF78607968074803F082FA064978686A
:1029180001F088F80448FFF731FC00BF0837BD46CE
:1029280080BD00BFBCAE0108D80C002080B582B0C5
:1029380000AF0121382001F0C5FE4FF47043BB8081
:102948001023FB710323BB713B1D1946194801F085
:10295800A7FC4FF47E73BB801023FB710323BB716C
:102968003B1D1946144801F09BFC0423BB8010232F
:10297800FB710323BB713B1D1946104801F090FC05
:102988000121012001F09EFE01210D4801F07AFD90
:102998004FF47E71084801F066FD4FF47041054818
:1029A80001F061FD0421054801F05DFD00BF083715
:1029B800BD4680BD00100140000C014000140140DC
:1029C8000002300080B483B000AF03460A46FB71B2
:1029D8001346BB71FB79013B052B57D801A252F86E
:1029E80023F000BF052A01081D2A0108352A01081D
:1029F8004D2A0108652A01087D2A0108264ABB7963
:102A08001360264ABB79002B0CBF01230023DBB2DD
:102A180013603CE0224ABB791360224ABB79002B41
:102A28000CBF01230023DBB2136030E01E4ABB79E0
:102A380013601E4ABB79002B0CBF01230023DBB2B5
:102A4800136024E01A4ABB7913601A4ABB79002B39
:102A58000CBF01230023DBB2136018E0164ABB79D0
:102A68001360164ABB79002B0CBF01230023DBB28D
:102A780013600CE0124ABB791360124ABB79002B31
:102A88000CBF01230023DBB2136000E000BF00BFCE
:102A98000C37BD4680BC7047BC012242B8012242B7
:102AA800B4012242A4812142A08121429C81214279
:102AB8009881214294812142908121428C81214236
:102AC80088812242B001224280B584B000AF03461B
:102AD8000A46FB711346BB71FB79002B08D0FB79C2
:102AE800062B05D8BB79002B02D00120FEF770FD1C
:102AF800FB79013B052B00F21D8101A252F823F05E
:102B0800212B01087B2B0108D52B01082F2C01084C
:102B1800892C0108E32C01088B4B01221A608B4B8E
:102B280000221A600023FB8105E0642002F0B8FA55
:102B3800FB890133FB81864B93F824309BB2FA89D9
:102B48009A42F2D3804B00221A60804B01221A600D
:102B58000023FB8105E0642002F0A2FAFB8901331F
:102B6800FB817B4B93F825309BB2FA899A42F2D3CA
:102B7800E1E0784B01221A60774B00221A600023AB
:102B8800FB8105E0642002F08BFAFB890133FB81AD
:102B98006F4B93F824309BB2FA899A42F2D36D4B6B
:102BA80000221A606C4B01221A600023FB8105E0A9
:102BB800642002F075FAFB890133FB81644B93F8BA
:102BC80025309BB2FA899A42F2D3B4E0634B0122D2
:102BD8001A60634B00221A600023FB8105E0642021
:102BE80002F05EFAFB890133FB81594B93F82430DC
:102BF8009BB2FA899A42F2D3584B00221A60584B7A
:102C080001221A600023FB8105E0642002F048FAE3
:102C1800FB890133FB814E4B93F825309BB2FA892F
:102C28009A42F2D387E04F4B01221A604E4B0022A2
:102C38001A600023FB8105E0642002F031FAFB8969
:102C48000133FB81424B93F824309BB2FA899A42B4
:102C5800F2D3444B00221A60434B01221A6000232E
:102C6800FB8105E0642002F01BFAFB890133FB813C
:102C7800374B93F825309BB2FA899A42F2D35AE03F
:102C88003A4B01221A603A4B00221A600023FB815A
:102C980005E0642002F004FAFB890133FB812C4B28
:102CA80093F824309BB2FA899A42F2D32F4B002230
:102CB8001A602F4B01221A600023FB8105E0642073
:102CC80002F0EEF9FB890133FB81214B93F82530A3
:102CD8009BB2FA899A42F2D32DE0264B01221A6060
:102CE800254B00221A600023FB8105E0642002F0D6
:102CF800D7F9FB890133FB81154B93F824309BB23C
:102D0800FA899A42F2D31B4B00221A601A4B01220D
:102D18001A600023FB8105E0642002F0C1F9FB89F9
:102D28000133FB810A4B93F825309BB2FA899A420A
:102D3800F2D300E000BFFB79184600F01FF800BF8F
:102D48001037BD4680BD00BFBC012242B8012242F7
:102D58000C1A0020B4012242A4812142A081214200
:102D68009C81214298812142948121429081214273
:102D78008C81214288812242B001224280B483B0F2
:102D880000AF0346FB71FB79013B052B38D801A244
:102D980052F823F0B52D0108C32D0108D12D0108E3
:102DA800DF2D0108ED2D0108FB2D0108174B00222E
:102DB8001A60174B00221A6023E0164B00221A6093
:102DC800154B00221A601CE0144B00221A60144BA9
:102DD80000221A6015E0134B00221A60124B0022E1
:102DE8001A600EE0114B00221A60114B00221A6083
:102DF80007E0104B00221A600F4B00221A6000E017
:102E080000BF00BF0C37BD4680BC7047BC012242E2
:102E1800B8012242B4012242A4812142A081214268
:102E28009C812142988121429481214290812142B2
:102E38008C81214288812242B001224280B588B02B
:102E480000AF78602A4801F0C3FE0121082001F094
:102E580039FC01214FF4802001F052FC4FF48063CB
:102E6800BB830323BB771823FB7707F11C031946A1
:102E7800204801F015FA4FF40063BB830423FB7765
:102E880007F11C0319461B4801F00AFA7B68FB602E
:102E980000233B8200237B820023BB8200233B83E9
:102EA8000C23FB8207F10C031946114801F0ECFED4
:102EB80001210F4801F0A2FF40210D4802F03FF820
:102EC800012240F225510A4801F0B7FF27233B723F
:102ED80000237B720023BB720123FB7207F10803F6
:102EE800184601F099F800BF2037BD4680BD00BFE5
:102EF80000480040000C014080B584B000AF786005
:102F08007868FFF79BFF0121182001F0DBFB4FF4E5
:102F18004043BB811023FB730323BB7307F10C03EE
:102F280019460A4801F0BCF94FF4E073BB8110233D
:102F3800FB730323BB7307F10C031946044801F024
:102F4800AFF900BF1037BD4680BD00BF000C01407F
:102F58000010014080B582B000AF0346FB71FB79D9
:102F6800013B052B62D801A252F823F08D2F0108EE
:102F78009F2F0108B12F0108C32F0108E92F01086D
:102F88000F30010840212C4801F06DFA80212A48B1
:102F980001F069FA4BE04021274801F056FA8021F8
:102FA800254801F060FA42E04021234801F05BFA2D
:102FB8008021214801F049FA39E040211E4801F0FA
:102FC80044FA80211C4801F040FA4FF480411B4824
:102FD80001F049FA4FF40041184801F044FA26E09C
:102FE8004021154801F031FA8021134801F02DFAEB
:102FF8004FF48041114801F028FA4FF400410F487E
:1030080001F031FA13E040210B4801F01EFA80214B
:10301800094801F01AFA4FF48041084801F023FAF0
:103028004FF40041054801F010FA00E000BF00BF6E
:103038000837BD4680BD00BF00100140000C0140AC
:1030480080B584B000AF0346FB710023FB73FB79A6
:103058001B4A13449B79002B06D1FB790133DBB261
:103068000121184600F098FCFB790133DBB21846C1
:10307800FFF770FFFB7B042B01D900231CE0114AEA
:10308800104B1B68002B0CBF01230023DBB213601D
:10309800022002F005F80F2000F0A0FB642001F0E8
:1030A800FFFFFB7B0133FB73054B5B78002BE1D003
:1030B800034B00225A70012318461037BD4680BDC5
:1030C80080110020A001224280B588B002AF0346DB
:1030D8003960FB710023FB750023BB7500237B75EA
:1030E80000233B750023FB740023BB7407F10C031A
:1030F80000210A461A800A469A70FDF7EDFE03463B
:103108001A465B4B1A80FB791846FFF799FF03466E
:103118007B75574B1B889BB2DAB2FB7942FA03F3F3
:1031280003F00103002B14BF01230023DBB2FB755E
:103138004F4B1B889BB21B0A9BB2DAB2FB7942FA4F
:1031480003F303F00103002B14BF01230023DBB2B8
:10315800BB75BB7CDB005AB2FB7D9B005BB21343A3
:103168005AB27B7D5B005BB213435AB297F91630B3
:1031780013435BB2FB74FB7C3E4AD35C3B753A7DE0
:10318800FB791146184600F0BBF87B7D002B60D018
:10319800BB7C002B0DD0FA79397D374B9B781846CC
:1031A800364B019300900B463549386802F0E4FE2F
:1031B80058E0FB7907F10C010A22184602F004FED8
:1031C80003461946386802F018FF3868FDF732F8E8
:1031D80003461A463B6813442A491A460B461B887D
:1031E80013803B7D07F10C010A22184602F0ECFD22
:1031F80003461946386802F0E3FE3868FDF71AF806
:1032080003461A463B6813441E491A460B461B8858
:103218001380194B1B78184607F10C030A2219462C
:1032280002F0D2FD03461946386802F0C9FE386834
:10323800FDF700F803461A463B68134411491A463D
:103248000B461B88138008220C49386802F0DDFE03
:1032580008E0FA793B7D009313460B4A042138684D
:1032680002F056FE3B7D18461837BD4680BD00BFAC
:1032780000000020D4B30108801100208D11002027
:1032880098B00108A8B00108ACB0010890B583B0A7
:1032980000AF0023FB710023FB7125E0FA79134688
:1032A800DB0013445B001033134A13440533122226
:1032B8000021184602F0A4FDFC79FA791346DB00D8
:1032C80013445B0010330C4A13445A1DFB79114612
:1032D8001846FFF7F9FE03461A46084B234483F8BD
:1032E8002120FB790133FB71FB79052BD6D900BF6F
:1032F8000C37BD4690BD00BF801100201C11002076
:1033080080B584B000AF03460A46FB711346BB7113
:10331800BB790B2B00F2AA80BB790A2B70D1554BD5
:1033280000221A73534B1B785E2B4CD80023FB608A
:103338000EE0FB794F4A13449B79002B05D04D4B87
:103348001B7B0133DAB24B4B1A73FB680133FB600A
:10335800FB68052BEDDD474B1B7B022B16D8FB7951
:10336800444A134401229A71FB790133DBB20121EB
:10337800184600F011FBFB793F4A134401229A706A
:10338800FB793D4A134400229A736FE0FB79394A6E
:10339800134400229A71FB790133DBB200211846ED
:1033A80000F0FAFAFB790133DBB21846FDF780FE2C
:1033B800FB79314A134400229A70FB792E4A134450
:1033C80000229A7352E0FB792A4A134400229A7128
:1033D800FB790133DBB20021184600F0DDFAFB79F6
:1033E8000133DBB21846FDF763FEFB79224A13442A
:1033F80000229A70FB79204A134400229A7335E020
:10340800BB79002B1CD1FB791A4A134400229A710C
:10341800FB790133DBB20021184600F0BDFAFB79D5
:103428000133DBB21846FDF769FEFB79124A1344F3
:1034380000229A70FB79104A134400229A7315E00F
:10344800FB790C4A134400229A71FB790133DBB2F1
:103458000021184600F0A0FAFB79074A134400221D
:103468009A70FB79044A134401229A7300BF1037FB
:10347800BD4680BD80110020AC06002080B582B01A
:1034880000AF0346FB71FB799BB21946074801F070
:103498001BFD00BF4021054801F036FD0346012B06
:1034A800F8D1FB7918460837BD4680BD0048004072
:1034B80080B485B000AF78600B46FB700023BB601A
:1034C8000023FB7326E0FB7B7A6813441B781B02FE
:1034D8001A46BB685340BB600023BB7314E0BB684B
:1034E80003F40043002B09D0BB685B00BB60BB68DA
:1034F80083F4815383F00103BB6002E0BB685B0087
:10350800BB60BB7B0133BB73BB7B072BE7D9FB7B62
:103518000133FB73FA7BFB789A42D4D3BB68184615
:103528001437BD4680BC70470FB480B485B000AF77
:103538000023FB600023FB7207F11C037B6026E07D
:103548007B681A1D7A601B681B021A46FB68534089
:10355800FB600023FB7214E0FB6803F40043002BBC
:1035680009D0FB685B00FB60FB6883F4815383F040
:103578000103FB6002E0FB685B00FB60FB7A013340
:10358800FB72FB7A072BE7D9BB69013BBB61BB69BF
:10359800002BD5D1FB6818461437BD4680BC04B053
:1035A8007047000080B584B000AF78600B46FB70B0
:1035B8000B4B00225A700023FB7309E0FB7B7A68EF
:1035C80013441B781846FFF759FFFB7B0133FB7345
:1035D800FA7BFB789A42F1D300BF1037BD4680BD15
:1035E8005411002080B582B000AF0023FB711F4B3F
:1035F8001A791F4B1A701D4B5A791D4B5A700023AC
:10360800FB710CE0FB79FA79013218490A44D17848
:10361800174A13440A469A70FB790133FB71FA7909
:10362800134B1B78043B9A42ECDB114B1B78043B91
:10363800DBB219460F48FFF73BFF0346BB80BA8849
:103648000B4B1B78033B09490B44DB781B020849E9
:103658000978023905480144C9780B439A4201D1D7
:1036680000F00AF800BF0837BD4680BD541100209D
:103678006C1100206E11002080B483B000AF0023CD
:10368800FB71534B5B78832B5ED0832B04DC812B3F
:1036980028D0822B3DD095E08F2B04D0FF2B1DD056
:1036A8008A2B74D08EE04B4B01225A704A4B9A7B7E
:1036B800484B1A700023FB710CE0FB79FA7903324E
:1036C80045490A44D178434A13440A465A73FB7958
:1036D8000133FB71FB79072BEFD973E03D4B0122D6
:1036E8005A706FE03B4B01225A700023FB710CE0CB
:1036F800FB79FA79033238490A44D178354A1344B8
:103708000A465A73FB790133FB71FB79072BEFD912
:1037180058E0304B01225A702F4B9A7B2D4B1A7070
:103728000023FB710CE0FB79FA7903322A490A4439
:10373800D178284A13440A465A73FB790133FB713E
:10374800FB79072BEFD93DE0224B01225A70224B1F
:103758009B7B1B021AB2204BDB7B1BB213431BB2B1
:103768009AB21C4B9A800023FB710CE0FB79FA7922
:10377800033219490A44D178164A13440A465A733F
:10378800FB790133FB71FB79072BEFD91AE0114B59
:1037980001225A70104B9A7B0E4B9A700023FB71D2
:1037A8000CE0FB79FA7903320B490A44D178094ACB
:1037B80013440A465A73FB790133FB71FB79072BD3
:1037C800EFD900BF00BF0C37BD4680BC704700BFB3
:1037D8006C110020801100205411002080B584B0A5
:1037E80000AF0346FB71A0233B7206237B72FB7973
:1037F800BB727B7A1946BB7A1A460220FFF794FE01
:103808000346FB81FB891B0A9BB2DBB2FB72FB8977
:10381800DBB23B73A1237B737A7A07F10803114665
:103828001846FFF7BFFE00BF1037BD4680BD000039
:1038380080B582B000AF40F22551324801F08FFBCD
:103848000346002B4CD040F225512E4801F0E1FBF5
:103858002C4801F04AFB0346FB712B4B1B78002BCD
:103868003ED1294B5B781A46274B1344FA79DA7014
:10387800254B5B780133DAB2234B5A70224B5B78C5
:10388800022B0AD0142B0CD0012B11D1FB79B02BB1
:1038980023D01D4B00225A701FE01B4AFB799370FE
:1038A8001EE0194B00225A70184802F029FB17E055
:1038B800154B5A78144B9B789A4210D1FB79B12B4F
:1038C8000DD1114B01221A700F4B00225A70FFF7CD
:1038D80089FE0D4B00221A7001E000BF00E000BF16
:1038E8000821084801F010FB0346002B06D00821E8
:1038F800044801F024FB034801F0F7FA00BF083739
:10390800BD4680BD0048004054110020B4B00108F5
:1039180080B582B000AF0121182000F0D3FE41F23B
:103928000703BB801023FB710323BB713B1D1946A2
:10393800114800F0B5FC3023BB801023FB71032332
:10394800BB713B1D19460D4800F0AAFC0C4B012227
:103958001A600C4B01221A600B4B01221A600B4BA8
:1039680001221A600A4B01221A600A4B01221A60CE
:1039780000BF0837BD4680BD000C01400010014063
:103988009001224294012242808121428481214275
:1039980088812142B081214280B483B000AF0346C0
:1039A8000A46FB711346BB71FB79013B052B27D8EF
:1039B80001A252F823F000BFD9390108E139010802
:1039C800E9390108F1390108F9390108013A010812
:1039D8000E4ABB79136014E00D4ABB79136010E0FE
:1039E8000C4ABB7913600CE00B4ABB79136008E002
:1039F8000A4ABB79136004E0094ABB79136000E006
:103A080000BF00BF0C37BD4680BC70479001224202
:103A1800940122428081214284812142888121426D
:103A2800B081214280B586B000AF7860396000234C
:103A38007B6100233B610023FB737868FCF7FAFB8A
:103A48000346BB60ABE07B697A6813441B789B082C
:103A5800FB733B695A1C3A611A463B681344574A40
:103A68001168FA7B0A4412781A707B697A681344E1
:103A78001B781B01DBB203F03003FB737B695A1C14
:103A8800BB689A4228DA7B6901337A6813441B7849
:103A98001B09DBB25AB297F90F3013435BB2FB73C1
:103AA8003B695A1C3A611A463B681344434A1168F9
:103AB800FA7B0A4412781A707B6901337A681344D6
:103AC8001B789B00DBB203F03C03FB737B699A1CF9
:103AD800BB689A424BDA1CE03B695A1C3A611A46A9
:103AE8003B681344354A1168FA7B0A4412781A7005
:103AF8003B695A1C3A611A463B6813443D221A70C6
:103B08003B695A1C3A611A463B6813443D221A70B5
:103B18004AE07B6902337A6813441B789B09DBB25D
:103B28005AB297F90F3013435BB2FB733B695A1CC7
:103B38003A611A463B681344204A1168FA7B0A44E2
:103B480012781A707B6902337A6813441B7803F081
:103B58003F03FB733B695A1C3A611A463B6813449E
:103B6800164A1168FA7B0A4412781A7014E03B6905
:103B78005A1C3A611A463B681344104A1168FA7B8A
:103B88000A4412781A703B695A1C3A611A463B6813
:103B980013443D221A7007E07B6903337B617A691D
:103BA800BB689A42FFF64FAF3B693A68134400225C
:103BB8001A70002318461837BD4680BD040000203F
:103BC80080B584B000AF78600B46FB70FB7819466F
:103BD800786802F004FAF860FB68002B02D14FF015
:103BE800FF3302E0FA687B68D31A18461037BD46DF
:103BF80080BD000080B588B000AF786039600023D0
:103C0800FB610023BB6107F1080300221A605A60B8
:103C18009A60DA607BE0464B1868FB697A6813445F
:103C28001B781946FFF7CCFF0346BB60404B18686A
:103C3800FB6901337A6813441B781946FFF7C0FF04
:103C48000346FB60BB695A1CBA611A463B681344B9
:103C5800BA68920051B2FA68121152B202F0030225
:103C680052B20A4352B2D2B21A70FB6902337A686E
:103C780013441B783D2B44D02D4B1868FB69023345
:103C88007A6813441B781946FFF79AFF03463B618D
:103C9800BB695A1CBA611A463B681344FA68120198
:103CA80051B23A69921052B202F00F0252B20A436C
:103CB80052B2D2B21A70FB6903337A6813441B7884
:103CC8003D2B20D01A4B1868FB6903337A681344DC
:103CD8001B781946FFF774FF03467B61BB695A1CC2
:103CE800BA611A463B6813443A69920151B27A693B
:103CF80052B202F03F0252B20A4352B2D2B21A7022
:103D080002E000BF00E000BFFB690433FB61FB6910
:103D18007A6813441B78002B7FF47DAFBB693A683F
:103D2800134400221A70002318462037BD4680BD70
:103D38000400002080B582B000AF40F2255127482A
:103D480001F00DF90346002B23D0244801F0CDF8EB
:103D58000346FB71224BB3F80034C3F30E039BB246
:103D68001A4640F2FE339A4213DC1D4BB3F8003476
:103D7800C3F30E0399B24B1CC3F30E0398B2184A4F
:103D8800B2F8003460F30E03A2F80034144AFB7949
:103D9800535440F22441114801F0E1F80346012B45
:103DA80018D10F4AB2F8003443F40043A2F80034A3
:103DB8000A4801F09AF80346FB710A49084802F0DC
:103DC80038F90346002B14BF01230023DBB21A463F
:103DD800054B1A7000BF0837BD4680BD004C004037
:103DE800041200200CB101080616002080B489B026
:103DF80000AFF860B9607A600023BB61BB687B6183
:103E08007B680A2B04D07B6900221A70BB6846E0E5
:103E1800FB68002B09D17B695A1C7A6130221A7021
:103E28007B6900221A70BB6839E0FB68002B07DA4F
:103E38007B695A1C7A612D221A70FB685B42FB6011
:103E480042F21073FB6123E0FA68FB6992FBF3F31B
:103E58003B613B69002B02D1BB69002B10D07B6909
:103E68005A1C7A613A69D2B23032D2B21A703B69BE
:103E7800FA6902FB03F3FA68D31AFB600123BB61FA
:103E8800FB69094A82FB03129210DB17D31AFB6104
:103E9800FB69002BD8DC7B6900221A70BB681846C6
:103EA8002437BD4680BC7047676666660EB480B529
:103EB8008BB000AF786007F13803FB608EE07B6B56
:103EC8001B785C2B1DD17B6B01337B637B6B1B7871
:103ED8006E2B09D0722B0FD10D21786800F0F4FFFA
:103EE8007B6B01337B6371E00A21786800F0ECFF9B
:103EF8007B6B01337B6369E07B6B01337B6300BFC2
:103F080064E07B6B1B78252B57D17B6B01337B637C
:103F18007B6B1B78642B21D0732B49D1FB681A1D4E
:103F2800FA601B687B6211E07B6A1B789BB21946BA
:103F3800786800F0C9FF00BF8021786800F0E4FFCE
:103F48000346002BF8D07B6A01337B627B6A1B78BF
:103F5800002BE9D17B6B01337B6337E0FB681A1DCB
:103F6800FA601B683B6207F110030A221946386A97
:103F7800FFF73CFF07F110037B6211E07B6A1B78B7
:103F88009BB21946786800F09FFF00BF80217868CF
:103F980000F0BAFF0346002BF8D07B6A01337B623E
:103FA8007B6A1B78002BE9D17B6B01337B630DE0C7
:103FB8007B6B01337B6300BF08E07B6B5A1C7A6321
:103FC8001B789BB21946786800F07EFF00BF8021FD
:103FD800786800F099FF0346002BF8D07B6B1B78BC
:103FE800002B7FF46CAF00BF2C37BD46BDE8804086
:103FF80003B0704780B483B000AF7860054A7B682F
:1040080043F0BF6343F40033D36000BF0C37BD46B1
:1040180080BC704700ED00E080B487B000AF7860E6
:1040280000237B6100233B610F23FB607B68DB7807
:10403800002B3AD0274BDB68DB431B0A03F007034E
:104048007B617B69C3F104033B61FA687B6922FAEF
:1040580003F3FB607B685B781A463B6902FA03F35B
:104068007B617B689B781A46FB6813407A69134327
:104078007B617B691B017B61174A7B681B787969C7
:10408800C9B213440A4683F80023134A7B681B7895
:104098005B09DBB218467B681B7803F01F0301211C
:1040A80001FA03F342F820300FE00B497B681B78D4
:1040B8005B09DBB218467B681B7803F01F030122FB
:1040C8009A4000F1200341F8232000BF1C37BD4669
:1040D80080BC704700ED00E000E100E080B483B0F0
:1040E80000AF7860396007493B6823F0604323F0EC
:1040F8007F037A6813438B6000BF0C37BD4680BCD2
:10410800704700BF00ED00E080B400AF044B054AE3
:104118005A60034B044A5A6000BFBD4680BC7047D2
:104128000020024023016745AB89EFCD80B400AF82
:10413800044A044B1B6943F08003136100BFBD466A
:1041480080BC70470020024080B584B000AF786022
:104158000423FB734FF4302000F080F80346FB7310
:10416800FB7B042B1BD1104A0F4B1B6943F0020346
:1041780013610D4A7B6853610B4A0B4B1B6943F073
:10418800400313614FF4302000F068F80346FB73D6
:104198000549054B1A6941F6FD7313400B61FB7B1A
:1041A80018461037BD4680BD0020024080B584B057
:1041B80000AF78600B467B800423FB734FF40050FC
:1041C80000F04CF80346FB73FB7B042B15D10D4A1A
:1041D8000C4B1B6943F0010313617B687A881A80D2
:1041E8004FF4005000F03AF80346FB730549054BBD
:1041F8001A6941F6FE7313400B61FB7B18461037B2
:10420800BD4680BD0020024080B483B000AF0423C7
:10421800FB71114BDB6803F00103012B02D1012371
:10422800FB7113E00C4BDB6803F00403002B02D096
:104238000223FB710AE0084BDB6803F01003002B34
:1042480002D00323FB7101E00423FB71FB791846BC
:104258000C37BD4680BC70470020024080B584B052
:1042680000AF78600423FB73FFF7CEFF0346FB73B0
:1042780006E0FFF7C9FF0346FB737B68013B7B60E1
:10428800FB7B012B02D17B68002BF2D17B68002BD2
:1042980001D10523FB73FB7B18461037BD4680BD53
:1042A80080B489B000AF786039600023FB610023D7
:1042B8003B610023BB610023FB6000237B6100237B
:1042C800BB603B68DB7803F00F03FB613B68DB787E
:1042D80003F01003002B05D03B689B781A46FB6956
:1042E8001343FB613B681B88DBB2002B44D07B681F
:1042F8001B687B610023BB6138E00122BB6902FABD
:1043080003F3FB603B681B881A46FB6813403B615C
:104318003A69FB689A4226D1BB699B00FB600F2271
:10432800FB6802FA03F3BB60BB68DB437A6913409E
:104338007B61FA69FB6802FA03F37A6913437B61CC
:104348003B68DB78282B05D10122BB699A407B6842
:104358005A6108E03B68DB78482B04D10122BB692D
:104368009A407B681A61BB690133BB61BB69072B43
:10437800C3D97B687A691A603B681B88FF2B46D9CA
:104388007B685B687B610023BB613AE0BB690833EB
:10439800012202FA03F3FB603B681B881A46FB689C
:1043A80013403B613A69FB689A4227D1BB699B007D
:1043B800FB600F22FB6802FA03F3BB60BB68DB43B8
:1043C8007A6913407B61FA69FB6802FA03F37A6938
:1043D80013437B613B68DB78282B05D1BB69083325
:1043E80001229A407B685A613B68DB78482B05D1EB
:1043F800BB69083301229A407B681A61BB690133A3
:10440800BB61BB69072BC1D97B687A695A6000BF59
:104418002437BD4680BC704780B485B000AF786053
:104428000B467B800023FB737B689A687B8813406C
:10443800002B02D00123FB7301E00023FB73FB7BFD
:1044480018461437BD4680BC704780B483B000AFAF
:1044580078600B467B807A887B681A6100BF0C37CE
:10446800BD4680BC704780B483B000AF78600B460F
:104478007B807A887B685A6100BF0C37BD4680BC58
:104488007047000080B487B000AF78600B46FB70BF
:1044980000233B610023FB6000237B610023BB609A
:1044A8007B68002B03DA2E4BDB697B6102E02C4B27
:1044B8005B687B617B681B0C03F00F03BB607B6848
:1044C8009BB23B617B6803F44013B3F5401F0AD1EC
:1044D8007B6923F070637B61214A214B5B6823F081
:1044E8007063536021E07B6803F48013002B0ED0C7
:1044F8000322BB6802FA03F3FB60FB68DB437A69BB
:1045080013407B617B6943F070637B610DE07B68DE
:104518005B0D1B013A6902FA03F3DB437A69134026
:104528007B617B6943F070637B61FB78002B08D06B
:104538007B685B0D1B013A6902FA03F37A6913433E
:104548007B617B68002B03DA054A7B69D36102E053
:10455800034A7B69536000BF1C37BD4680BC704767
:104568000000014080B487B000AF786000237B6111
:1045780000233B610023FB600023BB604C4B5B685E
:1045880003F00C037B617B69042B07D0082B09D04F
:10459800002B33D17B68474A1A6033E07B68454A71
:1045A8001A602FE0424B5B6803F470133B61404B89
:1045B8005B6803F48033FB603B699B0C02333B610F
:1045C800FB68002B06D13B693B4A02FB03F27B6880
:1045D8001A6017E0364B5B6803F40033002B06D0F3
:1045E8003B69354A02FB03F27B681A600AE03B69C3
:1045F800304A02FB03F27B681A6003E07B682D4AAD
:104608001A6000BF2A4B5B6803F0F0037B617B698B
:104618001B097B61294A7B6913441B78DBB2BB60A9
:104628007B681A68BB68DA407B685A60204B5B6815
:1046380003F4E0637B617B691B0A7B611F4A7B692A
:1046480013441B78DBB2BB607B685A68BB68DA40EE
:104658007B689A60164B5B6803F460537B617B69E7
:10466800DB0A7B61154A7B6913441B78DBB2BB60AC
:104678007B685A68BB68DA407B68DA600C4B5B6819
:1046880003F440437B617B699B0B7B610C4A7B692C
:1046980013441B78DBB2BB607B68DA68BB68B2FB8B
:1046A800F3F27B681A6100BF1C37BD4680BC7047B7
:1046B8000010024000127A0000093D0008000020A6
:1046C8001800002080B483B000AF78600B46FB7000
:1046D800FB78002B06D00949084B9A697B6813437D
:1046E8008B6106E00549054B9A697B68DB431340FB
:1046F8008B6100BF0C37BD4680BC7047001002407C
:1047080080B483B000AF78600B46FB70FB78002B59
:1047180006D00949084BDA697B681343CB6106E088
:104728000549054BDA697B68DB431340CB6100BF61
:104738000C37BD4680BC70470010024080B483B07F
:1047480000AF78600B46FB70FB78002B06D0094958
:10475800084BDA687B681343CB6006E00549054BD4
:10476800DA687B68DB431340CB6000BF0C37BD467B
:1047780080BC70470010024080B483B000AF7860FE
:104788000B46FB70FB78002B06D00949084B1A69C9
:104798007B6813430B6106E00549054B1A697B6882
:1047A800DB4313400B6100BF0C37BD4680BC70472C
:1047B8000010024080B582B000AF78607B68784A0C
:1047C80093420AD101214FF40060FFF7B7FF00219F
:1047D8004FF40060FFF7B2FFDEE07B68B3F1804F73
:1047E80008D101210120FFF7C7FF00210120FFF7B1
:1047F800C3FFD1E07B686B4A934208D101210220B4
:10480800FFF7BAFF00210220FFF7B6FFC4E07B687C
:10481800654A934208D101210420FFF7ADFF00212A
:104828000420FFF7A9FFB7E07B68604A934208D1EC
:1048380001210820FFF7A0FF00210820FFF79CFFB7
:10484800AAE07B685A4A934208D101211020FFF759
:1048580093FF00211020FFF78FFF9DE07B68554AEA
:10486800934208D101212020FFF786FF0021202054
:10487800FFF782FF90E07B684F4A93420AD10121FB
:104888004FF40050FFF75AFF00214FF40050FFF794
:1048980055FF81E07B68494A93420AD101214FF4D0
:1048A8000020FFF74BFF00214FF40020FFF746FFE1
:1048B80072E07B68424A93420AD101214FF480108A
:1048C800FFF73CFF00214FF48010FFF737FF63E04C
:1048D8007B683C4A93420AD101214FF40010FFF74C
:1048E8002DFF00214FF40010FFF728FF54E07B68EC
:1048F800354A934208D101214020FFF73DFF0021AE
:104908004020FFF739FF47E07B68304A934208D1DF
:1049180001218020FFF730FF00218020FFF72CFFC6
:104928003AE07B682A4A93420AD101214FF4807009
:10493800FFF722FF00214FF48070FFF71DFF2BE0E7
:104948007B68244A93420AD101214FF48030FFF753
:10495800F5FE00214FF48030FFF7F0FE1CE07B6885
:104968001D4A93420AD101214FF40030FFF7E6FEB9
:1049780000214FF40030FFF7E1FE0DE07B68174A95
:10498800934209D101214FF48020FFF7D7FE00217F
:104998004FF48020FFF7D2FE00BF0837BD4680BD28
:1049A800002C01400004004000080040000C0040BA
:1049B800001000400014004000340140004C014049
:1049C800005001400054014000180040001C004005
:1049D80000200040004001400044014000480140E0
:1049E80080B485B000AF786039600023FB817B68B4
:1049F8001B88FB817B682E4A934213D07B682D4A23
:104A080093420FD07B68B3F1804F0BD07B682A4A62
:104A1800934207D07B68294A934203D07B68284A8F
:104A2800934208D1FB8923F07003FB813B685A88C5
:104A3800FB891343FB817B68224A93420CD07B6835
:104A4800214A934208D0FB8923F44073FB813B68D9
:104A5800DA88FB891343FB817B68FA891A803B68F3
:104A68009A887B689A853B681A887B681A857B6870
:104A78000F4A93420FD07B680E4A93420BD07B6853
:104A8800124A934207D07B68114A934203D07B684D
:104A9800104A934204D13B681B7A9AB27B681A8603
:104AA8007B6801229A8200BF1437BD4680BC7047DC
:104AB800002C014000340140000400400008004080
:104AC800000C00400010004000140040004001406D
:104AD800004401400048014080B483B000AF7860D2
:104AE8000B46FB70FB78002B08D07B681B889BB2B9
:104AF80043F001039AB27B681A8007E07B681B8841
:104B08009BB223F001039AB27B681A8000BF0C376E
:104B1800BD4680BC704780B483B000AF78600B4658
:104B28007B8013467B707B78002B08D07B689B8941
:104B38009AB27B8813439AB27B689A8109E07B68B2
:104B48009B899AB27B88DB439BB213409AB27B68FD
:104B58009A8100BF0C37BD4680BC704780B485B0D1
:104B680000AF78600B467B800023FB730023BB817A
:104B780000237B817B681B8A9AB27B881340BB81A8
:104B88007B689B899AB27B8813407B81BB89002B09
:104B980005D07B89002B02D00123FB7301E00023A1
:104BA800FB73FB7B18461437BD4680BC704780B446
:104BB80083B000AF78600B467B807B88DB439AB27A
:104BC8007B681A8200BF0C37BD4680BC7047000066
:104BD80080B582B000AF78607B68264A93420AD1DC
:104BE80001214FF48040FFF7A9FD00214FF48040D8
:104BF800FFF7A4FD3AE07B681F4A93420AD10121DE
:104C08004FF40030FFF7B8FD00214FF40030FFF7F4
:104C1800B3FD2BE07B68194A93420AD101214FF476
:104C28008020FFF7A9FD00214FF48020FFF7A4FDA5
:104C38001CE07B68124A93420AD101214FF40020FC
:104C4800FFF79AFD00214FF40020FFF795FD0DE0D6
:104C58007B680C4A934209D101214FF48010FFF779
:104C68008BFD00214FF48010FFF786FD00BF083749
:104C7800BD4680BD00380140004400400048004067
:104C8800004C00400050004080B58CB000AF786008
:104C980039600023FB620023BB6200237B62002390
:104CA8003B620023FB617B68FB617B681B8A9BB2CC
:104CB800FB62FA6A4CF6FF731340FB623B68DB88C1
:104CC8001A46FB6A1343FB62FB6A9AB27B681A8234
:104CD8007B689B899BB2FB62FA6A4EF6F31313401A
:104CE800FB623B689A883B681B8913439AB23B680E
:104CF8005B8913439BB21A46FB6A1343FB62FB6A48
:104D08009AB27B689A817B689B8A9BB2FB62FA6A3B
:104D18004FF6FF431340FB623B689B891A46FB6AC8
:104D28001343FB62FB6A9AB27B689A8207F1080315
:104D38001846FFF717FCFB692E4A934202D17B699C
:104D4800BB6201E03B69BB627B689B899BB21BB27B
:104D5800002B0CDABA6A13469B0013449A001A44D3
:104D68003B681B685B00B2FBF3F37B620BE0BA6A3B
:104D780013469B0013449A001A443B681B689B0027
:104D8800B2FBF3F37B627B6A1B4AA2FB03235B093A
:104D98001B01FB62FB6A1B09642202FB03F37A6AAC
:104DA800D31A3B627B689B899BB21BB2002B0CDA3F
:104DB8003B6ADB003233104AA2FB03235B0903F092
:104DC8000703FA6A1343FB620BE03B6A1B013233A9
:104DD800094AA2FB03235B0903F00F03FA6A134392
:104DE800FB62FB6A9AB27B681A8100BF3037BD4606
:104DF80080BD00BF003801401F85EB5180B483B0EF
:104E080000AF78600B46FB70FB78002B08D07B68FE
:104E18009B899BB243F400539AB27B689A8107E05E
:104E28007B689B899BB223F400539AB27B689A8172
:104E380000BF0C37BD4680BC704780B487B000AF58
:104E480078600B467B8013467B7000233B61002310
:104E5800FB600023BB6000237B617B687B617B88F0
:104E6800DBB25B09DBB23B617B8803F01F03FB60AD
:104E78000122FB6802FA03F3BB603B69012B03D1F3
:104E88007B690C337B6109E03B69022B03D17B69A9
:104E980010337B6102E07B6914337B617B78002BE4
:104EA80006D07B697A691168BA680A431A6006E015
:104EB8007B697A691168BA68D2430A401A6000BFF0
:104EC8001C37BD4680BC704780B483B000AF7860A3
:104ED8000B467B807B88C3F308039AB27B689A8071
:104EE80000BF0C37BD4680BC704780B483B000AFAC
:104EF80078607B689B889BB2C3F308039BB2184613
:104F08000C37BD4680BC704780B485B000AF786070
:104F18000B467B800023FB737B681B889AB27B88D7
:104F280013409BB2002B02D00123FB7301E0002346
:104F3800FB73FB7B18461437BD4680BC704780B4B2
:104F480083B000AF78600B467B807B88DB439AB2E6
:104F58007B681A8000BF0C37BD4680BC704780B4A0
:104F680087B000AF78600B467B800023FB6000238E
:104F78007B610023BB600023FB747B88DBB25B0989
:104F8800DBB2BB607B8803F01F037B6101227B6976
:104F980002FA03F37B61BB68012B07D17B689B890D
:104FA8009BB21A467B6913407B6111E0BB68022BF8
:104FB80007D17B681B8A9BB21A467B6913407B61C9
:104FC80006E07B689B8A9BB21A467B6913407B612B
:104FD8007B881B0A9BB2FB600122FB6802FA03F381
:104FE800FB607B681B889BB21A46FB681340FB601A
:104FF8007B69002B05D0FB68002B02D00123FB74D2
:1050080001E00023FB74FB7C18461C37BD4680BCBE
:10501800704780B485B000AF78600B467B80002372
:10502800FB810023BB817B881B0AFB81FB89012252
:1050380002FA03F3BB81BB89DB439AB27B681A800F
:1050480000BF1437BD4680BC7047000080B485B0EF
:1050580000AF786011497A681346DB0013444B604F
:105068000E4B00229A600D4B01221A600B4B1B68F5
:10507800FB60FB6803F00103002B04D0FB6803F41A
:105088008033002BF2D0054B00221A60034B00221C
:105098009A6000BF1437BD4680BC704710E000E03E
:1050A80080B485B000AF0346FB80124AFB8842F209
:1050B800283101FB03F353600E4B00229A600D4B1D
:1050C80001221A600B4B1B68FB60FB6803F00103AD
:1050D800002B04D0FB6803F48033002BF2D0054B7F
:1050E80000221A60034B00229A6000BF1437BD46A5
:1050F80080BC704710E000E0B0B594B004AF7860B1
:105108007648FFF765FD01210420FFF7DBFA01214E
:105118004FF48040FFF7D6FA4FF400733B87032320
:1051280087F83A30182387F83B3007F138031946D7
:105138006B48FFF7B5F84FF480633B87042387F883
:105148003B3007F1380319466548FFF7A9F87B6833
:10515800BB620023BB850023FB8500233B8600231D
:10516800BB860C237B8607F1280319465B48FFF7AB
:105178008BFD01215948FFF741FE40215748FFF7B1
:10518800DEFE012240F225515448FFF756FE252342
:1051980087F82430022387F82530032387F8263040
:1051A800012387F8273007F124031846FEF734FF58
:1051B800FCF74EFB4B494C4800F02AFE0023FB63EA
:1051C8004A49484800F050FFF863F96B484800F036
:1051D80014FF47494748FBF723F80346002B02D141
:1051E800454800F08DFE4149002000F03DFFF8637E
:1051F800FB6B07F10C041D4628686968AA68EB6810
:105208000FC4286920602B7D23713849002000F0E5
:105218002BFFF863F86B00F097FD0346DAB2344BC6
:1052280083F826203149002000F01EFFF863F86B50
:1052380000F08AFD0346DAB22D4B83F824202B496F
:10524800002000F011FFF863F86B00F07DFD0346C5
:10525800DAB2274B83F8252007F10C0327491846B3
:1052680000F002FFF863224BFA6B103314462068F3
:105278006168A26807C3A289A17B1A800A469A704E
:105288001E49002000F0F0FEF863194BFA6B1F333B
:105298001168196012791A7119491A48FAF7C0FF8A
:1052A8000346002B02D1184800F02AFE104B93F851
:1052B80026301A460E4B93F8243019460C4B93F8B7
:1052C80025300293019100920D4B104A084910486D
:1052D80000F09EFD00BF4037BD46B0BD003801401C
:1052E80000080140A422002064B2010878B2010835
:1052F8000C1A00207CB2010890B20108A0B2010883
:105308002B1A0020A4B20108ACB201081C1A002014
:10531800BCB2010880B5A2B000AF0023C7F8843042
:10532800002387F8833040F22551CA48FFF717FE5B
:105338000346002B00F0D58140F22551C548FFF700
:1053480068FEC448FFF7D1FD034687F88230C24B98
:10535800B3F80034C3F30E039BB21A4640F2FE338F
:105368009A4214DCBC4BB3F80034C3F30E0399B271
:105378004B1CC3F30E0398B2B74AB2F8003460F37B
:105388000E03A2F80034B44A97F88230535497F8C1
:1053980082305D2B1BD1B149AF4800F065FE024653
:1053A800AF4B1A60AE4B1B681946AE4800F030FD93
:1053B800AB4B1B6808221946AB48FCF763F9A64AB1
:1053C800B2F800346FF30E03A2F8003489E197F8BD
:1053D8008230242B15D1A5499F4800F045FEC7F817
:1053E80084004FF4FA730022A149D7F88400FCF72F
:1053F800F7FD994AB2F800346FF30E03A2F80034AF
:105408006FE197F88230232B15D19A49924800F022
:105418002BFEC7F88400D7F8840000F07BF9034618
:105428001846FEF7DBF98C4AB2F800346FF30E0326
:10543800A2F8003455E197F88230252B44D18E49E3
:10544800854800F011FEC7F88400834AB2F800349A
:105458006FF30E03A2F80034D7F884301B786C2B56
:105468000CD1D7F8843001331B78303B87F8833070
:1054780097F883301846FBF71BFE32E1D7F88430E3
:105488001B78642B0CD1D7F8843001331B78303B60
:1054980087F8833097F883301846FBF72FFE20E112
:1054A800D7F884301B78612B40F01B81D7F8843003
:1054B8000133C7F88430D7F8840000F02BF903468D
:1054C8001846FBF7B7FD0CE197F88230402B40F007
:1054D80008816A49604800F0C7FDC7F884005E4A41
:1054E800B2F800346FF30E03A2F80034D7F8843012
:1054F8001B78742B12D1D7F8843001331B78303BDA
:1055080087F8833097F8833019465D4800F080FCAF
:1055180097F883301846FCF75BF8E2E0D7F8843058
:105528001B78262B18D1D7F884300133C7F884307C
:10553800D7F8840000F008FC0346DBB2013BDBB27D
:1055480050491846FDF7C0FD434AB2F800346FF3DE
:105558000E03A2F80034C4E0D7F884301B78652B1A
:1055680002D1FCF771FEBCE0D7F884301B78732BAE
:105578000FD1D7F884300133C7F884303B46194639
:10558800D7F88400FEF74EFA3B461846FCF7F6FDBE
:10559800A7E0D7F884301B78662B13D1D7F884306E
:1055A80001331B78303B87F8833097F883301946EE
:1055B800354800F02DFC97F8833001211846FDF797
:1055C80001FA8EE0D7F884301B78622B13D1D7F814
:1055D800843001331B78303B87F8833097F8833069
:1055E80019462A4800F014FC97F883300021184621
:1055F800FDF7E8F975E0D7F884301B78702B12D1E5
:10560800D7F8843001331B78303B87F8833097F81C
:10561800833019461E4800F0FBFB97F88330184684
:10562800FDF7ACFB5DE0D7F884301B78722B35D1E1
:10563800082218490C48FCF7CDF81649164800F01E
:10564800E7FB054AB2F800346FF30E03A2F8003402
:1056580047E000BF0038014008160020F4B20108F6
:10566800D4060020F8B2010804F803080CB30108B6
:1056780010B3010814B3010818B301081CB30108DA
:1056880020B30108381A002038B3010850B30108C4
:1056980068B301089C2200207CB30108D7F8843045
:1056A8001B78782B0CD1184800F02AFC174A174BA6
:1056B8001B68002B0CBF01230023DBB2136010E032
:1056C800D7F884301B78792B0BD1D7F88430013385
:1056D8001B78303B87F8833097F883301846FDF7FE
:1056E80039FC08210A48FFF70FFC0346002B06D0B7
:1056F80008210748FFF723FC0548FFF7F6FB00BF22
:105708008837BD4680BD00BF90B30108A001224282
:105718000038014080B485B000AF78607B681B78A2
:10572800FB737B6801331B78BB73FB7B392B03D975
:10573800FB7B373BFB7302E0FB7B303BFB73BB7BA4
:10574800392B03D9BB7B373BBB7302E0BB7B303BB8
:10575800BB73FB7B1B015AB297F90E3013435BB244
:10576800DBB218461437BD4680BC704780B582B09E
:1057780000AF00237B6000F02DFA4FF480314FF02A
:105788000060FEF7ABFC62B64FF4A060FEF732FC97
:105798004FF4E130FFF7B0FC824800F0B1FBFBF7B3
:1057A80069FBFBF7F9FEFDF7C1F8FEF7B1F84FF416
:1057B800E130FDF7A1FBFBF703FCFCF757F848F6CF
:1057C8009F411420FBF7E2FC4FF4E130FCF7E2F8CC
:1057D800754B9B78DBB2002B25D0734B00229A7057
:1057E800724B1B78DBB21A466F4B9B689A4200F0EB
:1057F800AD806D4B9B68DAB26C4B1A706A4B9B6834
:10580800DBB20133DAB2684B93F82030DBB21946C9
:105818001046FDF759F9644B9B68DBB2644918469A
:10582800FCF7C2FF92E0604BDB78DBB2002B21D0A3
:105838005D4B0022DA705D4B1B78DBB21A465A4B7F
:105848009B689A4200F08280574B9B68DAB2574BAC
:105858001A70554B9B68DBB20133DBB20121184645
:10586800FDF732F9504B9B68DBB252491846FCF7FA
:105878003FFF6BE04C4B1B78DBB2002B08D04A4B48
:1058880000221A70FDF702FD4B48FCF7D5FE5DE0DB
:10589800454B5B78DBB2002B08D0434B00225A7093
:1058A800FDF7F4FC4448FCF7C7FE4FE03E4B93F885
:1058B8003130DBB2002B49D03B4B002283F831203A
:1058C80000237B603FE07B68D8B27A681346DB0030
:1058D80013445B001033394A134405331946FDF766
:1058E800F3FB03461946304A7B68134427330A46BC
:1058F8001A702D4A7B68134427331A782A497B6823
:105908000B4421331B789A421AD0284B1B78DBB200
:105918001A467B689A4202D1244BFF221A70224A07
:105928007B681344273319781F4A7B681344213353
:105938000A461A707B68DBB21846FCF78DFF05E053
:105948007B6801337B607B68052BBCDD164B93F8C5
:105958003030DBB2022B7FF63BAF194B012283F8C4
:105968003E2AFCF771FC4FF4FA73002215491648D9
:10597800FCF736FB4FF4FA73002212491348FCF780
:105988002FFB13491348FCF7CBFB0346002B3FF4CE
:105998001FAF0B4B002283F83E2A034B002283F8EB
:1059A800302015E7A8B301081C1100201C000020B6
:1059B80020110020B4B301084911002080110020F3
:1059C800D8060020B8B30108BCB30108C8B3010861
:1059D8002B1A00201C1A0020DFF834D0002103E025
:1059E8000C4B5B58435004310B480C4B42189A42FD
:1059F800F6D30B4A02E0002342F8043B094B9A42D3
:105A0800F9D300F0E7F800F0A3F9FFF7AFFE70470D
:105A180000C0002010B701080000002090060020F8
:105A280090060020E8220020FEE780B400AF00BF07
:105A3800BD4680BC704780B400AFFEE780B400AFBD
:105A4800FEE780B400AFFEE780B400AFFEE780B4A5
:105A580000AF00BFBD4680BC704780B400AF00BF38
:105A6800BD4680BC704780B400AF00BFBD4680BC57
:105A7800704780B400AF00BFBD4680BC70470000CF
:105A880080B582B000AF78607B689BB21946084841
:105A9800FFF71AFA00BF80210548FFF735FA0346D9
:105AA800002BF8D07B6818460837BD4680BD00BF7C
:105AB8000038014080B586B000AFF860B9607A6000
:105AC80000237B6109E0BB685A1CBA601B78184642
