:020000040801F1
:1000000000C000207D410108CF410108D141010815
:10001000D3410108D5410108D74101080000000083
:10002000000000000000000000000000D9410108AD
:10003000DB41010800000000DD410108DF4101084B
:10004000CD410108CD410108CD410108CD41010854
:10005000CD410108CD410108CD410108CD41010844
:10006000CD410108CD410108CD410108CD41010834
:10007000CD410108CD410108CD410108CD41010824
:10008000CD410108CD410108CD410108CD41010814
:10009000CD410108CD410108CD410108CD41010804
:1000A000CD410108CD410108CD410108CD410108F4
:1000B000CD410108CD4101083D110108CD410108A4
:1000C000CD410108CD410108CD410108CD410108D4
:1000D000CD4101081D3C0108A91D0108352C01086E
:1000E000CD410108CD410108CD410108CD410108B4
:1000F000CD410108CD410108CD410108CD410108A4
:10010000CD410108CD410108CD410108CD41010893
:10011000CD2E0108CD410108CD410108CD41010896
:10012000CD410108CD410108CD410108CD41010873
:1001300000000000000000000000000000000000BF
:1001400000000000000000000000000000000000AF
:10015000000000000000000000000000000000009F
:10016000000000000000000000000000000000008F
:10017000000000000000000000000000000000007F
:10018000000000000000000000000000000000006F
:10019000000000000000000000000000000000005F
:1001A000000000000000000000000000000000004F
:1001B000000000000000000000000000000000003F
:1001C000000000000000000000000000000000002F
:1001D000000000000000000000000000000000001F
:0401E0005FF8E0F1F3
:1001E80010B5054C237833B9044B13B10448AFF369
:1001F80000800123237010BD90060020000000003D
:100208003C94010808B5034B1BB103490348AFF3FD
:10021800008008BD00000000940600203C940108FE
:1002280010F8012B11F8013B012A28BF9A42F7D098
:10023800D01A7047034613F8012B002AFBD1181A6D
:100248000138704781F0004102E000BF83F00043AD
:1002580030B54FEA41044FEA430594EA050F08BF59
:1002680090EA020F1FBF54EA000C55EA020C7FEA1D
:10027800645C7FEA655C00F0E2804FEA5454D4EB9A
:100288005555B8BF6D420CDD2C4480EA020281EA64
:10029800030382EA000083EA010180EA020281EA9C
:1002A8000303362D88BF30BD11F0004F4FEA0131EE
:1002B8004FF4801C4CEA113102D0404261EB4101FD
:1002C80013F0004F4FEA03334CEA133302D0524283
:1002D80063EB430394EA050F00F0A780A4F101043F
:1002E800D5F1200E0DDB02FA0EFC22FA05F2801879
:1002F80041F1000103FA0EF2801843FA05F359415F
:100308000EE0A5F120050EF1200E012A03FA0EFCDD
:1003180028BF4CF0020C43FA05F3C01851EBE37107
:1003280001F0004507D54FF0000EDCF1000C7EEB24
:1003380000006EEB0101B1F5801F1BD3B1F5001F62
:100348000CD349085FEA30004FEA3C0C04F1010481
:100358004FEA445212F5800F80F09A80BCF1004FAA
:1003680008BF5FEA500C50F1000041EB045141EA2C
:10037800050130BD5FEA4C0C404141EB010111F42D
:10038800801FA4F10104E9D191F0000F04BF0146D8
:100398000020B1FA81F308BF2033A3F10B03B3F1B6
:1003A80020020CDA0C3208DD02F1140CC2F10C0246
:1003B80001FA0CF021FA02F10CE002F11402D8BFA4
:1003C800C2F1200C01FA02F120FA0CFCDCBF41EA70
:1003D8000C019040E41AA2BF01EB0451294330BD3F
:1003E8006FEA04041F3C1CDA0C340EDC04F114041C
:1003F800C4F1200220FA04F001FA02F340EA0300F3
:1004080021FA04F345EA030130BDC4F10C04C4F138
:10041800200220FA02F001FA04F340EA0300294618
:1004280030BD21FA04F0294630BD94F0000F83F462
:10043800801306BF81F480110134013D4EE77FEA45
:10044800645C18BF7FEA655C29D094EA050F08BF91
:1004580090EA020F05D054EA000C04BF1946104672
:1004680030BD91EA030F1EBF0021002030BD5FEAB6
:10047800545C05D14000494128BF41F0004130BDDE
:1004880014F580043CBF01F5801130BD01F0004532
:1004980045F0FE4141F470014FF0000030BD7FEAA5
:1004A800645C1ABF194610467FEA655C1CBF0B46A0
:1004B800024650EA013406BF52EA033591EA030FB7
:1004C80041F4002130BD00BF90F0000F04BF0021AF
:1004D800704730B54FF4806404F132044FF00005E2
:1004E8004FF0000150E700BF90F0000F04BF00215B
:1004F800704730B54FF4806404F1320410F00045C1
:1005080048BF40424FF000013EE700BF42004FEABB
:10051800E2014FEA31014FEA02701FBF12F07F4338
:1005280093F07F4F81F06051704792F0000F14BF35
:1005380093F07F4F704730B54FF4607401F0004579
:1005480021F0004120E700BF50EA010208BF7047D0
:1005580030B54FF000050AE050EA010208BF7047C5
:1005680030B511F0004502D5404261EB41014FF42E
:10057800806404F132045FEA915C3FF4DCAE4FF032
:1005880003025FEADC0C18BF03325FEADC0C18BF19
:10059800033202EBDC02C2F1200300FA03FC20FA6A
:1005A80002F001FA03FE40EA0E0021FA02F11444B7
:1005B800C1E600BF70B54FF0FF0C4CF4E06C1CEACC
:1005C80011541DBF1CEA135594EA0C0F95EA0C0F41
:1005D80000F0DEF82C4481EA030621EA4C5123EAB4
:1005E8004C5350EA013518BF52EA033541F48011E3
:1005F80043F4801338D0A0FB02CE4FF00005E1FB96
:1006080002E506F00042E0FB03E54FF00006E1FBDF
:1006180003569CF0000F18BF4EF0010EA4F1FF0422
:10062800B6F5007F64F5407404D25FEA4E0E6D4162
:1006380046EB060642EAC62141EA55514FEAC52073
:1006480040EA5E504FEACE2EB4F1FD0C88BFBCF5EF
:10065800E06F1ED8BEF1004F08BF5FEA500E50F1A0
:10066800000041EB045170BD06F0004646EA010166
:1006780040EA020081EA0301B4EB5C04C2BFD4EB98
:100688000C0541EA045170BD41F480114FF0000E91
:10069800013C00F3AB8014F1360FDEBF002001F0FF
:1006A800004170BDC4F10004203C35DA0C341BDC79
:1006B80004F11404C4F1200500FA05F320FA04F04B
:1006C80001FA05F240EA020001F0004221F000417F
:1006D80010EBD37021FA04F642EB06015EEA430EF2
:1006E80008BF20EAD37070BDC4F10C04C4F1200522
:1006F80000FA04F320FA05F001FA04F240EA0200D5
:1007080001F0004110EBD37041F100015EEA430EA5
:1007180008BF20EAD37070BDC4F1200500FA05F2C5
:100728004EEA020E20FA04F301FA05F243EA020344
:1007380021FA04F001F0004121FA04F220EA020053
:1007480000EBD3705EEA430E08BF20EAD37070BD99
:1007580094F0000F0FD101F00046400041EB010179
:1007680011F4801F08BF013CF7D041EA060195F05B
:10077800000F18BF704703F00046520043EB030315
:1007880013F4801F08BF013DF7D043EA0603704702
:1007980094EA0C0F0CEA135518BF95EA0C0F0CD00D
:1007A80050EA410618BF52EA4306D1D181EA030153
:1007B80001F000414FF0000070BD50EA410606BF4D
:1007C8001046194652EA430619D094EA0C0F02D192
:1007D80050EA013613D195EA0C0F05D152EA0336D7
:1007E8001CBF104619460AD181EA030101F00041F5
:1007F80041F0FE4141F470014FF0000070BD41F03E
:10080800FE4141F4780170BD70B54FF0FF0C4CF417
:10081800E06C1CEA11541DBF1CEA135594EA0C0F36
:1008280095EA0C0F00F0A7F8A4EB050481EA030E83
:1008380052EA03354FEA013100F088804FEA03336A
:100848004FF0805545EA131343EA12634FEA022238
:1008580045EA111545EA10654FEA00260EF00041F9
:100868009D4208BF964244F1FD0404F5407402D24B
:100878005B084FEA3202B61A65EB03055B084FEADC
:1008880032024FF480104FF4002CB6EB020E75EBD9
:10089800030E22BFB61A754640EA0C005B084FEA01
:1008A8003202B6EB020E75EB030E22BFB61A75467E
:1008B80040EA5C005B084FEA3202B6EB020E75EBC9
:1008C800030E22BFB61A754640EA9C005B084FEA41
:1008D8003202B6EB020E75EB030E22BFB61A75464E
:1008E80040EADC0055EA060E18D04FEA051545EA3D
:1008F80016754FEA06164FEAC30343EA52734FEAE6
:10090800C2025FEA1C1CC0D111F4801F0BD141EA5E
:1009180000014FF000004FF0004CB6E711F4801FC3
:1009280004BF01430020B4F1FD0C88BFBCF5E06FA3
:100938003FF6AFAEB5EB030C04BFB6EB020C5FEAB3
:10094800500C50F1000041EB045170BD0EF0004E08
:100958004EEA113114EB5C04C2BFD4EB0C0541EA3A
:10096800045170BD41F480114FF0000E013C90E637
:1009780045EA060E8DE60CEA135594EA0C0F08BFFB
:1009880095EA0C0F3FF43BAF94EA0C0F0AD150EAFA
:1009980001347FF434AF95EA0C0F7FF425AF10468D
:1009A80019462CE795EA0C0F06D152EA03353FF4B5
:1009B800FDAE1046194622E750EA410618BF52EA32
:1009C80043067FF4C5AE50EA41047FF40DAF52EA06
:1009D80043057FF4EBAE12E74FF0FF3C06E000BFA3
:1009E8004FF0010C02E000BF4FF0010C4DF804CDB0
:1009F8004FEA410C7FEA6C5C4FEA430C18BF7FEA70
:100A08006C5C1BD001B050EA410C0CBF52EA430C9D
:100A180091EA030F02BF90EA020F0020704710F11D
:100A2800000F91EA030F58BF994208BF90422CBFAC
:100A3800D8176FEAE37040F0010070474FEA410CA5
:100A48007FEA6C5C02D150EA013C07D14FEA430CC3
:100A58007FEA6C5CD6D152EA033CD3D05DF8040B34
:100A6800704700BF8446104662468C461946634666
:100A780000E000BF01B5FFF7B7FF002848BF10F13D
:100A8800000F01BD4DF808EDFFF7F4FF0CBF012082
:100A980000205DF808FB00BF4DF808EDFFF7EAFFFE
:100AA80034BF012000205DF808FB00BF4DF808EDB9
:100AB800FFF7E0FF94BF012000205DF808FB00BFAE
:100AC8004DF808EDFFF7CEFF94BF012000205DF838
:100AD80008FB00BF4DF808EDFFF7C4FF34BF012045
:100AE80000205DF808FB00BF4FEA410C7FEA6C5C10
:100AF80002D150EA013C0AD14FEA430C7FEA6C5C10
:100B080002D152EA033C02D14FF0000070474FF087
:100B1800010070474FEA410212F5001215D211D5B3
:100B28006FF47873B3EB625212D94FEAC12343F0E2
:100B3800004343EA505311F0004F23FA02F018BF64
:100B4800404270474FF00000704750EA013005D12D
:100B580011F0004008BF6FF0004070474FF00000F0
:100B6800704700BF53B94AB9002908BF00281CBF05
:100B78004FF0FF314FF0FF3000F07AB9ADF1080CBB
:100B88006DE904CE00F006F8DDF804E0DDE90223A3
:100B980004B070472DE9F0478C460E460446089D80
:100BA800002B50D18A4217466CD9B2FA82FEBEF1A8
:100BB800000F0BD0CEF1200C01FA0EF620FA0CFC37
:100BC80002FA0EF74CEA060C00FA0EF43A0CBCFBDB
:100BD800F2F9BBB202FB19CC09FB03FA4FEA14483D
:100BE80048EA0C46B2450AD9F61909F1FF3180F0F6
:100BF8002581B24540F22281A9F102093E44A6EBC3
:100C08000A06B6FBF2F002FB106600FB03F3A4B27F
:100C180044EA0644A34209D9E41900F1FF3280F0FE
:100C28000B81A34240F2088102383C440021E41AB7
:100C380040EA0940002D62D0002324FA0EF42C600B
:100C48006B60BDE8F0878B4207D9002D55D0002195
:100C580085E841000846BDE8F087B3FA83F100292A
:100C680040F08F80B34202D3824200F2FC80841AA3
:100C780066EB03060120B446002D40D085E810102D
:100C8800BDE8F08712B90127B7FBF2F7B7FA87FE7C
:100C9800BEF1000F35D10121F61B4FEA174C1FFAA0
:100CA80087F8B6FBFCF20CFB126608FB02F0230C7B
:100CB80043EA0646B04207D9F61902F1FF3302D2D9
:100CC800B04200F2D2801A46361AB6FBFCF00CFB92
:100CD800106608FB00F8A3B243EA0644A04507D90A
:100CE800E41900F1FF3302D2A04500F2B98018469A
:100CF800A4EB080440EA02409CE729462846BDE8E0
:100D0800F08707FA0EF7CEF1200326FA03F24FEA2E
:100D1800174CB2FBFCF11FFA87F80CFB112206FAFC
:100D28000EF620FA03F301FB08F933431E0C46EADA
:100D38000246B14500FA0EF409D9F61901F1FF325D
:100D480080F08C80B14540F2898002393E44A6EBA0
:100D58000906B6FBFCF00CFB106200FB08F99EB21A
:100D680046EA0246B14507D9F61900F1FF3371D2B8
:100D7800B1456FD902383E44A6EB090640EA014165
:100D88008FE7C1F1200722FA07F88B4048EA0303EE
:100D980026FA07F44FEA134EB4FBFEF91FFA83FC58
:100DA8000EFB19448E4020FA07F809FB0CFA48EAB2
:100DB80006084FEA184646EA0444A24502FA01F238
:100DC80000FA01F608D9E41809F1FF3044D2A24527
:100DD80042D9A9F102091C44A4EB0A04B4FBFEF0B1
:100DE8000EFB104400FB0CFC1FFA88F848EA044488
:100DF800A44507D9E41800F1FF3E29D2A44527D914
:100E080002381C4440EA0940A0FB0289A4EB0C0C00
:100E1800CC45C246CE4615D312D055B1B6EB0A031F
:100E28006CEB0E0606FA07F7CB401F43CE402F6047
:100E38006E600021BDE8F0871046F7E68946DEE6D9
:100E48004645EAD2B8EB020A69EB030E0138E4E73B
:100E58007046D7E718468FE78146BDE7114676E723
:100E680002383C4444E7084606E7023A3E442BE78A
:100E7800704700BF2DE9F04701254FF00008254FC6
:100E880028463D6002F0A2FD234E2846C7F80080A0
:100E980002F09CFD28463D6002F098FD284635602A
:100EA80002F094FD4FF480511C4802F0FBF9B0FAAF
:100EB80080F44FF00F09DFF864A064090120C6F838
:100EC800008002F083FD0120356002F07FFD6400A0
:100ED8004FF480515046A4B202F0E4F908B9013445
:100EE800A4B209F1FF3313F0FF09E7D101230C4D38
:100EF80024F0C0043B60A40433602B88A40CA342F4
:100F080004D02146074803F099FA2C802046BDE812
:100F1800F08700BFAC012142A00121420008014036
:100F2800020000205894010873B50121042002F042
:100F38009DFA10264FF480730325134C01A920460F
:100F4800ADF804308DF807608DF8065002F058F9B6
:100F58004FF4006301A92046ADF804308DF807600E
:100F68008DF8065002F04CF94FF48053ADF8043078
:100F7800482301A920468DF8073002F041F9FFF710
:100F880079FF02B070BD00BF0008014037B50121EC
:100F9800142002F06BFA10251223032401A9124829
:100FA800ADF804308DF807508DF8064002F028F9A6
:100FB800082301A90D48ADF804308DF807508DF8C5
:100FC800064002F01DF90023094A136002F5803239
:100FD80008321360A2F57F42FC3A13600122054BE8
:100FE8001A7003B030BD00BF000801400010014076
:100FF80084012142AC0600202DE9F0474FF000099A
:1010080006460824CA46DFF85480124F330648BF04
:1010180001234FF001054CBFC8F80030C8F8009014
:101028000120C7F800A002F0D1FC013C3D60284631
:1010380002F0CCFCAE4014F0FF04F6B2E6D1064E46
:101048002846346002F0C2FC35602846BDE8F04707
:1010580002F0BCBC840121428C0122429001214251
:10106800074B1A7852B1C0F10702012000FA02F2C8
:10107800587820EA02005870FFF7BEBF704700BFDB
:10108800AC060020064B1A784AB1C0F107020120CD
:1010980090405A781043C0B25870FFF7ADBF704700
:1010A800AC060020064B1A784AB1C0F107020120AD
:1010B80090405A785040C0B25870FFF79DBF7047B3
:1010C800AC0600207FB51A4C064620460D4602F0B5
:1010D80011FA0121042002F0D5F9002301A92046C4
:1010E800ADF80A30ADF80630ADF80450ADF8086038
:1010F80002F0E4FA01222046114602F03EFB0121EB
:10110800204602F047FB1E2301258DF800300423FA
:1011180068468DF801308DF802308DF8035001F0E3
:101128009BFF2946204602F013FB04B070BD00BFA8
:101138000008004038B501219A4802F020FB002839
:1011480000F02B81984C0121964802F023FB94F87B
:10115800403A9BB1954A138801339BB21380138898
:101168009BB2B3F5FA6F09D100231380904B9149D4
:10117800184603F058FA012200F82D2C94F83F3A4B
:1011880083B1002301258C4A84F83F3A156084F81E
:101198003E3A874B8749184603F045FA00F82D5C1C
:1011A80084F8405A94F83E3A002B00F0F780834ABE
:1011B80013780133DBB213701378322B06D1002376
:1011C80013707D4A136883F0010313607C4C94F814
:1011D80033300BB37B4B94F831001A6801321A6034
:1011E8006422424319688A4216D100251D6000F026
:1011F80099FC754A94F8321013780133DBB21370F6
:101208001378994208D16A4B70491846157003F053
:101218000AFA012200F82D2C6D4D2B7893B16D4CF4
:10122800238801339BB2238023889BB2B3F5967F32
:1012380008D1694803F07AF90023FF2223802B7034
:10124800664B1A70664CA37B53B1237D0133DBB226
:10125800142B237504D1002301202375FFF722FFE7
:10126800E37B53B1637D0133DBB2142B637504D187
:10127800002302206375FFF715FF237C53B1A37D7C
:101288000133DBB2142BA37504D100230320A3750B
:10129800FFF708FF637C53B1E37D0133DBB2142B06
:1012A800E37504D100230420E375FFF7FBFEA37C5C
:1012B80053B1237E0133DBB2142B237604D10023F0
:1012C80005202376FFF7EEFEE37C53B1637E0133FE
:1012D800DBB2142B637604D1002306206376FFF774
:1012E800E1FEA37853B1237A0133DBB2502B23728A
:1012F80004D1002301202372FFF7D4FEE37853B111
:10130800637A0133DBB2502B637204D100230220CD
:101318006372FFF7C7FE237953B1A37A0133DBB2B7
:10132800502BA37204D100230320A372FFF7BAFE47
:10133800637953B1E37A0133DBB2502BE37204D102
:1013480000230420E372FFF7ADFEA37953B1237B9A
:101358000133DBB2502B237304D100230520237300
:10136800FFF7A0FEE37953B1637B0133DBB2502B67
:10137800637304D1002306206373FFF793FE194AB1
:1013880013780133DBB213701378022B05D10023D5
:1013980013700122144B83F8312038BD0122064B0B
:1013A8001A6013E700080040E0060020CC06002081
:1013B8005111002069940108BC012142D406002083
:1013C80011160020D0060020D50600206C940108D4
:1013D800C7060020C80600206F94010804000020FA
:1013E800AC060020CA0600202411002037B50121D0
:1013F800042002F03BF81023E0258DF80730032382
:10140800074C01A920468DF80630ADF8045001F0CC
:10141800F7FE2946204601F04DFF03B030BD00BF5E
:1014280000080140F8B5012500240B4E0746356039
:10143800642002F0CBFA3460642002F0C7FA043E5C
:10144800BC4200D1F8BD3560642002F0BFFA002329
:1014580001343360F4E700BF9801214270B50C46AF
:1014680001EB4205461AAC4206EB040000D170BD00
:1014780034F8021B01F088FEF5E701EB4202401A3E
:10148800914200D17047435A21F8023BF8E7000027
:101498002DE9F04700F17845B5F5802F07468846D5
:1014A800164654D2C5F34909C9F58064A4B201F0BF
:1014B80039FEB44228BF344625F4FF6525F00705F8
:1014C800DFF890A005F1006551464FF48062284688
:1014D800FFF7D3FF00234FF6FF719AB2944203D867
:1014E8002246414638461AE0013309EB03020AEB6B
:1014F800420232F8022C8A42EFD0284601F060FE00
:10150800002338F8131009EB030201332AF81210EC
:101518009AB29442F5D84FF4806251462846FFF7B4
:101528009DFFA64205F500650DD0361BB6B2B6F58F
:10153800806F08EB440827444FF00009344628BF61
:101548004FF48064C0E7BDE8F04701F0F5BDBDE8A1
:10155800F08700BF9C1A0020082202490248FFF7C2
:101568008CBF00BFB022002004F8030814220249EF
:101578000248FFF782BF00BF9C22002020F8030822
:10158800642202490248FFF778BF00BFB822002052
:1015980040F80308034B0622195419460248FFF77E
:1015A80077BF00BFD606002000FF030838B5054600
:1015B800034C062221460348FFF75FFF605D38BDF4
:1015C800D606002000FF030837B50121042001F0EA
:1015D8004DFF10234FF400458DF8073003230B4CC3
:1015E80001A920468DF80630ADF8045001F008FE38
:1015F8000121084601F03AFF0121054801F05CFE8F
:101608002946204601F056FE03B030BD00080140CF
:1016180000023000BFF34F8F0449054BCA6802F43B
:10162800E0621343CB60BFF34F8FFEE700ED00E0AD
:101638000400FA05F0B5294C87B00746204602F0A9
:10164800ADF801214FF4003001F01CFF0121042006
:1016580001F00CFF032304268DF802301823204DD7
:10166800694628468DF80330ADF8006001F0C8FDE2
:10167800082369462846ADF800308DF8036001F06C
:10168800BFFD262301258DF8043002230DEB06004B
:101698008DF806308DF805508DF8075001F0DCFC08
:1016A8000023ADF80C30ADF80E30ADF81030ADF8C1
:1016B80014300C2302A92046ADF81230029702F02C
:1016C800BBF82A46204640F2255102F017F9294670
:1016D800204602F007F907B0F0BD00BF0044004003
:1016E8000008014070B500230D46064601464878BB
:1016F8004A1C2C2818D10133DBB2012B14D90B4C0E
:101708004FF40072023104F6040002F084FE294608
:10171800304602F0E7FF2946C4F8040A002002F028
:10172800E1FFC4F8080A70BD1146E0E7E0060020B2
:10173800F8B50E461F460023144C154614490246B8
:101748001448A4F8423A01F0FFFB06B9DDB1B8B27B
:1017580002F058F90022B4F8423A0C49C3F30E03D8
:101768000D48E25402F06AFE2EB13146074825B111
:1017780002F09CFF38B92946044802F097FF003070
:1017880018BF0120F8BD0120F8BD00BFE006002009
:10179800B9950108004400408695010810B5082451
:1017A8004FF4FA7300220D490D48013CFFF7C0FFC2
:1017B80014F0FF04F4D14FF4FA732246074908489D
:1017C800FFF7B6FF20B1074802F0B0FE012010BDB8
:1017D800054802F0ABFE204610BD00BF7A94010810
:1017E8007D940108809401089994010870B5054614
:1017F8000E469AB00D4C6422002101A802F016FE94
:1018080021464FF4FA7300220948FFF791FF334647
:101818002A46084901A802F0C5FE4FF4E1630022F8
:10182800214601A8FFF784FF1AB070BD7A94010819
:10183800629501086F95010830B542F67B030446AE
:10184800ADF5017D4FF4FE72002101A8009302F06E
:10185800EDFD2146684602F0C9FE1149684602F0CE
:10186800C5FE00240F4DE3B21DF803107D290CD1ED
:101878000C4802F05BF80B4C8021204602F05EF821
:101888000028F9D00DF5017D30BD284602F04EF84C
:101898008021284602F052F80028F9D00134E2E706
:1018A800459501080044004008B54FF47A7002F0ED
:1018B800A9F80548054901F047FBBDE808404FF481
:1018C800FA7002F09FB800BF00440040AF940108CE
:1018D80070B55D4D5D4C4FF4FA73002229462046E1
:1018E800FFF726FF0028F6D059495A4802F09BFE18
:1018F8005749594802F097FE534D584C4FF4FA7324
:10190800002229462046FFF713FF0028F6D0544B43
:101918001C461A78591C303A092A67D81D46EA1A13
:1019280015F8010BD2B2A0F13001092960D920F0D5
:101938002001413919295BD94A494B4802F07EFDFB
:10194800414E4A4D4FF47A73002231462846FFF73C
:10195800EFFE0028F6D03C4E454D4FF4FA730022B6
:1019680031462846FFF7E4FE0028F6D041493C48B6
:1019780002F09CFE00283FD0332384F83C3A94F8C8
:101988003C1A3D4802F05AFD2F4E3C4D4FF4FA7375
:10199800002231462846FFF7CBFE0028F6D0304813
:1019A800034613F8012B3A2A2FD13549023002F0A9
:1019B80099FE02F0DFFC84F8410AC1B2314802F016
:1019C8003DFD94F83C3A332B21D11F4D2E4C4FF45A
:1019D800E163002229462046FFF7AAFE0028F6D038
:1019E8004FF47A70BDE8704002F00CB80B4690E7EF
:1019F800224482F8240A92E72449194802F056FE44
:101A080008B13623B9E73923B7E71846C8E7362BB4
:101A18000BD10D4D1E4C4FF4E163002229462046A0
:101A2800FFF786FE0028F6D0DAE7392BD8D1064D25
:101A3800184C4FF4E163002229462046FFF778FE50
:101A48000028F6D0CCE700BF7A9401089B950108DE
:101A580041960108EC100020F8100020AC95010810
:101A6800E006002004110020B4950108BE95010885
:101A7800CA950108D3950108DF950108ED9501087D
:101A8800F4950108F695010801960108D895010812
:101A98001D96010843960108F0B50D4616461F46E7
:101AA800044689B0FFF758FD129B8DE8C0000693E5
:101AB800119B074A0593109B064904930F9B2046E8
:101AC80003930E9B02932B4602F06CFD09B0F0BD08
:101AD800B02200204795010830B50D46044687B06E
:101AE800FFF744FD0B4A0C4992F83C3A049102F680
:101AF8001821039102F60C210291084902F62422CA
:101B080001910749204600912946FFF7C5FF07B014
:101B180030BD00BFE0060020409501089C2200204F
:101B28006A94010838B5114A114C92F83030114DB9
:101B38000133DBB282F8303014F8011F7D290AD155
:101B48000C4801F0F3FE0B4C8021204601F0F6FE14
:101B58000028F9D038BD284601F0E8FE8021284643
:101B680001F0ECFE0028F9D0E6E700BF24110020C0
:101B7800429501080044004010B5044C0346044A4D
:101B88000321204602F0DAFC204610BD5C1100203B
:101B9800C096010838B50546064C0146064802F0CD
:101BA8004DFC2146284601F0DFF82046BDE83840C4
:101BB800FFF742BEE00C0020B995010810B50446B5
:101BC800A0B080220021684602F030FC2146684619
:101BD800FFF782FF6846FFF7DDFF20B010BD000069
:101BE8002DE9F74300230125514C524E84F83E5A03
:101BF80084F83D3AFFF71EFD2946102001F036FC17
:101C08000323102201A94C48ADF804308DF80720B1
:101C18008DF8063001F0F4FA474D0221284601F00C
:101C280047FB4FF47A7001F0EDFE4FF47A7001F043
:101C3800E9FE4FF47A7001F0E5FE0221284601F032
:101C480039FB0121284601F033FB40F24C4001F0FA
:101C5800D9FE0121284601F02DFB4FF4FA7001F05E
:101C6800D1FEFFF721FE4FF4FA73002231463348C4
:101C7800FFF75EFD4FF4FA73002231463048FFF754
:101C880057FDFFF78BFD0028C7D0FFF721FE2D4D2C
:101C980029462D48FFF7AAFD0028F9D00325DFF8CB
:101CA800C490DFF8C480294F4846FFF787FF4FF4F8
:101CB800FA7001F0A7FEB4F8423A1B0432D5B4F822
:101CC800423A41466FF3CF333846A4F8423AFFF719
:101CD80009FD02221E49D4F8080A02F08DFB0646C7
:101CE80000BB1C491C4802F0FDFC02F043FB1B4DE5
:101CF800184985F83100304602F0F4FC02F03AFB4E
:101D080095F8311085F83200C2B2154802F096FBFA
:101D1800012384F83F3A85F8333084F83D3A03B01C
:101D2800BDE8F083013D15F0FF05BDD1FFF772FC5A
:101D3800E00600207A94010800100140B3940108DD
:101D4800BF9401084516002023160020E00A002051
:101D5800CC940108CF940108E40E0020111600204D
:101D6800D1940108C9940108F495010810B50446F6
:101D7800A0B080220021684602F058FBFFF7ECFB78
:101D88002346054A0549684602F00CFC6846FFF7F9
:101D980001FF20B010BD00BFB02200205F960108EF
:101DA80070B540F22551B34801F0D2FD002871D03A
:101DB80040F22551AF4801F0EBFDAE4801F0BAFD05
:101DC80040F2FE32AC4CC5B2B4F8423AC3F30E034B
:101DD80093426FDCB4F8423AB4F8422AC3F30E03D4
:101DE800591C61F30E02A4F8422AE5545D2D30D146
:101DF8005B21A14802F009FC58B300229F4B83F8ED
:101E080030209D4B1A78591C5B2A63D118460278FA
:101E180001335B2AFAD09A4902F064FC9949C4F864
:101E2800000801F00DF89749974802F007FB4FF4B6
:101E380080620021904802F0F9FAB4F8423A6FF350
:101E48000E03A4F8423AB4F8423A43F40043A4F823
:101E5800423A94F83D3AEBB1B4F8423A1B0419D52A
:101E6800B4F8423A89496FF3CF338648A4F8423A26
:101E7800FFF738FCD4F8085A02228549284602F0B0
:101E8800BBFA48BB01227D4B83F8300084F8400A36
:101E980083F82F200821774801F050FD002800F032
:101EA800E7807448082101F04FFDBDE87040714893
:101EB80001F040BD774802F039FB4FF48062002101
:101EC800204602F0B3FAB4F8423A6FF30E03A4F8CE
:101ED800423A8BE70B4695E702226F49284602F003
:101EE8008BFA18B9654B83F83000D3E702226B49A7
:101EF800284602F081FA0028F4D0022268492846D0
:101F080002F07AFA0646B8B96649674802F0EAFB71
:101F180002F030FA594C6349A060304602F0E2FB07
:101F280002F028FAC0B284F820006049201D02F0AF
:101F38007AFB0123A370ADE702225D49284602F02F
:101F48005BFA40B94D4B93F82030002BA2D0022009
:101F5800FFF768FA9EE702225649284602F04CFA33
:101F680030B9464B93F82030002B93D00320EFE78D
:101F780002225149284602F03FFA50B94A4802F075
:101F8800F9F90128E3D0484802F0F4F9022881D190
:101F9800ECE702224949284602F02EFA40B9374CAC
:101FA800474904F12D0002F03EFB0123637071E7FD
:101FB80002224449284602F01FFA20B94248FFF796
:101FC800D5FEFFF727FB02224049284602F014FA03
:101FD800064600BB3349344802F084FB02F0CAF9D4
:101FE800264C3049A060304602F07CFB014604F1E3
:101FF8000C0002F018FB2B49304602F073FB02F08C
:10200800B9F9C0B284F820003149201D02F00BFB59
:102018000123E3703EE702222E49284602F0ECF93C
:10202800002894D002222C49284602F0E5F920B96C
:102038000122124B83F833202CE702222749284635
:1020480002F0DAF9044600287FF424AF154916484F
:1020580002F048FB02F08EF912490546204602F0CC
:1020680041FB02F087F9C1B2E8B2FFF793FA11E732
:1020780070BD00BF00440040E0060020241100208D
:10208800F3940108E00A0020F5940108F49501088A
:102098000B950108E09401080E95010811950108B7
:1020A8001495010817950108E40E002019950108F8
:1020B8001C9501081F95010822950108259501081E
:1020C800289501082B9501082E95010831950108DE
:1020D80034950108379501083A9501083D9501089E
:1020E80010B5C8B04FF480720021044608A802F069
:1020F8009DF9FFF731FA114B93F8410AFFF73CFDC0
:102108000F4A104B05920793A2F112030493A2F110
:1021180024030393A2F136030293A2F148035A3A27
:102128000690019300922346074A084908A802F03E
:1021380039FA08A8FFF72EFD48B010BDE0060020C8
:10214800F7110020C9970108B02200206596010800
:10215800F0B504461225C5B04FF480720F4604A8A6
:10216800002102F063F90E4B204605FB0435294691
:1021780000F0C4FC0B4E344484F82100FFF7ECF95E
:10218800094B0C360293094A3B4609498DE8600021
:1021980004A802F007FA04A8FFF7FCFC45B0F0BD5C
:1021A8009D11002024110020C9970108B0220020A9
:1021B8008C95010870B505461224C2B00E464FF43E
:1021C8008072002102A802F031F90D4B284604FB69
:1021D8000534214600F092FC0A4A2A4482F821007C
:1021E800FFF7BAF9084B094A0193094933460094A5
:1021F80002A802F0D7F902A8FFF7CCFC42B070BDE4
:102208009D11002024110020C9970108B022002048
:102218008396010810B5C2B04FF4807200210446BD
:1022280002A802F003F9FFF797F91222084B0949AF
:102238000193094B02A802FB0434084B084A009496
:1022480002F0B0F902A8FFF7A5FC42B010BD00BF2C
:10225800C9970108839601089D11002089950108F6
:10226800B02200202DE9F347102503244FF47048CD
:102278004FF47E7A04261F4FDFF88490012138201E
:1022880001F0F4F801A938468DF80640ADF804804D
:102298008DF8075000F0B4FF01A948468DF80640B4
:1022A800ADF804A08DF8075000F0AAFF8DF806409D
:1022B800114C0DEB06012046ADF804608DF807506F
:1022C80000F09EFF0121084601F0D0F801210B48DB
:1022D80000F0F2FF5146484600F0ECFF4146384610
:1022E80000F0E8FF3146204600F0E4FF02B0BDE808
:1022F800F08700BF001001400014014000023000C8
:10230800000C01400138052815D8DFE800F0030B60
:102318001517191B104B1960B1FA81F1490943F8D7
:10232800041C70470D4B1960B1FA81F1A3F5004305
:102338004909103B19607047094BECE7094BEAE77C
:10234800094BE8E7094B1960B1FA81F1A3F5FF439E
:102358004909583BEEE700BFBC012242B4012242C2
:10236800A081214298812142908121428881224284
:102378000138052811D8DFE800F003091114171AED
:1023880000230E4A136042F8043C704700230C4AAD
:102398001360A2F50042103A136070470023094AFF
:1023A800F0E70023084AEDE70023084AEAE700239C
:1023B800074A1360A2F5FF42583AEDE7BC012242F2
:1023C800B4012242A0812142988121429081214278
:1023D800888122422DE9F843441EE3B2052B0546C5
:1023E80003D811B10120FFF71DF8052C1FD8DFE82D
:1023F80004F0032B4E7194B8DFF8E0910123002418
:10240800C8466A4F6A4E3B60346099F81020A3B200
:102418009A4204F101040FD8002401233C60336080
:1024280098F81120A3B29A4204F1010408D828466A
:10243800BDE8F843FFF79CBF642001F0E3FAE4E746
:10244800642001F0DFFAEBE7DFF890910123002424
:10245800C846584F584E3B60346099F81020A3B2D4
:102468009A4204F101040ED8002401233C60336031
:1024780098F81120A3B29A4204F10104D7D9642034
:1024880001F0C0FAF4E7642001F0BCFAE5E7DFF8F0
:102498004C9101230024C846484F494E3B603460A4
:1024A80099F81020A3B29A4204F101040ED800242E
:1024B80001233C60336098F81120A3B29A4204F1DA
:1024C8000104B4D9642001F09DFAF4E7642001F016
:1024D80099FAE5E7DFF8049101230024C846394F4B
:1024E800394E3B60346099F81020A3B29A4204F147
:1024F80001040ED8002401233C60336098F81120B1
:10250800A3B29A4204F1010491D9642001F07AFA45
:10251800F4E7642001F076FAE5E7DFF8C0900123DC
:102528000024C846294F2A4E3B60346099F8102091
:10253800A3B29A4204F101040FD8002401233C609D
:10254800336098F81120A3B29A4204F101047FF68F
:102558006EAF642001F056FAF3E7642001F052FAF6
:10256800E4E7DFF8789001230024C846194F1A4E93
:102578003B60346099F81020A3B29A4204F1010438
:102588000FD8002401233C60336098F81120A3B2CF
:102598009A4204F101047FF64AAF642001F032FA4E
:1025A800F3E7642001F02EFAE4E700BFBC01224201
:1025B800B8012242B4012242A4812142A0812142D1
:1025C8009C8121429881214294812142908121421B
:1025D8008C81214288812242B001224211160020BA
:1025E80008B5174801F0A2FF0122D0B20121FFF778
:1025F80089FE0132072AF8D14FF47A7001F002FA05
:102608004FF47A7001F0FEF94FF47A7001F0FAF99C
:102618000122D0B20021FFF775FE0132072AF8D156
:102628004FF47A7001F0EEF940F2DC5001F0EAF96B
:102638000121C8B2FFF79CFE01310729F9D108BD75
:102648008F96010870B52B4D86B00646284601F0D6
:10265800A5F80121082000F009FF01214FF480208E
:1026680000F010FF4FF48063ADF8003003238DF8BD
:1026780002301823204C694620468DF8033000F0BC
:10268800BFFD4FF40063ADF80030042369462046CF
:102698008DF80330002400F0B3FD0C2302A928466E
:1026A800ADF812300296ADF80C40ADF80E40ADF81A
:1026B8001040ADF8144001F0BFF82846012101F0A0
:1026C80011F92846402101F03FF9012240F2255135
:1026D800284601F013F927238DF80430012301A8B7
:1026E8008DF805408DF806408DF8073000F0B4FCF1
:1026F80006B070BD00480040000C014037B5FFF738
:10270800A1FF0121182000F0B1FE10254FF440432D
:10271800032401A90B48ADF804308DF807508DF853
:10272800064000F06DFD4FF4E07301A90648ADF8CE
:1027380004308DF807508DF8064000F061FD03B0B5
:1027480030BD00BF000C014000100140013808B541
:1027580005284DD8DFE800F0030D121C2D3B402161
:10276800244800F0A7FD80212248BDE8084000F079
:10277800A1BD40211F4800F09BFDF4E740211D4802
:1027880000F098FD80211B48BDE8084000F090BD8E
:102798004021184800F08CFD8021164800F088FD83
:1027A8004FF48041144800F085FD4FF40041124871
:1027B800DBE740210F4800F07BFD80210D4800F049
:1027C80077FD4FF480410C4800F072FDEDE74021A1
:1027D800084800F06DFD8021064800F069FD4FF4BF
:1027E8008041054800F066FD4FF400410248CBE700
:1027F80008BD00BF00100140000C01400B292DE965
:10280800F0410446884631D80A2900F10100184FE2
:10281800184E10D1C5B22846FEF722FC00213378A5
:102828003C44A170A1735E2B2846BDE8F04198BFD7
:10283800012100F077BA264471B9C5B22846B171B2
:102848003C4400F06FFA2846FEF71CFC84F802802E
:1028580084F80E80BDE8F0810025C0B22946B57124
:1028680000F060FA01233C44A570A373BDE8F08131
:10287800AC0600208811002038B5014604460648F9
:1028880001F054F8044D4021284601F057F801287A
:10289800F9D1204638BD00BF0048004070B5054654
:1028A800044641F221060020631BDBB2994200D89E
:1028B80070BD082214F8013B80EA032010F4004F91
:1028C8004FEA400314BF83EA06001846531E13F06C
:1028D800FF02F3D1E8E70FB413B5002041F2210459
:1028E80004AB53F8042B04A9019322B902B0BDE844
:1028F800104004B0704751F8043F80EA03200823D1
:1029080010F4004F03F1FF334FEA400018BF604056
:1029180013F0FF03F4D1013AE7E70000002238B5CD
:10292800064B01395A70451E4418A54200D138BDDE
:1029380015F8010FFFF7A0FFF7E700BF5F110020B0
:1029480010B5304B5B78832B49D004D8812B2AD023
:10295800822B35D010BD8F2B12D0FF2B1FD08A2B86
:102968000DD10123284A294953708B7B937000238A
:10297800CC18D018A4790133082B4473F8D110BDB2
:102988000123214A214953708B7B13700023CC18F3
:10299800D018A4790133082B4473F8D110BD012253
:1029A800194B5A7010BD0123174A184C5370002355
:1029B800E018D11880790133082B4873F8D110BD7D
:1029C8000123114A114953708B7B13700023CC18D3
:1029D800D018A4790133082B4473F8D110BD012312
:1029E80009490A4A4B70907BD37B43EA00238B80CA
:1029F8000023D418C818A4790133082B4473F8D1DC
:102A080010BD00BF76110020881100205F11002042
:102A180070B5124C124B627900205A701A4625790B
:102A28001D70291FC3B28B4200F101000FDBC9B230
:102A38000C48FFF733FF625D2C44637880B243EAA9
:102A48000223984208D1BDE87040FFF779BFD61835
:102A580023441B79B370E5E770BD00BF5F11002008
:102A6800761100207811002007B5A0230621024620
:102A78008DF8020002208DF800308DF80110FFF764
:102A88002AFFC0F307238DF80330A1238DF8040033
:102A98009DF8011068468DF80530FFF73FFF03B039
:102AA8005DF804FB70B5134C451C23189B791BB9C2
:102AB8000121E8B200F036F9E8B2FFF747FE052534
:102AC8000D4E33680220B3FA83F35B09336000F0DC
:102AD80099FF0F20FFF7C8FF322000F093FF6078BE
:102AE80018B100230120637003E0013D15F0FF05D4
:102AF800E7D170BD88110020A00122420023F0B563
:102B080085B00646ADF80C308DF80E300C46FEF751
:102B1800B1F9314F38803046FFF7C4FF3A883B8817
:102B2800D2B23241C3F307239200334103F00103C9
:102B380002F004021A4342EA4002284BD2B29F5CD8
:102B480005460B2F01D0012F08D13046FEF72EFD88
:102B5800012803D10B2F14BF00270A273946304616
:102B6800FFF74CFE85B30A2203A9304601F042FC68
:102B78000146204601F057FD1949204601F036FD6F
:102B88000A2203A9384601F035FC164D01462046B5
:102B980001F02CFD1249204601F028FD0A2203A964
:102BA800287801F027FC0146204601F01FFD0C495A
:102BB800204601F01BFD082205F10D01204601F019
:102BC8003AFD384605B0F0BD00973346064A042161
:102BD800204601F0B3FCF4E700000020AD960108A0
:102BE800CF94010888110020BD9601082DE9F04115
:102BF80000244FF012080B4F0B4E08FB04751535D7
:102C080012220021284601F011FCE0B22946FFF704
:102C180075FFA3190134062C83F82100EDD1BDE816
:102C2800F08100BF881100202411002038B540F23F
:102C38002551204800F08CFED0B140F225511D48A6
:102C48001D4C00F0A5FE1B4800F074FE25787DB9E8
:102C58006378C0B2E2180133DBB2022BD070637024
:102C680014D0142B14D0012B17D1B02800D06570C4
:102C78000821104800F062FED8B10E48082100F083
:102C880063FEBDE838400B4800F054BEA070EFE783
:102C98000A48657001F04AFCEAE7A2789A42E7D14F
:102CA800B128E5D1012365702370FFF7B1FE2570C7
:102CB800DEE738BD004800405F1100209A96010801
:102CC80037B50121182000F0D1FB102541F2070388
:102CD800032401A91048ADF804308DF807508DF889
:102CE800064000F08DFA302301A90C48ADF80430F5
:102CF8008DF807508DF8064000F082FA0123084A43
:102D080013605360A2F50042103A13605360936059
:102D1800136303B030BD00BF000C01400010014038
:102D2800900122420138052806D8DFE800F00306A2
:102D3800080A0C0E064B19607047064BFBE7064B5A
:102D4800F9E7064BF7E7064BF5E7064BF3E700BF55
:102D580090012242940122428081214284812142B1
:102D680088812142B0812142F8B505460C460027EA
:102D7800FDF760FA2A4601232B4E874203F1FF3103
:102D88003ADA92F800E035684FEA9E0E15F80EE040
:102D9800E51805F801EC157807F1010E2D017045CD
:102DA80005F030051FDD92F801C003F1010E45EA78
:102DB8001C1C3568033215F80C5007F1020CE55459
:102DC80012F8025C60454FEA850505F03C0503F101
:102DD800040314DC3268CB1C525D043104F80E2065
:102DE8003D22E25408E032682144525D981CE254C6
:102DF8003D228A70D91C225400206054F8BD12F874
:102E0800011C04EB030E45EA911531680337495D4F
:102E18000EF8031C12F8011C356801F03F01695CCB
:102E28000EF8021CA9E700BF0800002010B50446F0
:102E380001F0EBFB08B1001B10BD4FF0FF3010BDD7
:102E48002DE9F84F0E4605460024DFF874802978EE
:102E580019B931550846BDE8F88FD8F800703846DA
:102E6800FFF7E4FF697881463846FFF7DFFF8346BE
:102E7800C0F3011040EA89003055A978671C3D2944
:102E880019D0D8F80000FFF7D1FF8246C0F38300BD
:102E980040EA0B10F055E97804F102093D290DD0FC
:102EA800D8F80000FFF7C2FF00F03F0040EA8A10A0
:102EB800E71C06F8090004353C46C8E74F46FAE720
:102EC8000800002010B540F225511B4800F040FDD5
:102ED800B8B1194800F02EFD40F2FE31174BB3F897
:102EE8000024C2F30E028A420BDCB3F80024B3F8C4
:102EF8000014C2F30E02541C64F30E01A3F800146C
:102F0800985440F224410C4800F022FD012812D1C7
:102F18000A4C0948B4F8003443F40043A4F80034D8
:102F280000F008FD0649204601F0C0FB003018BF3C
:102F38000120044B187010BD004C00400A120020FC
:102F4800049701080C1600200EB4F0B5054686B0AB
:102F58000BAB53F8044B0193217821B906B0BDE8B7
:102F6800F04003B070475C290CD1637802346E2BB3
:102F780006D0722B16D10D21284600F0D7FC11E09F
:102F88000A21F9E725295BD16378642B1BD0732BC1
:102F980007D1019B1E681A1D0192013E16F8011FF8
:102FA80039B902348021284600F0C8FC0028F9D03D
:102FB800D2E7284600F0BAFC8021284600F0BEFC83
:102FC8000028F9D0EAE7019B1A1D1B680192002B23
:102FD80014D130228DF809308DF808200DF107063C
:102FE80016F8011F0029DCD0284600F09FFC80213C
:102FF800284600F0A3FC0028F9D0F1E7B8BF2D223D
:103008004FF005014FF0000742F210704FF00A0E22
:10301800BDBF8DF808205B420DF1090202AA93FB9F
:10302800F0F606B937B106F130071770012700FB33
:1030380016330132013990FBFEF0F0D11170CDE763
:10304800013499E740F0BF60024B40F40030D8608B
:10305800704700BF00ED00E010B5C2780378E2B118
:10306800124AD1684278C943C1F30221C1F104046C
:10307800A2400F24807824FA01F101400A430C4948
:103088001201C818D2B280F8002303F01F005A09B1
:103098000123834041F8223010BD01215A0903F071
:1030A8001F0301FA03F320320149F3E700ED00E0C2
:1030B80000E100E021F0604121F07F01014B014374
:1030C8009960704700ED00E0044B04281A680CBFB3
:1030D80042F0040222F004021A60704710E000E097
:1030E800034A136803F0380318431060704700BFA1
:1030F80000200240044B1A6822F010021A601A6875
:1031080010431860704700BF00200240034B044A78
:103118005A6002F188325A60704700BF00200240AE
:1031280023016745FFF7F2BF024A136943F08003A2
:103138001361704700200240FFF7F6BF084BDA68BA
:10314800D10709D4DA68520708D4DB6813F0100FE6
:1031580014BF0320042070470120704702207047E5
:103168000020024010B50446FFF7E8FF012806D109
:103178000CB9052010BDFFF7E1FF013CF6E7002C74
:1031880008BF052010BD000070B505464FF400507B
:103198000E46FFF7E7FF04280FD1084C4FF4005004
:1031A800236943F0010323612E80FFF7DBFF2369C6
:1031B80023F00103DB04DB0C236170BD0020024017
:1031C80038B505464FF43020FFF7CCFF042813D15B
:1031D8000A4C4FF43020236943F0020323616561F0
:1031E800236943F040032361FFF7BCFF236923F001
:1031F8000203DB04DB0C236138BD00BF0020024062
:10320800CB782DE9F041DA0648BF8A780E8803F0BA
:103218000F0548BF154316F0FF0F1AD000214FF0D5
:10322800010E4FF00F0C02680EFA01F737EA060498
:103238000BD18C000CFA04F822EA080205FA04F40F
:10324800282B42EA040225D1476101310829EBD134
:103258000260FF2E1CD900214FF0010E4FF00F0C19
:10326800426801F108040EFA04F434EA06070BD1A7
:103278008F000CFA07F822EA080205FA07F7282B4C
:1032880042EA07020AD1446101310829E9D14260C2
:10329800BDE8F081482B08BF0761D6E7482B08BF77
:1032A8000461F1E78368194214BF012000207047C8
:1032B80001617047416170470028164A30B500F433
:1032C8004015B4BFD3695368B5F5401F84B210D117
:1032D800556823F0706325F07065556019B1420D8B
:1032E8001201944023430B4A0028B4BFD3615360B2
:1032F80030BDC2024DBF0322420D1201C0F3034587
:103308004CBFAA4004FA02F223EA020343F07063B6
:10331800E4E700BF000001400D4B1A6842F00102CB
:103328001A6059680B4A0A405A601A6822F0847277
:1033380022F480321A601A6822F480221A605A68CD
:1033480022F4FE025A604FF41F029A60704700BFD1
:10335800001002400000FFF8014B1860704700BFE2
:1033680000004242034A536823F47C131943014383
:103378005160704700100240014B1860704700BF51
:1033880060004242034A536823F003031843506025
:10339800704700BF00100240024B586800F00C0054
:1033A800704700BF00100240034A536823F0F0033F
:1033B80018435060704700BF00100240034A53682A
:1033C80023F4E06318435060704700BF00100240C8
:1033D800034A536823F4605343EAC00050607047BF
:1033E800001002401C4A10B5536803F00C03042B6C
:1033F80001D0082B1FD0194B03605368184CC3F336
:103408000313E15C0368CB4043605168C1F30221B8
:10341800615C23FA01F181605168C1F3C221615CEA
:10342800CB40C36052680F49C2F381328A5CB3FB58
:10343800F2F3036110BD53685168C3F38343CC03AF
:1034480003F1020302D408494B43D5E751688903C5
:10345800F9D40249F8E700BF0010024000127A00D0
:10346800100000200C00002000093D00044B9A6960
:1034780011B110439861704722EA0000FAE700BFD3
:1034880000100240044BDA6911B11043D86170474B
:1034980022EA0000FAE700BF00100240044BDA6895
:1034A80011B11043D860704722EA0000FAE700BF64
:1034B80000100240044B1A6911B11043186170479B
:1034C80022EA0000FAE700BF001002404209012A80
:1034D800074B07D11B6800F01F0023FA00F000F02B
:1034E80001007047022A0CBF1B6A5B6AF3E700BF42
:1034F8000010024008B5614B98420BD101214FF4EE
:103508000060FFF7CBFF00214FF40060BDE80840E2
:10351800FFF7C4BFB0F1804F09D101210846FFF77A
:10352800C9FF00210120BDE80840FFF7C3BF544B85
:10353800984206D101210220FFF7BCFF002102209A
:10354800F1E7504B984206D101210420FFF7B2FF62
:1035580000210420E7E74C4B984206D101210820BE
:10356800FFF7A8FF00210820DDE7484B984206D165
:1035780001211020FFF79EFF00211020D3E7444BC4
:10358800984206D101212020FFF794FF0021202036
:10359800C9E7404B984208D101214FF40050FFF78A
:1035A8007DFF00214FF40050B0E73B4B984208D113
:1035B80001214FF40020FFF771FF00214FF4002094
:1035C800A4E7364B984208D101214FF48010FFF749
:1035D80065FF00214FF4801098E7314B984208D1DD
:1035E80001214FF40010FFF759FF00214FF400109C
:1035F8008CE72C4B984206D101214020FFF75AFF57
:10360800002140208FE7284B984206D101218020D5
:10361800FFF750FF0021802085E7244B984208D10E
:1036280001214FF48070FFF745FF00214FF48070AF
:1036380079E71F4B984208D101214FF48030FFF7FA
:103648002DFF00214FF4803060E71A4B984208D1D3
:1036580001214FF40030FFF721FF00214FF4003023
:1036680054E7154B984208D101214FF48020FFF709
:1036780015FF00214FF4802048E708BD002C0140C9
:103688000004004000080040000C0040001000400A
:103698000014004000340140004C0140005001403B
:1036A8000054014000180040001C00400020004069
:1036B800004001400044014000480140224A03887C
:1036C80090429BB212D002F5006290420ED0B0F147
:1036D800804F0BD0A2F59832904207D002F5806255
:1036E800904203D002F58062904203D14A8823F0C9
:1036F80070031343154A904208D002F58062904245
:103708001FBF23F44073CA889BB2134303808B887E
:1037180083850B8803850C4B98420FD003F5006313
:1037280098420BD003F54063984207D003F58063B5
:10373800984203D003F58063984201D10B7A03863F
:1037480001238382704700BF002C01400010004015
:10375800038821B19BB243F001030380704723F033
:1037680001031B041B0CF8E783899BB212B11943B0
:103778008181704723EA0101FAE7FFF7F5BF038A61
:10378800828911EA030092B203D0114214BF0120CA
:1037980000207047C94389B20182704708B5214BA0
:1037A80098420BD101214FF48040FFF777FEBDE826
:1037B800084000214FF48040FFF770BE1A4B984232
:1037C8000BD101214FF40030FFF774FE00214FF4B4
:1037D8000030BDE80840FFF76DBE144B984208D191
:1037E80001214FF48020FFF765FE00214FF480206F
:1037F800EFE70F4B984208D101214FF40020FFF763
:1038080059FE00214FF40020E3E70A4B984208D103
:1038180001214FF48010FFF74DFE00214FF4801076
:10382800D7E708BD00380140004400400048004088
:10383800004C00400050004030B50D460446038A55
:103848008A899BB2C98823F440530B430382838936
:10385800A98823F4B05323F00C031B041B0C0B435F
:10386800298987B00B4369890B439BB28381838A7B
:103878009BB223F440731343838201A8FFF7B2FD80
:10388800174A039B0499944218BF19461922A38921
:103898004A4313F4004F2B684FF0640514BF5B00D4
:1038A8009B00B2FBF3F1B1FBF5F3A28918011204F6
:1038B80005FB13130BD5DA003232B2FBF5F202F036
:1038C800070242EA00039BB2238107B030BD1B0107
:1038D8003233B3FBF5F303F00F030343F3E700BF01
:1038E80000380140838921B19BB243F4005383819E
:1038F800704723F400531B041B0CF8E701F01F0367
:1039080010B5C1F342140121012C01FA03F105D1CC
:103918000C3003683AB11943016010BD022C0CBF8A
:1039280010301430F5E723EA0101F5E7C1F3080187
:10393800818070478088C0F3080070470388194267
:1039480014BF012000207047C94389B20180704725
:103958000123C1F3421210B5012A01F01F0403FA32
:1039680004F30ED1828992B21340028892B26BB1ED
:103978000123090A03FA01F10A4214BF184600207C
:1039880010BD022A0CBF028A828AECE7184610BDD5
:103998000B0A01219940C94389B201807047000090
:1039A80010B504466FF00400FFF78EFB054BE008E6
:1039B8001870C0EB401300EB8300034BC000188065
:1039C80010BD00BF101600200E16002000220B4B61
:1039D8001B7858430A4B58609A601A6842F00102F3
:1039E8001A601A6802F00112012AFAD01A6822F045
:1039F80001021A6000229A60704700BF101600206A
:103A080010E000E000220B4B1B8858430A4B58601B
:103A18009A601A6842F001021A601A6802F00112EC
:103A2800012AFAD01A6822F001021A6000229A606C
:103A3800704700BF0E16002010E000E030B50446C5
:103A480095B05E48FFF7AAFE01210420FFF70EFD9E
:103A580001214FF48040FFF709FD4FF4007303255F
:103A6800ADF81430182305A955488DF817308DF88E
:103A78001650FFF7C5FB4FF48063ADF814300423EC
:103A880005A94F488DF81730FFF7BAFB0C230794A8
:103A9800002407A94948ADF82630ADF82040ADF814
:103AA8002240ADF82440ADF82840FFF7C5FE0121BB
:103AB8004248FFF717FF40214048FFF745FF012222
:103AC80040F225513D48FFF719FF25238DF818309E
:103AD80002238DF81930012306A88DF81B308DF8C4
:103AE8001A50FFF7B9FAFDF74BFD3649364800F092
:103AF800A5FC232221460BA800F098FC3349314845
:103B080000F0F0FD324B00F110021C4650F8041B87
:103B1800904243F8041BF9D12D492E48FCF780FB4D
:103B280010B92D4800F002FD2849002000F0DAFD08
:103B380001460BA800F077FD2449002000F0D2FDD3
:103B480000F018FC214984F83000002000F0CAFD7C
:103B580000F010FC1D492074002000F0C3FD00F0A7
:103B680009FC1E4960740BA800F0BCFD01461C4806
:103B780000F059FD1949002000F0B4FD0522014666
:103B8800184800F07EFD05221649174800F067FD29
:103B980010B9164800F0CAFC637C15480293237CD0
:103BA800019394F8303000930E4BA3F12202A3F155
:103BB800340100F043FC15B030BD00BF00380140AF
:103BC80000080140B8220020AA97010817950108AB
:103BD80011160020BE970108CF970108DE9701084B
:103BE8002316002045160020E0970108E6970108F3
:103BF800F697010802784378392A8CBF373A303A69
:103C0800392B8CBF373B303BD2B2DBB243EA0213CD
:103C1800D8B2704730B540F22551A1B08E48FFF7B1
:103C280097FEA0B340F225518B48FFF7B1FE8A48B2
:103C3800FFF780FE40F2FE32884CC0B2B4F8003480
:103C4800C3F30E0393420BDCB4F80034B4F8002439
:103C5800C3F30E03591C61F30E02A4F80024E054C8
:103C68005D2822D17E497D4800F03CFD7D4D01460E
:103C780028607D4800F0E2FB082229687B48FDF7B0
:103C880007FCB4F800346FF30E03A4F800340821DD
:103C98007148FFF753FE30B16F480821FFF754FE13
:103CA8006D48FFF747FE21B030BD24280AD170497E
:103CB8006A4800F017FD4FF4FA7300226D49FDF7CA
:103CC80037FDDEE7232808D16B49644800F00AFD78
:103CD800FFF790FFFEF7C8FED3E7252840D16749D4
:103CE8005E4800F0FFFCB4F800346FF30E03A4F84C
:103CF800003403786C2B05D140783038C0B2FDF71A
:103D0800AFF9C4E7642B05D140783038C0B2FDF76D
:103D1800B9F9BCE7612B05D10130FFF76BFFFDF75F
:103D28006BF9B4E7752B03D10122554B1A70AEE736
:103D3800632B01D10022F8E7722BA8D1514C5248CD
:103D4800214600F07BFBB4F8423A4FF480626FF3EF
:103D58000E0300212046A4F8423A00F067FB96E7DC
:103D6800402894D149493D4800F0BCFCB4F80034DF
:103D78006FF30E03A4F800340378742B0AD1447847
:103D88004348303CE4B2214600F058FB2046FDF79A
:103D980049FB7CE7262B08D1013000F0EBFA01380B
:103DA8003C49C0B2FEF7AAFE6BE7652B02D1FDF7CE
:103DB8007BFD6CE7732B07D169460130FEF7D4FF12
:103DC8006846FDF739FD62E7662B0BD14478324827
:103DD800303CE4B2214600F031FB01212046FEF7D9
:103DE80091FA54E7622B08D144782C48303CE4B26D
:103DF800214600F023FB0021F0E7702B0AD144781C
:103E08002748303CE4B2214600F018FB2046FEF774
:103E1800AFFA3CE7722B09D1082222491348FDF773
:103E28002CFB2049204800F009FB2AE7782B09D110
:103E38001E4800F07BFB1E4A1368B3FA83F35B0944
:103E4800136024E7792B7FF422AF40783038C0B272
:103E5800FEF77CFC1BE700BF003801404A16002033
:103E6800F3940108DC0600200D97010804F8030804
:103E7800219701087A9401082397010825970108DA
:103E8800C6060020E006002086950108279701084D
:103E9800299701084C1A00203E97010855970108F8
:103EA8006D970108B02200208197010894970108B6
:103EB800A001224210B51A4C1A4B22681340B3F1E4
:103EC800005F1DD1184800F031FBFFF725FA72B6E4
:103ED80000211648FFF73CFC00211548FFF702FDBA
:103EE80000211448FFF7FEFC134B144A1B681360AB
:103EF800134A1360226882F30888BDE81040184707
:103F0800104800F013FBBFF34F8F0F490F4BCA68DF
:103F180002F4E0621343CB60BFF34F8FFEE700BFAC
:103F2800000001080000FE2F2C980108000800403E
:103F38000038014000440040040001081C23002010
:103F4800202300203B98010800ED00E00400FA055A
:103F580073B5002406460194FFF7DEF90120FFF748
:103F6800FBF9174B1B6803F002030193019D022D17
:103F780024D11020FFF7BEF82846FFF7B1F82046F5
:103F8800FFF712FA2046FFF723FA4FF48060FFF795
:103F980015FA20463146FFF7E5F90120FFF7ECF95D
:103FA8003920FFF793FA0028FAD00220FFF7EAF940
:103FB800FFF7F2F90828FBD102B070BDFEE700BF99
:103FC800001002402DE9F0474FF4E010FFF7C0FF62
:103FD8004FF480314FF00060FFF76CF862B6242090
:103FE800FFF7DEFC4FF4A060FFF72CF84FF4E13048
:103FF800FFF724FD544800F099FAFCF795FFFDF708
:10400800F5F9FEF72FF9FEF75BFE4FF4E130FEF706
:1040180075FB4E4CFCF7BAFFFDF7D6FA48F69F4100
:104028000A20FDF74FF84FF4E130FDF7D9FD264699
:10403800DFF83C81A37803F0FF02002B32D0002385
:10404800434AA3701178A368994211D0A368DBB2E0
:104058001370A06894F820100130C0B2FEF7BAF9C6
:10406800A0683C49C0B2FEF7A5F801223A4B1A7085
:1040780096F8333023B1002386F83330FEF7B0FAD0
:1040880096F83030012BD5D9344B1B7803F0FF0557
:10409800002BCFD1324800F049FAFFF70BFF86F822
:1040A8003050C7E7E37803F0FF01A3B1E270284A74
:1040B8001178A3689942DBD0A3680121DBB21370A1
:1040C800A0680130C0B2FEF785F9A0682549C0B2E2
:1040D800FEF73EF8C9E7237803F0FF0233B12170F9
:1040E800FEF784FD2048FDF7FBFFC1E7637803F086
:1040F800FF050BB16270F3E794F83130002BB7D0AD
:104108004FF01209194F84F8315009FB05815FFA05
:1041180085FA15315046FEF7F1FCF87117F8013FA2
:1041280083420DD00A4B1A78AA4208BFFF223544B1
:1041380085F82100504608BF1A70FEF76BF897E71C
:104148000135062DE1D193E750980108241100208C
:104158000400002028110020C7060020C606002001
:104168005C98010834950108511100204411002081
:1041780088110020DFF834D0002103E00C4B5B5895
:10418800435004310B480C4B42189A42F6D30B4A61
:1041980002E0002342F8043B094B9A42F9D300F0AD
:1041A80071F800F0EBF8FFF70DFF704700C0002032
:1041B800989B01080000002090060020900600202F
:1041C80034230020FEE77047FEE7FEE7FEE7FEE740
:1041D800704770477047704738B581B20446064843
:1041E800FFF7A4FB044D80212846FFF7A7FB002812
:1041F800F9D0204638BD00BF0038014070B50E46E2
:1042080015460C46A31B9D4201DC284670BD14F8D8
:10421800010BFFF7E1FFF5E7044B0246196809B9FE
:1042280003491960186802441A607047601A002030
:10423800342300205822024B4FF0FF301A60704799
:10424800242300205822024B4FF0FF301A60704799
:10425800242300205822024B00201A60704700BF18
:10426800242300205822024B4FF0FF301A60704779
:10427800242300205822024B4FF0FF301A60704769
:1042880024230020374B82B01A6842F001021A60DA
:104298005968354A0A405A601A6822F0847222F432
:1042A80080321A601A6822F480221A605A6822F44E
:1042B800FE025A604FF41F029A6000220092019297
:1042C8001A6842F480321A601A6802F400320192C5
:1042D800009A01320092019A1AB9009AB2F5A06FB9
:1042E800F2D11A6812F4003218BF01220192019A21
:1042F800012A05D04FF000621C4B9A6002B070474B
:104308001B4A116841F010011160116821F0030186
:104318001160116841F0020111605A685A605A68C8
:104328005A605A6842F480625A605A6822F47C12D1
:104338005A605A6842F4E8125A601A6842F0807269
:104348001A601A689201FCD55A6822F003025A6072
:104358005A6842F002025A605A6802F00C02082AAF
:10436800FAD1C7E7001002400000FFF800ED00E0B6
:10437800002002400A22002100F08ABA70B5002508
:104388000C4E0D4CA41BA410A54209D105F052F8FF
:1043980000250A4E0A4CA41BA410A54205D170BDE5
:1043A80056F8253098470135EEE756F825309847F6
:1043B8000135F2E7909B0108909B0108909B01084A
:1043C800949B0108931E222B10B50C4604D9002398
:1043D8001C460B70204610BD0A2A09D1002807DAAE
:1043E8002D230B7001214042214401F037FAF1E7F7
:1043F8000021F9E7FFF7E6BF10B501390244904202
:1044080001D1002010BD10F8013B11F8014FA34263
:10441800F5D0181B10BD10B5431E0A44914200D1B7
:1044280010BD11F8014B03F8014FF7E703460244AA
:10443800934200D1704703F8011BF9E70FB40A4B08
:1044480013B51C6824B1A36913B9204603F0B2FA66
:1044580005AB049AA1682046019301F03FFA02B027
:10446800BDE8104004B070472000002030B5054674
:1044780089B008460C46FBF7DDFE284B05900693ED
:1044880001231844079304AB019302230494039077
:10449800029325B1AB6913B9284603F08BFAAB69CF
:1044A800AC6813B9284603F085FA1D4B9C422AD103
:1044B8006C68636EDB0705D4A389980502D4A06DE8
:1044C80003F09AFDB4F90C30990406D443F4005370
:1044D800A381636E23F400536366284601AA21462C
:1044E80003F0FCFB636E002814BF4FF0FF350A256C
:1044F800DA0705D4A3899B0502D4A06D03F07DFDDE
:10450800284609B030BD074B9C4201D1AC68D0E7C2
:10451800054B9C4208BFEC68CBE700BF3C970108FD
:104528003C9901085C9901081C990108024B014655
:104538001868FFF79BBF00BF200000200CB430B5FF
:10454800174B0C1E9DB01D6808DA8B234FF0FF3007
:104558002B601DB0BDE8304002B070474FF40273C5
:10456800ADF814300CBF234604F1FF3304930793CE
:104578004FF6FF7302900690ADF81630209A21ABE3
:1045880002A92846019300F099F9431CBCBF8B236C
:104598002B60002CDDD00022029B1A70D9E700BFE7
:1045A800200000200EB44FF4027100B59CB0ADF8A5
:1045B80014106FF00041049107914FF6FF711DAB85
:1045C80002900690084853F8042BADF816100068BE
:1045D80002A9019300F072F90022029B1A701CB024
:1045E8005DF804EB03B0704720000020024610B5C8
:1045F80013461C780132002CFAD1013B11F8012B2B
:1046080003F8012F002AF9D110BDC9B2034610F8EA
:10461800012B1AB19142F9D11846704700290CBFF5
:10462800184600207047034611F8012B03F8012BA8
:10463800002AF9D17047034630B51C785D1C44B98F
:1046480012F1FF3204D311F8014B03F8014B14B9EE
:1046580030BD2B46F1E7002AF2D11A70F0E710B509
:104668006AB10139841810F8013B11F8012F9342FF
:1046780003D1A04201D0002BF5D1981A10BD1046E5
:1046880010BD70B5044602B970BD234611F8015B30
:10469800561E03F8015B1DB91444A34203D170BD33
:1046A8001C463246EFE703F8015BF6E7F0B50378FE
:1046B80033B1034618465E1C1B7833B91846F0BD63
:1046C8000B78002B18BF0020F0BD4D1E441E15F8B6
:1046D800012F002AF3D014F8017F33469742F6D011
:1046E800E8E70000144B2DE9F0411D680646D5F8AF
:1046F800E8400F46BCB9502003F0ECFCC5F8E800D0
:10470800046044608460C4600461446184618462BC
:10471800C462046344638463C46304644464846457
:10472800C46404774462D5F8E82039463046BDE8C9
:10473800F041012300F002B820000020F0B518B9BC
:10474800106808B9F0BD204604460F4614F8015B0E
:1047580017F8016B1EB965B915602846F0BDB5425A
:10476800F6D1002BEFD114600370F0BD1C460CE0AD
:1047780015B90E4614F8013B16F8015BAB42F7D1A8
:10478800002BF3D0002304F8013C1460F0BD2DE9A0
:10479800F84F8046894692461F468B465D460A98E2
:1047A80015F8014B03F014FC2044467816F008066F
:1047B8000BD12D2C0BD101262C780BF1020567B1FA
:1047C800102F14D1302C0AD011E0AB46E6E72B2C81
:1047D80004BF2C780BF10205F1E7302C27D12B7898
:1047E80003F0DF03582B4BD110276C780235002ECD
:1047F8000CBF6FF000414FF000410022B1FBF7FE03
:10480800104607FB1E1CA4F13003092B11D81C46C7
:10481800A7421DDD531C07D0864516D301D1A445F8
:1048280013DB012200FB074015F8014BEBE70A27D1
:10483800DDE7A4F14103192B01D8373CE8E7A4F1DF
:104848006103192B04D8573CE2E74FF0FF32EBE73E
:10485800531C08D122230846C8F80030BAF1000FCB
:1048680007D1BDE8F88F06B14042BAF1000F0CD06D
:1048780022B1013DCAF80050BDE8F88F4D46F9E76E
:104888003024002FB3D10827B1E7BDE8F88F000026
:10489800084B37B51C68084D236A002B08BF2B4608
:1048A800009313460A4601462046FFF770FF03B0FF
:1048B80030BD00BF20000020140100202DE9F04F7A
:1048C800BFB0894615461F46824603F085FB03683C
:1048D80018461193FBF7AEFCB9F80C300A901B068A
:1048E80018D5D9F81030ABB94021504603F0FAFB7F
:1048F800C9F80000C9F8100048B90C23CAF80030FC
:104908004FF0FF330B930B983FB0BDE8F08F402377
:10491800C9F8143000232EAC2194239322930995CF
:1049280007930D930E93159314930B93129313936C
:10493800099D2B4613F8012B12B1252A40F08380DC
:10494800099BEE1A0DD084E84800239B3344239337
:10495800229B0133072B229377DC08340B9B3344CB
:104968000B932B78002B00F025870023691C1A462F
:104978004FF0FF3B1D460A208DF867300C934E1C04
:1049880009780996069106992039582900F2148465
:10499800DFE811F0A50012041204AA0012041204A0
:1049A8001204120412041204AD0065001204B500CA
:1049B800B8001204D500D800D800D800D800D80014
:1049C800D800D800D800D800120412041204120427
:1049D8001204120412041204120412040C0122011B
:1049E800120422011204120412041204EB0012042D
:1049F80012043C0312041204120412041204A40345
:104A0800120412048500120412041204120412047F
:104A180012041204120412041204FE006B00220194
:104A280022012201EE006B0012041204F1001204AC
:104A38001E033E037203F800120483031204A60344
:104A480012041204BE031D4673E721AA49465046C4
:104A580004F041FA002840F08E862EAC7EE7012350
:104A68002B2209998BE70F46FBE70BB18DF86720DE
:104A7800AE0640F1A180073727F0070707F10803C2
:104A88000893D7E90067002E77F1000305DA2D2394
:104A9800764267EB47078DF867300123C7E20BB111
:104AA8008DF86720A04B1593AB0640F13683073786
:104AB80027F0070707F108030893D7E90067E80715
:104AC8000BD556EA070308D030238DF868309DF8D7
:104AD800183045F002058DF869300223A4E2002A57
:104AE800BFD101232022BCE745F00105B9E73E68A4
:104AF800391D002E0C96B6DA0F4676420C9645F014
:104B08000405AEE709994E1C09782A29069110D0A8
:104B18004FF0000B09960699303909293FF633AF53
:104B280000FB0B1B09990E4616F8011B0691099606
:104B3800F1E73968099641EAE17B043791E745F0E6
:104B480080058EE700210C9106990C9E303900FBF8
:104B580006110C9109990E4616F8011B0691069943
:104B6800099630390929EFD90DE745F0080578E7A6
:104B780045F0400575E7099909786C2905D1099927
:104B88000131099145F020056BE745F0100568E70C
:104B980000263B1D08933B688DF867608DF89030C0
:104BA8004FF0010B37460DF190081CE10BB18DF861
:104BB800672045F010055BE715F0100F07F10403B7
:104BC80003D03E680893F7175DE73E6815F0400F7D
:104BD800089318BF36B2F6E70BB18DF86720073790
:104BE80027F0070707F1080308933B684FF0FF32E7
:104BF8000D937B680D9F0E930E9B384623F000465D
:104C080031464A4BFBF770FF002840F0DC854FF037
:104C1800FF32464B38463146FBF748FF002840F044
:104C2800D285129A139B0D980E99FBF735FF10B198
:104C38002D238DF867303E4B3E4A06994FF0030B03
:104C48004729CCBF90469846002625F08005374670
:104C5800C9E0BBF1FF3F26D0069B23F02003472B7A
:104C680004D1BBF1000F08BF4FF0010B45F480736E
:104C780017930E9B1F1E0D9BA8BF10970F93BDBFC8
:104C88003B4603F1004310930023B8BF2D2316932E
:104C9800069B23F02007462F08D0452F42D10BF161
:104CA8000106022304E04FF0060BDFE75E4603230C
:104CB8001FAA04921CAA03921BAA02928DE848001C
:104CC8000F9A109B504601F07BFF472F804602D178
:104CD800E80740F1858508EB0603462F079311D1B5
:104CE80098F80030302B09D1129A139B0F9810991D
:104CF800FBF7C8FE10B9C6F101061B96079A1B9B65
:104D08001A440792129A139B0F981099FBF7BAFE50
:104D180090B930221F9B079999420FD9591C1F91AE
:104D28001A70F7E75E46BCE785980108FFFFEF7F3A
:104D38007598010879980108079B1F931F9B472FB7
:104D4800A3EB0803079340F000811B9BD91C02DBEF
:104D58009B4580F22681069B023B06931B9A9DF891
:104D68001810531E002BA8BF2B221B93BCBFC2F1E7
:104D780001032D22092B8DF874108DF8752040F34E
:104D880000810A260DF1830293FBF6F006FB10332F
:104D9800092803F1300302F8013C02F1FF31034610
:104DA80000F3E880303301F8013C023A0DF1760354
:104DB8000DF1830082421946C0F0DE80079A1DABD0
:104DC800CB1A012A149303EB020B02DC15F001073E
:104DD80002D000270A9B9B44169B13B12D238DF804
:104DE80067300026179D5E453346B8BF5B460F9374
:104DF8009DF8673013B10F9B01330F9315F0020331
:104E080016931EBF0F9B02330F9315F0840317935D
:104E180018D10C9B0F9A9B1A002B109312DD109B34
:104E2800102BAB4B236000F3D981109B109A636061
:104E3800239B13442393229B0133072B229300F3D4
:104E4800E68108349DF8673073B10DF1670323607C
:104E580001236360239B01332393229B0133072B98
:104E6800229300F3DE810834169B6BB11AAB2360E2
:104E780002236360239B02332393229B0133072B76
:104E8800229300F3D8810834179B802B18D10C9BF0
:104E98000F9A9B1A002B109312DD109B102B8D4B31
:104EA800236000F3D281109B109A6360239B134404
:104EB8002393229B0133072B229300F3DF810834CD
:104EC800A6EB0B06002E0FDD824B102E236000F39D
:104ED800DF81229B239801336660072B06442396C3
:104EE800229300F3EC810834EB0500F1F281239B57
:104EF80084E800095B442393229B0133072B229308
:104F080040F3198421AA4946504603F0E4FF0028DB
:104F180040F031842EAC6B0700F110840B9B0C9A87
:104F28000F998A42ACBF9B185B180B93239B3BB12C
:104F380021AA4946504603F0CEFF002840F01B84C2
:104F48000023089F22932EACF2E4069B652B7FF783
:104F580005AF069B662B24D11B9B002B19DDBBF1EB
:104F6800000F01D1EA0702D50A9A13445B441B9F3C
:104F78009B4631E70A4607E712F8011B03F8011BB5
:104F880018E7302213448DF876208DF877301EA963
:104F980014E7BBF1000F01D1EB0715D50A9B0133CC
:104FA800E4E71B9A079B9A4206DBEF070ED50A9B9C
:104FB800134467220692DAE7079B0A99002A0B44F2
:104FC800F7DCC2F10102F3E70123D0E71346F0E76B
:104FD8000BB18DF8672015F0200F07F1040308D0F6
:104FE8000B993A68CE1708463146C2E900011F46B8
:104FF8009EE4EE0603D53A680B991160F7E7680658
:10500800F9D53A68BDF82C101180F0E745F0100585
:1050180015F0200322D0073727F0070707F1080308
:105028000893D7E90067002300228DF86720BBF1B9
:10503800FF3F00F0DB8325F080020F9256EA07025B
:1050480040F0D983BBF1000F00F0AA80012B76D085
:10505800022B00F0918000260027D2E33A1D15F0BC
:105068001001089202D03E680027DDE715F04003E2
:10507800F9D03E880027D6E73B1D089330237822D5
:105088008DF86830144B3E681593002745F00205EB
:105098008DF8692002230692C6E700263B1DBBF166
:1050A800FF3F0893D7F800808DF867600AD05A460A
:1050B8003146404603F034FA002800F08D80A0EB1A
:1050C800080BC4E54046FBF7B5F88346BFE500BFCB
:1050D800A7980108B79801089698010845F01005A7
:1050E800A90609D5073727F0070707F1080308932A
:1050F800D7E90067012397E73B1D15F0100F0893C8
:1051080001D03E6802E06A06FBD53E880027F1E739
:105118000BB18DF86720A34BC5E43B1D15F0100FAC
:10512800089301D03E6802E06E06FBD53E88002752
:10513800C5E4434666E3002F08BF0A2E05D2303681
:105148000DF1F80808F8416D77E30DF1B80830461D
:1051580039460A220023FBF705FD303208F8012DF5
:105168000023304639460A22FBF7FCFC06460F4668
:1051780056EA0703EBD160E3002600270DF1B808D3
:10518800159A06F00F03D35C3A0908F8013D330974
:1051980043EA07731E46174656EA0703F0D14CE365
:1051A8003BB9EA0705D530230DF1F80808F8413D69
:1051B80043E30DF1B80840E30BB18DF86720069B77
:1051C800002B00F0F78200269DF818308DF86760F4
:1051D8008DF890300897E3E4064638E510236360BD
:1051E800239B10332393229B0133072B229304DC48
:1051F8000834109B103B109311E621AA49465046EB
:1052080003F069FE002840F0B6822EACF1E721AA2F
:105218004946504603F05FFE002840F0AC822EACB1
:1052280010E621AA4946504603F055FE002840F0F2
:10523800A2822EAC18E621AA4946504603F04BFE3E
:10524800002840F098822EAC1EE610236360239B52
:1052580010332393229B0133072B229304DC083459
:10526800109B103B109318E621AA4946504603F0BC
:1052780032FE002840F07F822EACF1E721AA494691
:10528800504603F028FE002840F075822EAC17E641
:1052980010236360239B10332393229B0133072B36
:1052A800229302DC0834103E0EE621AA49465046F5
:1052B80003F011FE002840F05E822EACF3E721AA2D
:1052C8004946504603F007FE002840F054822EACB1
:1052D8000AE6069B652B40F3A981129A139B0D9849
:1052E8000E99FBF7CFFB002862D02F4B23600123D8
:1052F8006360239B01332393229B0133072B229363
:1053080025DC08341B9B079A934202DBEE077FF5E6
:1053180002AE119B0A9A23600A9B6360239B134485
:105328002393229B0133072B22931ADC0834079B13
:105338005E1E002E7FF7EFAD4FF010081B4F102EAA
:10534800276018DC6660239B1E442396D4E521AAB7
:105358004946504603F0BFFD002840F00C822EACB1
:10536800D0E721AA4946504603F0B5FD002840F091
:1053780002822EACDBE7239BC4F80480103323930E
:10538800229B0133072B229302DC0834103ED6E718
:1053980021AA4946504603F09EFD002840F0EB81C3
:1053A8002EACF3E79698010841960108B7980108D2
:1053B8001B9B002B7ADC9B4B236001236360239BA0
:1053C80001332393229B0133072B229344DC0834B7
:1053D8001B9B23B9079B13B9E8077FF59CAD119B6D
:1053E8000A9A23600A9B6360239B13442393229B9E
:1053F8000133072B229339DC04F108031B9E002E8E
:1054080019DA1024884F7642102E1F6038DC239A50
:105418005E601644229A23960132072A03F1080394
:10542800229208DD21AA4946504603F054FD00287F
:1054380040F0A1812EAB079A07995A60239AC3F8C6
:1054480000800A442392229A0132072A22923FF7C7
:1054580059AD03F108045EE521AA4946504603F018
:105468003AFD002840F087812EACB1E721AA4946D1
:10547800504603F030FD002840F07D812EABBDE79B
:10548800239A5C6010322392229A0132072A2292D0
:1054980002DC0833103EB7E721AA4946504603F01C
:1054A8001AFD002840F067812EABF3E7079BBB424B
:1054B800A8BF3B46002B1E460BDD6360239BC4F848
:1054C800008033442393229B0133072B22935FDC14
:1054D8000834002EB4BF3E46BE1B002E0FDDDFF899
:1054E80048B1102EC4F800B05CDC239B66601E44F3
:1054F800229B23960133072B22936ADC08341B9BDB
:10550800079A934201DBE9070DD5119B0A9A23609C
:105518000A9B6360239B13442393229B0133072B2D
:10552800229360DC0834079B079ADE1B1B9BD31A67
:105538009E42A8BF1E46002E0BDD239B47443344E2
:105548002393229B27600133072B6660229354DC48
:1055580008341B9B079A002EA2EB0303B4BF1E4618
:105568009E1B002E7FF7D7AC4FF010082E4F102E41
:1055780027607FF7E7AE239BC4F80480103323939A
:10558800229B0133072B229341DC0834103EEEE7BF
:1055980021AA4946504603F09EFC002840F0EB80C3
:1055A8002EAC96E710236360239B10332393229B32
:1055B8000133072B229302DC0834103E91E721AA1D
:1055C8004946504603F087FC002840F0D4802EACB2
:1055D800F3E721AA4946504603F07DFC002840F035
:1055E800CA802EAC8BE721AA4946504603F073FCCB
:1055F800002840F0C0802EAC95E721AA49465046C5
:1056080003F069FC002840F0B6802EACA1E721AA7F
:105618004946504603F05FFC002840F0AC802EACB1
:10562800B4E700BF41960108B7980108079B012B12
:1056380001DCEA0776D501236360239BC4F8008068
:1056480001332393229B0133072B229336DC083442
:10565800119B0A9A23600A9B6360239B134423933C
:10566800229B0133072B229331DC0834139B129AB7
:105678000D980E99FBF706FA079B5E1E00282FD19E
:1056880008F1010384E84800239B079A013B13446F
:105698002393229B0133072B22934ADD21AA4946F3
:1056A800504603F018FC002865D12EAC1DAB2360D2
:1056B800149B149A6360239B13441CE421AA494653
:1056C800504603F008FC002855D12EACC0E721AAAB
:1056D8004946504603F0FFFB00284CD12EACC5E7E5
:1056E800002EE3DD4FF01008584F102E276004DC21
:1056F800239B66601E442396CBE7239BC4F8048053
:1057080010332393229B0133072B229302DC0834A6
:10571800103EEAE721AA4946504603F0DCFB50BB9D
:105728002EACF5E701236360239BC4F800800133A6
:10573800AEE70834BAE70834FFF7EDBB0C9B0F9AC5
:105748009D1A002D7FF7EAAB1026414B102D2360E0
:105758001BDC239B65601D44229B23950133072B8B
:1057680022937FF7DBAB21AA4946504603F0B3FBEF
:1057780000283FF4D3ABB9F80C3013F0400F0B9B63
:1057880018BF4FF0FF33FFF7BDB8239B6660103397
:105798002393229B0133072B229302DC0834103D0C
:1057A800D3E721AA4946504603F095FB0028E2D1E9
:1057B8002EACF4E7239B002BDDD021AA49465046A6
:1057C80003F089FBD7E70D9A0E9B0D980E99FBF70E
:1057D8008BF900283FF43DAA1E4B1F4AFFF72DBA4C
:1057E8001F9BA3EB08030793FFF7AFBA56EA07021C
:1057F8000F953FF42BAC012B3FF49DAC022B3FF4EB
:10580800BDAC2EABF10841EA4771F80806F0070273
:1058180007460E46303256EA070103F1FF3803F80F
:10582800012C7FF486AC0F99C90706D5302A04D01D
:10583800302208F8012CA3F102082EAB5E460F9D1A
:10584800A3EB080B0027FFF7CEBA00BFB7980108F3
:10585800A79801087D98010881980108F0B58BB0D8
:1058680003460F466D461C4C04F1200E2E46206858
:105878006168083403C674453546F7D12179206834
:105888003171911E222930604FF0000104D939701E
:105898000F4638460BB0F0BD781E0646B3FBF2F54E
:1058A80002FB15330DF1280E734413F8283C4C1CE9
:1058B80006F8013F2B4665B93D557A18CC1AA34224
:1058C800E7DA44781578013300F8015F02F80149F6
:1058D800F4E72146E2E700BFC79801082DE9F04F39
:1058E800BFB00D4616461C461F46814602F074FBA3
:1058F800036818461193FAF79DFC0B90B9F1000F55
:1059080005D0D9F8183013B9484602F053F88F4B30
:105918009D422CD1D9F804506B6ED80705D4AB89B9
:10592800990502D4A86D02F067FBB5F90C309A040A
:1059380006D443F40053AB816B6E23F400536B66BB
:10594800AB891B0701D52B69EBB92946484601F0FD
:105958003BF8C0B16B6ED80705D4AB89990502D462
:10596800A86D02F04AFB4FF0FF330C9323E0784B0D
:105978009D4202D1D9F80850CEE7764B9D4208BF28
:10598800D9F80C50C8E7AB8903F01A020A2A16D1D5
:10599800B5F90E20002A12DB6A6ED20704D49F05DF
:1059A80002D4A86D02F029FB234632462946484610
:1059B80000F0CAFF0C900C983FB0BDE8F08F0023B0
:1059C8002EAC219423932293099607930E930F9359
:1059D800159314930C9312931393099E334613F85B
:1059E800012B12B1252A40F08480099BB6EB0308ED
:1059F8000DD084E80801239B43442393229B013361
:105A0800072B229377DC08340C9B43440C933378A0
:105A1800002B00F03F8700234FF0FF3B1A469A46C1
:105A28000A2001368DF867300D93711C0991317881
:105A3800069106992039582900F22484DFE811F0EC
:105A4800AE0022042204B300220422042204220409
:105A580022042204B60065002204BE00C10022040C
:105A6800DE00E100E100E100E100E100E100E10029
:105A7800E100E10022042204220422042204220478
:105A8800220422042204220415012B0122042B01E2
:105A98002204220422042204F400220422044903DA
:105AA80022042204220422042204B0032204220431
:105AB8008C00220422042204220422042204220448
:105AC80022042204220407016B002B012B012B0165
